{
	"data": {
		"bytecode": {
			"linkReferences": {},
			"object": "608060405234801561001057600080fd5b5061001a3361001f565b61006f565b600080546001600160a01b038381166001600160a01b0319831681178455604051919092169283917f8be0079c531659141344cd1fd0a4f28419497f9722a3daafe3b4186f6b6457e09190a35050565b613bcd8061007e6000396000f3fe60806040523480156200001157600080fd5b50600436106200005e5760003560e01c8063715018a6146200006357806379201eec146200006f5780638da5cb5b1462000091578063b82364ff14620000ad578063f2fde38b14620000c4575b600080fd5b6200006d620000db565b005b62000079620000f3565b60405162000088919062000a86565b60405180910390f35b6000546040516001600160a01b03909116815260200162000088565b6200006d620000be36600462000855565b62000157565b6200006d620000d536600462000830565b620006c7565b620000e562000746565b620000f16000620007a2565b565b606060018054806020026020016040519081016040528092919081815260200182805480156200014d57602002820191906000526020600020905b81546001600160a01b031681526001909101906020018083116200012e575b5050505050905090565b604080516101c0810182526001600160a01b03808e168083528d82166020840152601293830184905260608301939093526001608083015260a082018c905260c082018b905261ffff808b1660e084015289811661010084015261012083018990528716610140830152851661016082015261018081018490526101a081018390529015801590620001f157506001600160a01b038b1615155b6200023b5760405162461bcd60e51b8152602060048201526015602482015274546f6b656e2061646472657373206973207a65726f60581b60448201526064015b60405180910390fd5b600089116200028d5760405162461bcd60e51b815260206004820152601d60248201527f427579207072696365206d757374206d6f7265207468616e207a65726f000000604482015260640162000232565b8051604051600090309033908590620002a690620007f2565b620002b49392919062000a36565b604051809103906000f080158015620002d1573d6000803e3d6000fd5b5090506000816001600160a01b031663d0e30db06040518163ffffffff1660e01b815260040160206040518083038186803b1580156200031057600080fd5b505afa15801562000325573d6000803e3d6000fd5b505050506040513d601f19601f820116820180604052508101906200034b91906200092f565b9050600081116200039f5760405162461bcd60e51b815260206004820152601a60248201527f53656c6c20746f6b656e206465706f736974206973207a65726f000000000000604482015260640162000232565b6040516370a0823160e01b815233600482015281906001600160a01b038516906370a082319060240160206040518083038186803b158015620003e157600080fd5b505afa158015620003f6573d6000803e3d6000fd5b505050506040513d601f19601f820116820180604052508101906200041c91906200092f565b1015620004775760405162461bcd60e51b815260206004820152602260248201527f53656c6c20746f6b656e2062616c616e636520697320696e73756666696369656044820152611b9d60f21b606482015260840162000232565b604051636eb1769f60e11b815233600482015230602482015281906001600160a01b0385169063dd62ed3e9060440160206040518083038186803b158015620004bf57600080fd5b505afa158015620004d4573d6000803e3d6000fd5b505050506040513d601f19601f82011682018060405250810190620004fa91906200092f565b1015620005565760405162461bcd60e51b8152602060048201526024808201527f53656c6c20746f6b656e20616c6c6f77616e636520697320696e7375666669636044820152631a595b9d60e21b606482015260840162000232565b6040516323b872dd60e01b81523360048201526001600160a01b038381166024830152604482018390528416906323b872dd90606401602060405180830381600087803b158015620005a757600080fd5b505af1158015620005bc573d6000803e3d6000fd5b505050506040513d601f19601f82011682018060405250810190620005e291906200090b565b620006305760405162461bcd60e51b815260206004820152601f60248201527f53656c6c20746f6b656e207472616e7366657246726f6d206661696c75726500604482015260640162000232565b6001805480820182556000919091527fb10e2d527612073b26eecdfd717e6a320cf44b4afac2b0732d9fcbe2b7fa0cf60180546001600160a01b0319166001600160a01b0384161790556040517f1f65087849bb2b64608aa937ad033e35cc2bc63c19e4661aef806a7aa1d5e5fb90620006ae908490879062000a66565b60405180910390a1505050505050505050505050505050565b620006d162000746565b6001600160a01b038116620007385760405162461bcd60e51b815260206004820152602660248201527f4f776e61626c653a206e6577206f776e657220697320746865207a65726f206160448201526564647265737360d01b606482015260840162000232565b6200074381620007a2565b50565b6000546001600160a01b03163314620000f15760405162461bcd60e51b815260206004820181905260248201527f4f776e61626c653a2063616c6c6572206973206e6f7420746865206f776e6572604482015260640162000232565b600080546001600160a01b038381166001600160a01b0319831681178455604051919092169283917f8be0079c531659141344cd1fd0a4f28419497f9722a3daafe3b4186f6b6457e09190a35050565b6130c28062000ad683390190565b80356001600160a01b03811681146200081857600080fd5b919050565b803561ffff811681146200081857600080fd5b6000602082840312156200084357600080fd5b6200084e8262000800565b9392505050565b60008060008060008060008060008060006101608c8e0312156200087857600080fd5b620008838c62000800565b9a506200089360208d0162000800565b995060408c0135985060608c01359750620008b160808d016200081d565b9650620008c160a08d016200081d565b955060c08c01359450620008d860e08d016200081d565b9350620008e96101008d0162000800565b92506101208c013591506101408c013590509295989b509295989b9093969950565b6000602082840312156200091e57600080fd5b815180151581146200084e57600080fd5b6000602082840312156200094257600080fd5b5051919050565b80516001600160a01b0316825260208101516200097160208401826001600160a01b03169052565b50604081015162000987604084018260ff169052565b5060608101516200099d606084018260ff169052565b506080810151620009b2608084018215159052565b5060a081015160a083015260c081015160c083015260e0810151620009dd60e084018261ffff169052565b506101008181015161ffff9081169184019190915261012080830151908401526101408083015190911690830152610160808201516001600160a01b03169083015261018080820151908301526101a090810151910152565b6001600160a01b03848116825283166020820152610200810162000a5e604083018462000949565b949350505050565b6001600160a01b03831681526101e081016200084e602083018462000949565b6020808252825182820181905260009190848201906040850190845b8181101562000ac95783516001600160a01b03168352928401929184019160010162000aa2565b5090969550505050505056fe60806040523480156200001157600080fd5b50604051620030c2380380620030c2833981016040819052620000349162000682565b6200003f33620003f2565b600380546001600160a01b03199081166001600160a01b03868116919091179092556004805482168584161790558251600980549092169083161790556020820151600a80546040850151606086015160808701519486166001600160a81b031990931692909217600160a01b60ff928316021761ffff60a81b1916600160a81b919092160260ff60b01b191617600160b01b9215159290920291909117905560a0820151600b5560c0820151600c5560e0820151600d805461010085015161ffff93841663ffffffff199092169190911762010000918416820217909155610120840151600e55610140840151600f8054610160870151929094166001600160b01b0319909416939093179316029190911790556101808101516010556101a08101516011556200017062000442565b6012805460ff60a01b1916600160a01b83600481111562000195576200019562000a7f565b0217905550600954600180546001600160a01b0319166001600160a01b0390921691821790556040805163313ce56760e01b8152905163313ce56791600480820192602092909190829003018186803b158015620001f257600080fd5b505afa15801562000207573d6000803e3d6000fd5b505050506040513d601f19601f820116820180604052508101906200022d9190620007cb565b600a805460ff92909216600160a01b0260ff60a01b19831681179091556009546001600160a01b0390811691811692169190911714156200028257600a805461ffff60a81b1916608960a91b17905562000354565b600a805460ff60b01b1981169091556040805163313ce56760e01b815290516001600160a01b039092169163313ce56791600480820192602092909190829003018186803b158015620002d457600080fd5b505afa158015620002e9573d6000803e3d6000fd5b505050506040513d601f19601f820116820180604052508101906200030f9190620007cb565b600a805460ff92909216600160a81b0260ff60a81b1983168117909155600280546001600160a01b0319166001600160a01b0392831692909316919091179190911790555b6200035e6200046c565b6005819055600855601280546001600160a01b03191630179055620003838262000487565b7f95ad27b63a983f975981f9457d76ae9619c05f68e0a020ace848990fd814ee17620003b76000546001600160a01b031690565b600354600454600554604051620003e194936001600160a01b0390811693169190600990620007e9565b60405180910390a150505062000a95565b600080546001600160a01b038381166001600160a01b0319831681178455604051919092169283917f8be0079c531659141344cd1fd0a4f28419497f9722a3daafe3b4186f6b6457e09190a35050565b601054600090421015620004565750600190565b6011544211620004665750600290565b50600390565b600b5460009081906200048090826200050a565b9392505050565b620004916200056b565b6001600160a01b038116620004fc5760405162461bcd60e51b815260206004820152602660248201527f4f776e61626c653a206e6577206f776e657220697320746865207a65726f206160448201526564647265737360d01b60648201526084015b60405180910390fd5b6200050781620003f2565b50565b60008083156200053557836200051f620005c9565b6200052b908662000a47565b9150915062000564565b82156200055d5762000546620005c9565b6200055290846200091a565b839150915062000564565b5060009050805b9250929050565b6000546001600160a01b03163314620005c75760405162461bcd60e51b815260206004820181905260248201527f4f776e61626c653a2063616c6c6572206973206e6f7420746865206f776e65726044820152606401620004f3565b565b600a8054600091620005e691600160a81b900460ff169062000986565b600a80546200060191600160a01b90910460ff169062000986565b600c5462000612906064906200091a565b6200061e919062000a47565b6200062a91906200091a565b905090565b80516001600160a01b03811681146200064757600080fd5b919050565b805180151581146200064757600080fd5b805161ffff811681146200064757600080fd5b805160ff811681146200064757600080fd5b60008060008385036102008112156200069a57600080fd5b620006a5856200062f565b9350620006b5602086016200062f565b92506101c080603f1983011215620006cc57600080fd5b620006d6620008e2565b9150620006e6604087016200062f565b8252620006f6606087016200062f565b6020830152620007096080870162000670565b60408301526200071c60a0870162000670565b60608301526200072f60c087016200064c565b608083015260e086015160a08301526101008087015160c08401526101206200075a8189016200065d565b60e08501526101406200076f818a016200065d565b8386015261016092508289015182860152610180915062000792828a016200065d565b908501526101a0620007a68982016200062f565b8386015283890151828601526101e08901518186015250505050809150509250925092565b600060208284031215620007de57600080fd5b620004808262000670565b6001600160a01b038681168252858116602083015284811660408301526060820184905282548116608083015261024082019060018401546001600160a01b038282161660a085015260a081901c60ff1660c085015260a881901c60ff1660e085015262000862610100850160ff8360b01c1615159052565b5060028401546101208401526003840154610140840152600484015461ffff808216610160860152601091821c811661018086015260058601546101a086015260068601549081166101c0860152901c166001600160a01b03166101e0830152600783015461020083015260089092015461022090910152949350505050565b6040516101c081016001600160401b03811182821017156200091457634e487b7160e01b600052604160045260246000fd5b60405290565b6000826200093857634e487b7160e01b600052601260045260246000fd5b500490565b600181815b808511156200097e57816000190482111562000962576200096262000a69565b808516156200097057918102915b93841c939080029062000942565b509250929050565b60006200048060ff841683600082620009a25750600162000a41565b81620009b15750600062000a41565b8160018114620009ca5760028114620009d557620009f5565b600191505062000a41565b60ff841115620009e957620009e962000a69565b50506001821b62000a41565b5060208310610133831016604e8410600b841016171562000a1a575081810a62000a41565b62000a2683836200093d565b806000190482111562000a3d5762000a3d62000a69565b0290505b92915050565b600081600019048311821515161562000a645762000a6462000a69565b500290565b634e487b7160e01b600052601160045260246000fd5b634e487b7160e01b600052602160045260246000fd5b61261d8062000aa56000396000f3fe6080604052600436106100e15760003560e01c8063a7f437791161007f578063d6febde811610059578063d6febde8146103d0578063d79875eb146103e3578063ea8a1af0146103f6578063f2fde38b1461040b57600080fd5b8063a7f4377914610372578063c19d93fb14610387578063d0e30db0146103b257600080fd5b8063715018a6116100bb578063715018a6146101d657806388e765ff146101ed57806389035730146102025780638da5cb5b1461034a57600080fd5b80633bf3e18e1461013d5780635dab24201461016d57806366d602ae146101ac57600080fd5b36610138576040805133815260208101829052600781830152667265636569766560c81b606082015290517fd00ca3f088120b3d909c3a9e01be91e94a2b001aed9c25fe751c3c7a72dc49bf9181900360800190a1005b600080fd5b34801561014957600080fd5b50600a54600160b01b900460ff165b60405190151581526020015b60405180910390f35b34801561017957600080fd5b5061018261042b565b604080516001600160a01b0394851681529284166020840152921691810191909152606001610164565b3480156101b857600080fd5b506101c161045f565b60408051928352602083019190915201610164565b3480156101e257600080fd5b506101eb610473565b005b3480156101f957600080fd5b506101c1610487565b34801561020e57600080fd5b5061033d604080516101c081018252600080825260208201819052918101829052606081018290526080810182905260a0810182905260c0810182905260e08101829052610100810182905261012081018290526101408101829052610160810182905261018081018290526101a081019190915250604080516101c0810182526009546001600160a01b039081168252600a54808216602084015260ff600160a01b8204811694840194909452600160a81b810484166060840152600160b01b900490921615156080820152600b5460a0820152600c5460c0820152600d5461ffff80821660e084015262010000918290048116610100840152600e54610120840152600f54908116610140840152049091166101608201526010546101808201526011546101a082015290565b60405161016491906122d6565b34801561035657600080fd5b506000546040516001600160a01b039091168152602001610164565b34801561037e57600080fd5b506101eb610493565b34801561039357600080fd5b5061039c610597565b6040516101649a999897969594939291906123c9565b3480156103be57600080fd5b50600554604051908152602001610164565b6101586103de3660046122b4565b610729565b6101586103f13660046122b4565b61104d565b34801561040257600080fd5b506101eb611776565b34801561041757600080fd5b506101eb610426366004612250565b61180b565b60008060006104426000546001600160a01b031690565b60035460045491956001600160a01b039182169550911692509050565b60008061046b33611884565b915091509091565b61047b611942565b610485600061199c565b565b60008061046b336119ec565b61049b611942565b6104a3611a56565b6104ab611abd565b600f546104c6906201000090046001600160a01b0316611b96565b6105175760405162461bcd60e51b815260206004820152601860248201527f526566756e642062757920746f6b656e206661696c757265000000000000000060448201526064015b60405180910390fd5b600f54610532906201000090046001600160a01b0316611db7565b61057a5760405162461bcd60e51b8152602060048201526019602482015278526566756e642073656c6c20746f6b656e206661696c75726560381b604482015260640161050e565b601280546003919060ff60a01b1916600160a01b835b0217905550565b601254600a546000918291829182918291829182918291829182916001600160a01b039091163190600160b01b900460ff1661064f576002546012546040516370a0823160e01b81526001600160a01b0391821660048201529116906370a082319060240160206040518083038186803b15801561061457600080fd5b505afa158015610628573d6000803e3d6000fd5b505050506040513d601f19601f8201168201806040525081019061064c919061229b565b90505b600b5460065460075460055460085433600090815260146020526040908190208054600191820154915460125493516370a0823160e01b81526001600160a01b03948516600482015291938a929116906370a082319060240160206040518083038186803b1580156106c057600080fd5b505afa1580156106d4573d6000803e3d6000fd5b505050506040513d601f19601f820116820180604052508101906106f8919061229b565b601260149054906101000a900460ff169a509a509a509a509a509a509a509a509a509a505090919293949596979899565b6000610733611a56565b61073b611e80565b821580159061074957508115155b6107865760405162461bcd60e51b815260206004820152600e60248201526d416d6f756e74206973207a65726f60901b604482015260640161050e565b6107908383611f1d565b6107d05760405162461bcd60e51b81526020600482015260116024820152700a0e4d2c6ca40d2e640dad2e6dac2e8c6d607b1b604482015260640161050e565b6107da3384611f98565b61081f5760405162461bcd60e51b8152602060048201526016602482015275416d6f756e742065786365656473206d6178696d756d60501b604482015260640161050e565b6001546012546040516370a0823160e01b81526001600160a01b039182166004820152849291909116906370a082319060240160206040518083038186803b15801561086a57600080fd5b505afa15801561087e573d6000803e3d6000fd5b505050506040513d601f19601f820116820180604052508101906108a2919061229b565b10156108fb5760405162461bcd60e51b815260206004820152602260248201527f53656c6c20746f6b656e2062616c616e636520697320696e73756666696369656044820152611b9d60f21b606482015260840161050e565b600061090684611fc2565b600a54909150600160b01b900460ff1615610b05578334146109635760405162461bcd60e51b81526020600482015260166024820152751b5cd9cb9d985b1d59481a5cc81b9bdd081d985b1a5960521b604482015260640161050e565b33318411156109b45760405162461bcd60e51b815260206004820152601c60248201527f596f75722062616c616e636520697320696e73756666696369656e7400000000604482015260640161050e565b6012546040516000916001600160a01b03169086908381818185875af1925050503d8060008114610a01576040519150601f19603f3d011682016040523d82523d6000602084013e610a06565b606091505b5050905080610a575760405162461bcd60e51b815260206004820152601960248201527f5472616e7366657220636f6e7472616374206661696c75726500000000000000604482015260640161050e565b600f546201000090046001600160a01b0316610a738387612581565b604051600081818185875af1925050503d8060008114610aaf576040519150601f19603f3d011682016040523d82523d6000602084013e610ab4565b606091505b50508091505080610aff5760405162461bcd60e51b81526020600482015260156024820152745472616e73666572207465616d206661696c75726560581b604482015260640161050e565b50610e92565b600254601254604051636eb1769f60e11b81523360048201526001600160a01b0391821660248201528692919091169063dd62ed3e9060440160206040518083038186803b158015610b5657600080fd5b505afa158015610b6a573d6000803e3d6000fd5b505050506040513d601f19601f82011682018060405250810190610b8e919061229b565b1015610bed5760405162461bcd60e51b815260206004820152602860248201527f596f75722062757920746f6b656e20616c6c6f77616e636520697320696e737560448201526719999a58da595b9d60c21b606482015260840161050e565b6002546040516370a0823160e01b815233600482015285916001600160a01b0316906370a082319060240160206040518083038186803b158015610c3057600080fd5b505afa158015610c44573d6000803e3d6000fd5b505050506040513d601f19601f82011682018060405250810190610c68919061229b565b1015610cc55760405162461bcd60e51b815260206004820152602660248201527f596f75722062757920746f6b656e2062616c616e636520697320696e737566666044820152651a58da595b9d60d21b606482015260840161050e565b6002546012546040516323b872dd60e01b81523360048201526001600160a01b039182166024820152604481018790529116906323b872dd90606401602060405180830381600087803b158015610d1b57600080fd5b505af1158015610d2f573d6000803e3d6000fd5b505050506040513d601f19601f82011682018060405250810190610d539190612279565b610d9f5760405162461bcd60e51b815260206004820152601e60248201527f42757920746f6b656e207472616e7366657246726f6d206661696c7572650000604482015260640161050e565b600254600f546001600160a01b039182169163a9059cbb9162010000900416610dc88488612581565b6040516001600160e01b031960e085901b1681526001600160a01b0390921660048301526024820152604401602060405180830381600087803b158015610e0e57600080fd5b505af1158015610e22573d6000803e3d6000fd5b505050506040513d601f19601f82011682018060405250810190610e469190612279565b610e925760405162461bcd60e51b815260206004820152601f60248201527f42757920746f6b656e207472616e73666572207465616d206661696c75726500604482015260640161050e565b60015460405163a9059cbb60e01b8152336004820152602481018590526001600160a01b039091169063a9059cbb90604401602060405180830381600087803b158015610ede57600080fd5b505af1158015610ef2573d6000803e3d6000fd5b505050506040513d601f19601f82011682018060405250810190610f169190612279565b610f625760405162461bcd60e51b815260206004820152601b60248201527f53656c6c20746f6b656e207472616e73666572206661696c7572650000000000604482015260640161050e565b8360066000828254610f74919061243a565b925050819055508260086000828254610f8d9190612581565b925050819055508060076000828254610fa6919061243a565b90915550503360009081526013602052604081208054869290610fca90849061243a565b90915550503360009081526013602052604081206001018054859290610ff190849061243a565b9091555050336000908152601460205260408120805486929061101590849061243a565b9091555050336000908152601460205260408120600101805485929061103c90849061243a565b909155506001925050505b92915050565b6000611057611a56565b61105f611e80565b821580159061106d57508115155b6110aa5760405162461bcd60e51b815260206004820152600e60248201526d416d6f756e74206973207a65726f60901b604482015260640161050e565b6110b48383611f1d565b6110f45760405162461bcd60e51b81526020600482015260116024820152700a0e4d2c6ca40d2e640dad2e6dac2e8c6d607b1b604482015260640161050e565b6110fe3383611fe4565b6111435760405162461bcd60e51b8152602060048201526016602482015275416d6f756e742065786365656473206d6178696d756d60501b604482015260640161050e565b600061114e84612004565b905080611159612036565b10156111a15760405162461bcd60e51b815260206004820152601760248201527610985b185b98d9481a5cc81a5b9cdd59999a58da595b9d604a1b604482015260640161050e565b600154601254604051636eb1769f60e11b81523360048201526001600160a01b0391821660248201528592919091169063dd62ed3e9060440160206040518083038186803b1580156111f257600080fd5b505afa158015611206573d6000803e3d6000fd5b505050506040513d601f19601f8201168201806040525081019061122a919061229b565b101561128a5760405162461bcd60e51b815260206004820152602960248201527f596f75722073656c6c20746f6b656e20616c6c6f77616e636520697320696e736044820152681d59999a58da595b9d60ba1b606482015260840161050e565b6001546040516370a0823160e01b815233600482015284916001600160a01b0316906370a082319060240160206040518083038186803b1580156112cd57600080fd5b505afa1580156112e1573d6000803e3d6000fd5b505050506040513d601f19601f82011682018060405250810190611305919061229b565b10156113635760405162461bcd60e51b815260206004820152602760248201527f596f75722073656c6c20746f6b656e2062616c616e636520697320696e737566604482015266199a58da595b9d60ca1b606482015260840161050e565b6001546012546040516323b872dd60e01b81523360048201526001600160a01b039182166024820152604481018690529116906323b872dd90606401602060405180830381600087803b1580156113b957600080fd5b505af11580156113cd573d6000803e3d6000fd5b505050506040513d601f19601f820116820180604052508101906113f19190612279565b61143d5760405162461bcd60e51b815260206004820152601f60248201527f53656c6c20746f6b656e207472616e7366657246726f6d206661696c75726500604482015260640161050e565b600a54600160b01b900460ff161561153c576012546001600160a01b0316318111156114a55760405162461bcd60e51b815260206004820152601760248201527610985b185b98d9481a5cc81a5b9cdd59999a58da595b9d604a1b604482015260640161050e565b604051600090339083908381818185875af1925050503d80600081146114e7576040519150601f19603f3d011682016040523d82523d6000602084013e6114ec565b606091505b50509050806115365760405162461bcd60e51b81526020600482015260166024820152755472616e73666572206275796572206661696c75726560501b604482015260640161050e565b506116e7565b6002546012546040516370a0823160e01b81526001600160a01b039182166004820152839291909116906370a082319060240160206040518083038186803b15801561158757600080fd5b505afa15801561159b573d6000803e3d6000fd5b505050506040513d601f19601f820116820180604052508101906115bf919061229b565b10156116175760405162461bcd60e51b815260206004820152602160248201527f42757920746f6b656e2062616c616e636520697320696e73756666696369656e6044820152601d60fa1b606482015260840161050e565b60025460405163a9059cbb60e01b8152336004820152602481018390526001600160a01b039091169063a9059cbb90604401602060405180830381600087803b15801561166357600080fd5b505af1158015611677573d6000803e3d6000fd5b505050506040513d601f19601f8201168201806040525081019061169b9190612279565b6116e75760405162461bcd60e51b815260206004820181905260248201527f42757920746f6b656e207472616e73666572206275796572206661696c757265604482015260640161050e565b83600660008282546116f99190612581565b925050819055508260086000828254611712919061243a565b92505081905550806007600082825461172b9190612581565b9091555050336000908152601460205260408120805486929061174f908490612581565b9091555050336000908152601460205260408120600101805485929061103c908490612581565b61177e611942565b611786611a56565b61178e6120e0565b600f546117a9906201000090046001600160a01b0316611db7565b6117f15760405162461bcd60e51b8152602060048201526019602482015278526566756e642073656c6c20746f6b656e206661696c75726560381b604482015260640161050e565b601280546004919060ff60a01b1916600160a01b83610590565b611813611942565b6001600160a01b0381166118785760405162461bcd60e51b815260206004820152602660248201527f4f776e61626c653a206e6577206f776e657220697320746865207a65726f206160448201526564647265737360d01b606482015260840161050e565b6118818161199c565b50565b6001600160a01b0381166000908152601360208181526040808420600190810154601484529185200154600f54939092528392839261190f9291612710906118d09061ffff1684612562565b6118da9190612452565b6118e4919061243a565b6118ee9190612581565b6001600160a01b038616600090815260146020526040902060010154612131565b905060006119206007546000612147565b91505061193760006119328484612131565b612147565b935093505050915091565b6000546001600160a01b031633146104855760405162461bcd60e51b815260206004820181905260248201527f4f776e61626c653a2063616c6c6572206973206e6f7420746865206f776e6572604482015260640161050e565b600080546001600160a01b038381166001600160a01b0319831681178455604051919092169283917f8be0079c531659141344cd1fd0a4f28419497f9722a3daafe3b4186f6b6457e09190a35050565b6001600160a01b038116600090815260146020526040812054600e5482918291611a2e91611a1991612581565b600654600b54611a299190612581565b612131565b90506000611a3f6000600854612147565b509050611937611a4f8383612131565b6000612147565b6004601254600160a01b900460ff166004811115611a7657611a766125d1565b14156104855760405162461bcd60e51b815260206004820152601660248201527510dc9bddd9199d5b991a5b99c81a5cc818d85b98d95b60521b604482015260640161050e565b601154421180611ad15750600b5460065410155b611b285760405162461bcd60e51b815260206004820152602260248201527f43726f776466756e64696e6720656e6420636f6e646974696f6e206e6f74206d604482015261195d60f21b606482015260840161050e565b6003601254600160a01b900460ff166004811115611b4857611b486125d1565b14156104855760405162461bcd60e51b815260206004820152601c60248201527f43726f776466756e64696e672073746174757320697320656e64656400000000604482015260640161050e565b600a54600090600190600160b01b900460ff1615611c1e576012546001600160a01b03163115611c19576012546040516001600160a01b0385811692163190600081818185875af1925050503d8060008114611c0e576040519150601f19603f3d011682016040523d82523d6000602084013e611c13565b606091505b50909150505b611047565b6002546012546040516370a0823160e01b81526001600160a01b03918216600482015260009291909116906370a082319060240160206040518083038186803b158015611c6a57600080fd5b505afa158015611c7e573d6000803e3d6000fd5b505050506040513d601f19601f82011682018060405250810190611ca2919061229b565b1115611047576002546012546040516370a0823160e01b81526001600160a01b03918216600482015291169063a9059cbb90859083906370a08231906024015b60206040518083038186803b158015611cfa57600080fd5b505afa158015611d0e573d6000803e3d6000fd5b505050506040513d601f19601f82011682018060405250810190611d32919061229b565b6040516001600160e01b031960e085901b1681526001600160a01b0390921660048301526024820152604401602060405180830381600087803b158015611d7857600080fd5b505af1158015611d8c573d6000803e3d6000fd5b505050506040513d601f19601f82011682018060405250810190611db09190612279565b9392505050565b600180546012546040516370a0823160e01b81526001600160a01b03918216600482015260009392849216906370a082319060240160206040518083038186803b158015611e0457600080fd5b505afa158015611e18573d6000803e3d6000fd5b505050506040513d601f19601f82011682018060405250810190611e3c919061229b565b1115611047576001546012546040516370a0823160e01b81526001600160a01b03918216600482015291169063a9059cbb90859083906370a0823190602401611ce2565b601054421015611ed25760405162461bcd60e51b815260206004820152601860248201527f43726f776466756e64696e67206e6f7420737461727465640000000000000000604482015260640161050e565b6011544211156104855760405162461bcd60e51b815260206004820152601660248201527510dc9bddd9199d5b991a5b99c81a185cc8195b99195960521b604482015260640161050e565b600081611f49611f2b61219c565b611f359086612562565b600a54600160a01b900460ff1660086121f3565b1415611f5757506001611047565b82611f81611f6361219c565b611f6d9085612452565b600a54600160a81b900460ff1660086121f3565b1415611f8f57506001611047565b50600092915050565b600080611fa4846119ec565b509050808311611fb8576001915050611047565b6000915050611047565b600d5460009061271090611fda9061ffff1684612562565b6110479190612452565b600080611ff084611884565b915050808311611fb8576001915050611047565b600d54600090612710906120229062010000900461ffff1684612562565b61202c9190612452565b6110479083612581565b600a54600090600160b01b900460ff161561205c57506012546001600160a01b03163190565b6002546012546040516370a0823160e01b81526001600160a01b0391821660048201529116906370a082319060240160206040518083038186803b1580156120a357600080fd5b505afa1580156120b7573d6000803e3d6000fd5b505050506040513d601f19601f820116820180604052508101906120db919061229b565b905090565b60105442106104855760405162461bcd60e51b815260206004820152601860248201527f43726f776466756e64696e672068617320737461727465640000000000000000604482015260640161050e565b60008183106121405781611db0565b5090919050565b600080831561216c578361215961219c565b6121639086612562565b91509150612195565b821561218e5761217a61219c565b6121849084612452565b8391509150612195565b5060009050805b9250929050565b600a80546000916121b791600160a81b900460ff16906124b7565b600a80546121d091600160a01b90910460ff16906124b7565b600c546121df90606490612452565b6121e99190612562565b6120db9190612452565b60008160ff168360ff16101561220a575082611db0565b6122148284612598565b61221f90600a6124b7565b6122298385612598565b61223490600a6124b7565b61223e9086612452565b6122489190612562565b949350505050565b60006020828403121561226257600080fd5b81356001600160a01b0381168114611db057600080fd5b60006020828403121561228b57600080fd5b81518015158114611db057600080fd5b6000602082840312156122ad57600080fd5b5051919050565b600080604083850312156122c757600080fd5b50508035926020909101359150565b81516001600160a01b031681526101c08101602083015161230260208401826001600160a01b03169052565b506040830151612317604084018260ff169052565b50606083015161232c606084018260ff169052565b506080830151612340608084018215159052565b5060a083015160a083015260c083015160c083015260e083015161236a60e084018261ffff169052565b506101008381015161ffff9081169184019190915261012080850151908401526101408085015190911690830152610160808401516001600160a01b03169083015261018080840151908301526101a092830151929091019190915290565b6000610140820190508b82528a60208301528960408301528860608301528760808301528660a08301528560c08301528460e0830152836101008301526005831061242457634e487b7160e01b600052602160045260246000fd5b826101208301529b9a5050505050505050505050565b6000821982111561244d5761244d6125bb565b500190565b60008261246f57634e487b7160e01b600052601260045260246000fd5b500490565b600181815b808511156124af578160001904821115612495576124956125bb565b808516156124a257918102915b93841c9390800290612479565b509250929050565b6000611db060ff8416836000826124d057506001611047565b816124dd57506000611047565b81600181146124f357600281146124fd57612519565b6001915050611047565b60ff84111561250e5761250e6125bb565b50506001821b611047565b5060208310610133831016604e8410600b841016171561253c575081810a611047565b6125468383612474565b806000190482111561255a5761255a6125bb565b029392505050565b600081600019048311821515161561257c5761257c6125bb565b500290565b600082821015612593576125936125bb565b500390565b600060ff821660ff8416808210156125b2576125b26125bb565b90039392505050565b634e487b7160e01b600052601160045260246000fd5b634e487b7160e01b600052602160045260246000fdfea2646970667358221220800f0e811deb8a43b33c6925a8a59d49dc128b2e9befb7088e943d7eeec23bf464736f6c63430008070033a2646970667358221220ed6d38a414cf18bce573fa973524906149b7589bb3bb00f38aae52061bd451b064736f6c63430008070033",
			"opcodes": "PUSH1 0x80 PUSH1 0x40 MSTORE CALLVALUE DUP1 ISZERO PUSH2 0x10 JUMPI PUSH1 0x0 DUP1 REVERT JUMPDEST POP PUSH2 0x1A CALLER PUSH2 0x1F JUMP JUMPDEST PUSH2 0x6F JUMP JUMPDEST PUSH1 0x0 DUP1 SLOAD PUSH1 0x1 PUSH1 0x1 PUSH1 0xA0 SHL SUB DUP4 DUP2 AND PUSH1 0x1 PUSH1 0x1 PUSH1 0xA0 SHL SUB NOT DUP4 AND DUP2 OR DUP5 SSTORE PUSH1 0x40 MLOAD SWAP2 SWAP1 SWAP3 AND SWAP3 DUP4 SWAP2 PUSH32 0x8BE0079C531659141344CD1FD0A4F28419497F9722A3DAAFE3B4186F6B6457E0 SWAP2 SWAP1 LOG3 POP POP JUMP JUMPDEST PUSH2 0x3BCD DUP1 PUSH2 0x7E PUSH1 0x0 CODECOPY PUSH1 0x0 RETURN INVALID PUSH1 0x80 PUSH1 0x40 MSTORE CALLVALUE DUP1 ISZERO PUSH3 0x11 JUMPI PUSH1 0x0 DUP1 REVERT JUMPDEST POP PUSH1 0x4 CALLDATASIZE LT PUSH3 0x5E JUMPI PUSH1 0x0 CALLDATALOAD PUSH1 0xE0 SHR DUP1 PUSH4 0x715018A6 EQ PUSH3 0x63 JUMPI DUP1 PUSH4 0x79201EEC EQ PUSH3 0x6F JUMPI DUP1 PUSH4 0x8DA5CB5B EQ PUSH3 0x91 JUMPI DUP1 PUSH4 0xB82364FF EQ PUSH3 0xAD JUMPI DUP1 PUSH4 0xF2FDE38B EQ PUSH3 0xC4 JUMPI JUMPDEST PUSH1 0x0 DUP1 REVERT JUMPDEST PUSH3 0x6D PUSH3 0xDB JUMP JUMPDEST STOP JUMPDEST PUSH3 0x79 PUSH3 0xF3 JUMP JUMPDEST PUSH1 0x40 MLOAD PUSH3 0x88 SWAP2 SWAP1 PUSH3 0xA86 JUMP JUMPDEST PUSH1 0x40 MLOAD DUP1 SWAP2 SUB SWAP1 RETURN JUMPDEST PUSH1 0x0 SLOAD PUSH1 0x40 MLOAD PUSH1 0x1 PUSH1 0x1 PUSH1 0xA0 SHL SUB SWAP1 SWAP2 AND DUP2 MSTORE PUSH1 0x20 ADD PUSH3 0x88 JUMP JUMPDEST PUSH3 0x6D PUSH3 0xBE CALLDATASIZE PUSH1 0x4 PUSH3 0x855 JUMP JUMPDEST PUSH3 0x157 JUMP JUMPDEST PUSH3 0x6D PUSH3 0xD5 CALLDATASIZE PUSH1 0x4 PUSH3 0x830 JUMP JUMPDEST PUSH3 0x6C7 JUMP JUMPDEST PUSH3 0xE5 PUSH3 0x746 JUMP JUMPDEST PUSH3 0xF1 PUSH1 0x0 PUSH3 0x7A2 JUMP JUMPDEST JUMP JUMPDEST PUSH1 0x60 PUSH1 0x1 DUP1 SLOAD DUP1 PUSH1 0x20 MUL PUSH1 0x20 ADD PUSH1 0x40 MLOAD SWAP1 DUP2 ADD PUSH1 0x40 MSTORE DUP1 SWAP3 SWAP2 SWAP1 DUP2 DUP2 MSTORE PUSH1 0x20 ADD DUP3 DUP1 SLOAD DUP1 ISZERO PUSH3 0x14D JUMPI PUSH1 0x20 MUL DUP3 ADD SWAP2 SWAP1 PUSH1 0x0 MSTORE PUSH1 0x20 PUSH1 0x0 KECCAK256 SWAP1 JUMPDEST DUP2 SLOAD PUSH1 0x1 PUSH1 0x1 PUSH1 0xA0 SHL SUB AND DUP2 MSTORE PUSH1 0x1 SWAP1 SWAP2 ADD SWAP1 PUSH1 0x20 ADD DUP1 DUP4 GT PUSH3 0x12E JUMPI JUMPDEST POP POP POP POP POP SWAP1 POP SWAP1 JUMP JUMPDEST PUSH1 0x40 DUP1 MLOAD PUSH2 0x1C0 DUP2 ADD DUP3 MSTORE PUSH1 0x1 PUSH1 0x1 PUSH1 0xA0 SHL SUB DUP1 DUP15 AND DUP1 DUP4 MSTORE DUP14 DUP3 AND PUSH1 0x20 DUP5 ADD MSTORE PUSH1 0x12 SWAP4 DUP4 ADD DUP5 SWAP1 MSTORE PUSH1 0x60 DUP4 ADD SWAP4 SWAP1 SWAP4 MSTORE PUSH1 0x1 PUSH1 0x80 DUP4 ADD MSTORE PUSH1 0xA0 DUP3 ADD DUP13 SWAP1 MSTORE PUSH1 0xC0 DUP3 ADD DUP12 SWAP1 MSTORE PUSH2 0xFFFF DUP1 DUP12 AND PUSH1 0xE0 DUP5 ADD MSTORE DUP10 DUP2 AND PUSH2 0x100 DUP5 ADD MSTORE PUSH2 0x120 DUP4 ADD DUP10 SWAP1 MSTORE DUP8 AND PUSH2 0x140 DUP4 ADD MSTORE DUP6 AND PUSH2 0x160 DUP3 ADD MSTORE PUSH2 0x180 DUP2 ADD DUP5 SWAP1 MSTORE PUSH2 0x1A0 DUP2 ADD DUP4 SWAP1 MSTORE SWAP1 ISZERO DUP1 ISZERO SWAP1 PUSH3 0x1F1 JUMPI POP PUSH1 0x1 PUSH1 0x1 PUSH1 0xA0 SHL SUB DUP12 AND ISZERO ISZERO JUMPDEST PUSH3 0x23B JUMPI PUSH1 0x40 MLOAD PUSH3 0x461BCD PUSH1 0xE5 SHL DUP2 MSTORE PUSH1 0x20 PUSH1 0x4 DUP3 ADD MSTORE PUSH1 0x15 PUSH1 0x24 DUP3 ADD MSTORE PUSH21 0x546F6B656E2061646472657373206973207A65726F PUSH1 0x58 SHL PUSH1 0x44 DUP3 ADD MSTORE PUSH1 0x64 ADD JUMPDEST PUSH1 0x40 MLOAD DUP1 SWAP2 SUB SWAP1 REVERT JUMPDEST PUSH1 0x0 DUP10 GT PUSH3 0x28D JUMPI PUSH1 0x40 MLOAD PUSH3 0x461BCD PUSH1 0xE5 SHL DUP2 MSTORE PUSH1 0x20 PUSH1 0x4 DUP3 ADD MSTORE PUSH1 0x1D PUSH1 0x24 DUP3 ADD MSTORE PUSH32 0x427579207072696365206D757374206D6F7265207468616E207A65726F000000 PUSH1 0x44 DUP3 ADD MSTORE PUSH1 0x64 ADD PUSH3 0x232 JUMP JUMPDEST DUP1 MLOAD PUSH1 0x40 MLOAD PUSH1 0x0 SWAP1 ADDRESS SWAP1 CALLER SWAP1 DUP6 SWAP1 PUSH3 0x2A6 SWAP1 PUSH3 0x7F2 JUMP JUMPDEST PUSH3 0x2B4 SWAP4 SWAP3 SWAP2 SWAP1 PUSH3 0xA36 JUMP JUMPDEST PUSH1 0x40 MLOAD DUP1 SWAP2 SUB SWAP1 PUSH1 0x0 CREATE DUP1 ISZERO DUP1 ISZERO PUSH3 0x2D1 JUMPI RETURNDATASIZE PUSH1 0x0 DUP1 RETURNDATACOPY RETURNDATASIZE PUSH1 0x0 REVERT JUMPDEST POP SWAP1 POP PUSH1 0x0 DUP2 PUSH1 0x1 PUSH1 0x1 PUSH1 0xA0 SHL SUB AND PUSH4 0xD0E30DB0 PUSH1 0x40 MLOAD DUP2 PUSH4 0xFFFFFFFF AND PUSH1 0xE0 SHL DUP2 MSTORE PUSH1 0x4 ADD PUSH1 0x20 PUSH1 0x40 MLOAD DUP1 DUP4 SUB DUP2 DUP7 DUP1 EXTCODESIZE ISZERO DUP1 ISZERO PUSH3 0x310 JUMPI PUSH1 0x0 DUP1 REVERT JUMPDEST POP GAS STATICCALL ISZERO DUP1 ISZERO PUSH3 0x325 JUMPI RETURNDATASIZE PUSH1 0x0 DUP1 RETURNDATACOPY RETURNDATASIZE PUSH1 0x0 REVERT JUMPDEST POP POP POP POP PUSH1 0x40 MLOAD RETURNDATASIZE PUSH1 0x1F NOT PUSH1 0x1F DUP3 ADD AND DUP3 ADD DUP1 PUSH1 0x40 MSTORE POP DUP2 ADD SWAP1 PUSH3 0x34B SWAP2 SWAP1 PUSH3 0x92F JUMP JUMPDEST SWAP1 POP PUSH1 0x0 DUP2 GT PUSH3 0x39F JUMPI PUSH1 0x40 MLOAD PUSH3 0x461BCD PUSH1 0xE5 SHL DUP2 MSTORE PUSH1 0x20 PUSH1 0x4 DUP3 ADD MSTORE PUSH1 0x1A PUSH1 0x24 DUP3 ADD MSTORE PUSH32 0x53656C6C20746F6B656E206465706F736974206973207A65726F000000000000 PUSH1 0x44 DUP3 ADD MSTORE PUSH1 0x64 ADD PUSH3 0x232 JUMP JUMPDEST PUSH1 0x40 MLOAD PUSH4 0x70A08231 PUSH1 0xE0 SHL DUP2 MSTORE CALLER PUSH1 0x4 DUP3 ADD MSTORE DUP2 SWAP1 PUSH1 0x1 PUSH1 0x1 PUSH1 0xA0 SHL SUB DUP6 AND SWAP1 PUSH4 0x70A08231 SWAP1 PUSH1 0x24 ADD PUSH1 0x20 PUSH1 0x40 MLOAD DUP1 DUP4 SUB DUP2 DUP7 DUP1 EXTCODESIZE ISZERO DUP1 ISZERO PUSH3 0x3E1 JUMPI PUSH1 0x0 DUP1 REVERT JUMPDEST POP GAS STATICCALL ISZERO DUP1 ISZERO PUSH3 0x3F6 JUMPI RETURNDATASIZE PUSH1 0x0 DUP1 RETURNDATACOPY RETURNDATASIZE PUSH1 0x0 REVERT JUMPDEST POP POP POP POP PUSH1 0x40 MLOAD RETURNDATASIZE PUSH1 0x1F NOT PUSH1 0x1F DUP3 ADD AND DUP3 ADD DUP1 PUSH1 0x40 MSTORE POP DUP2 ADD SWAP1 PUSH3 0x41C SWAP2 SWAP1 PUSH3 0x92F JUMP JUMPDEST LT ISZERO PUSH3 0x477 JUMPI PUSH1 0x40 MLOAD PUSH3 0x461BCD PUSH1 0xE5 SHL DUP2 MSTORE PUSH1 0x20 PUSH1 0x4 DUP3 ADD MSTORE PUSH1 0x22 PUSH1 0x24 DUP3 ADD MSTORE PUSH32 0x53656C6C20746F6B656E2062616C616E636520697320696E7375666669636965 PUSH1 0x44 DUP3 ADD MSTORE PUSH2 0x1B9D PUSH1 0xF2 SHL PUSH1 0x64 DUP3 ADD MSTORE PUSH1 0x84 ADD PUSH3 0x232 JUMP JUMPDEST PUSH1 0x40 MLOAD PUSH4 0x6EB1769F PUSH1 0xE1 SHL DUP2 MSTORE CALLER PUSH1 0x4 DUP3 ADD MSTORE ADDRESS PUSH1 0x24 DUP3 ADD MSTORE DUP2 SWAP1 PUSH1 0x1 PUSH1 0x1 PUSH1 0xA0 SHL SUB DUP6 AND SWAP1 PUSH4 0xDD62ED3E SWAP1 PUSH1 0x44 ADD PUSH1 0x20 PUSH1 0x40 MLOAD DUP1 DUP4 SUB DUP2 DUP7 DUP1 EXTCODESIZE ISZERO DUP1 ISZERO PUSH3 0x4BF JUMPI PUSH1 0x0 DUP1 REVERT JUMPDEST POP GAS STATICCALL ISZERO DUP1 ISZERO PUSH3 0x4D4 JUMPI RETURNDATASIZE PUSH1 0x0 DUP1 RETURNDATACOPY RETURNDATASIZE PUSH1 0x0 REVERT JUMPDEST POP POP POP POP PUSH1 0x40 MLOAD RETURNDATASIZE PUSH1 0x1F NOT PUSH1 0x1F DUP3 ADD AND DUP3 ADD DUP1 PUSH1 0x40 MSTORE POP DUP2 ADD SWAP1 PUSH3 0x4FA SWAP2 SWAP1 PUSH3 0x92F JUMP JUMPDEST LT ISZERO PUSH3 0x556 JUMPI PUSH1 0x40 MLOAD PUSH3 0x461BCD PUSH1 0xE5 SHL DUP2 MSTORE PUSH1 0x20 PUSH1 0x4 DUP3 ADD MSTORE PUSH1 0x24 DUP1 DUP3 ADD MSTORE PUSH32 0x53656C6C20746F6B656E20616C6C6F77616E636520697320696E737566666963 PUSH1 0x44 DUP3 ADD MSTORE PUSH4 0x1A595B9D PUSH1 0xE2 SHL PUSH1 0x64 DUP3 ADD MSTORE PUSH1 0x84 ADD PUSH3 0x232 JUMP JUMPDEST PUSH1 0x40 MLOAD PUSH4 0x23B872DD PUSH1 0xE0 SHL DUP2 MSTORE CALLER PUSH1 0x4 DUP3 ADD MSTORE PUSH1 0x1 PUSH1 0x1 PUSH1 0xA0 SHL SUB DUP4 DUP2 AND PUSH1 0x24 DUP4 ADD MSTORE PUSH1 0x44 DUP3 ADD DUP4 SWAP1 MSTORE DUP5 AND SWAP1 PUSH4 0x23B872DD SWAP1 PUSH1 0x64 ADD PUSH1 0x20 PUSH1 0x40 MLOAD DUP1 DUP4 SUB DUP2 PUSH1 0x0 DUP8 DUP1 EXTCODESIZE ISZERO DUP1 ISZERO PUSH3 0x5A7 JUMPI PUSH1 0x0 DUP1 REVERT JUMPDEST POP GAS CALL ISZERO DUP1 ISZERO PUSH3 0x5BC JUMPI RETURNDATASIZE PUSH1 0x0 DUP1 RETURNDATACOPY RETURNDATASIZE PUSH1 0x0 REVERT JUMPDEST POP POP POP POP PUSH1 0x40 MLOAD RETURNDATASIZE PUSH1 0x1F NOT PUSH1 0x1F DUP3 ADD AND DUP3 ADD DUP1 PUSH1 0x40 MSTORE POP DUP2 ADD SWAP1 PUSH3 0x5E2 SWAP2 SWAP1 PUSH3 0x90B JUMP JUMPDEST PUSH3 0x630 JUMPI PUSH1 0x40 MLOAD PUSH3 0x461BCD PUSH1 0xE5 SHL DUP2 MSTORE PUSH1 0x20 PUSH1 0x4 DUP3 ADD MSTORE PUSH1 0x1F PUSH1 0x24 DUP3 ADD MSTORE PUSH32 0x53656C6C20746F6B656E207472616E7366657246726F6D206661696C75726500 PUSH1 0x44 DUP3 ADD MSTORE PUSH1 0x64 ADD PUSH3 0x232 JUMP JUMPDEST PUSH1 0x1 DUP1 SLOAD DUP1 DUP3 ADD DUP3 SSTORE PUSH1 0x0 SWAP2 SWAP1 SWAP2 MSTORE PUSH32 0xB10E2D527612073B26EECDFD717E6A320CF44B4AFAC2B0732D9FCBE2B7FA0CF6 ADD DUP1 SLOAD PUSH1 0x1 PUSH1 0x1 PUSH1 0xA0 SHL SUB NOT AND PUSH1 0x1 PUSH1 0x1 PUSH1 0xA0 SHL SUB DUP5 AND OR SWAP1 SSTORE PUSH1 0x40 MLOAD PUSH32 0x1F65087849BB2B64608AA937AD033E35CC2BC63C19E4661AEF806A7AA1D5E5FB SWAP1 PUSH3 0x6AE SWAP1 DUP5 SWAP1 DUP8 SWAP1 PUSH3 0xA66 JUMP JUMPDEST PUSH1 0x40 MLOAD DUP1 SWAP2 SUB SWAP1 LOG1 POP POP POP POP POP POP POP POP POP POP POP POP POP POP POP JUMP JUMPDEST PUSH3 0x6D1 PUSH3 0x746 JUMP JUMPDEST PUSH1 0x1 PUSH1 0x1 PUSH1 0xA0 SHL SUB DUP2 AND PUSH3 0x738 JUMPI PUSH1 0x40 MLOAD PUSH3 0x461BCD PUSH1 0xE5 SHL DUP2 MSTORE PUSH1 0x20 PUSH1 0x4 DUP3 ADD MSTORE PUSH1 0x26 PUSH1 0x24 DUP3 ADD MSTORE PUSH32 0x4F776E61626C653A206E6577206F776E657220697320746865207A65726F2061 PUSH1 0x44 DUP3 ADD MSTORE PUSH6 0x646472657373 PUSH1 0xD0 SHL PUSH1 0x64 DUP3 ADD MSTORE PUSH1 0x84 ADD PUSH3 0x232 JUMP JUMPDEST PUSH3 0x743 DUP2 PUSH3 0x7A2 JUMP JUMPDEST POP JUMP JUMPDEST PUSH1 0x0 SLOAD PUSH1 0x1 PUSH1 0x1 PUSH1 0xA0 SHL SUB AND CALLER EQ PUSH3 0xF1 JUMPI PUSH1 0x40 MLOAD PUSH3 0x461BCD PUSH1 0xE5 SHL DUP2 MSTORE PUSH1 0x20 PUSH1 0x4 DUP3 ADD DUP2 SWAP1 MSTORE PUSH1 0x24 DUP3 ADD MSTORE PUSH32 0x4F776E61626C653A2063616C6C6572206973206E6F7420746865206F776E6572 PUSH1 0x44 DUP3 ADD MSTORE PUSH1 0x64 ADD PUSH3 0x232 JUMP JUMPDEST PUSH1 0x0 DUP1 SLOAD PUSH1 0x1 PUSH1 0x1 PUSH1 0xA0 SHL SUB DUP4 DUP2 AND PUSH1 0x1 PUSH1 0x1 PUSH1 0xA0 SHL SUB NOT DUP4 AND DUP2 OR DUP5 SSTORE PUSH1 0x40 MLOAD SWAP2 SWAP1 SWAP3 AND SWAP3 DUP4 SWAP2 PUSH32 0x8BE0079C531659141344CD1FD0A4F28419497F9722A3DAAFE3B4186F6B6457E0 SWAP2 SWAP1 LOG3 POP POP JUMP JUMPDEST PUSH2 0x30C2 DUP1 PUSH3 0xAD6 DUP4 CODECOPY ADD SWAP1 JUMP JUMPDEST DUP1 CALLDATALOAD PUSH1 0x1 PUSH1 0x1 PUSH1 0xA0 SHL SUB DUP2 AND DUP2 EQ PUSH3 0x818 JUMPI PUSH1 0x0 DUP1 REVERT JUMPDEST SWAP2 SWAP1 POP JUMP JUMPDEST DUP1 CALLDATALOAD PUSH2 0xFFFF DUP2 AND DUP2 EQ PUSH3 0x818 JUMPI PUSH1 0x0 DUP1 REVERT JUMPDEST PUSH1 0x0 PUSH1 0x20 DUP3 DUP5 SUB SLT ISZERO PUSH3 0x843 JUMPI PUSH1 0x0 DUP1 REVERT JUMPDEST PUSH3 0x84E DUP3 PUSH3 0x800 JUMP JUMPDEST SWAP4 SWAP3 POP POP POP JUMP JUMPDEST PUSH1 0x0 DUP1 PUSH1 0x0 DUP1 PUSH1 0x0 DUP1 PUSH1 0x0 DUP1 PUSH1 0x0 DUP1 PUSH1 0x0 PUSH2 0x160 DUP13 DUP15 SUB SLT ISZERO PUSH3 0x878 JUMPI PUSH1 0x0 DUP1 REVERT JUMPDEST PUSH3 0x883 DUP13 PUSH3 0x800 JUMP JUMPDEST SWAP11 POP PUSH3 0x893 PUSH1 0x20 DUP14 ADD PUSH3 0x800 JUMP JUMPDEST SWAP10 POP PUSH1 0x40 DUP13 ADD CALLDATALOAD SWAP9 POP PUSH1 0x60 DUP13 ADD CALLDATALOAD SWAP8 POP PUSH3 0x8B1 PUSH1 0x80 DUP14 ADD PUSH3 0x81D JUMP JUMPDEST SWAP7 POP PUSH3 0x8C1 PUSH1 0xA0 DUP14 ADD PUSH3 0x81D JUMP JUMPDEST SWAP6 POP PUSH1 0xC0 DUP13 ADD CALLDATALOAD SWAP5 POP PUSH3 0x8D8 PUSH1 0xE0 DUP14 ADD PUSH3 0x81D JUMP JUMPDEST SWAP4 POP PUSH3 0x8E9 PUSH2 0x100 DUP14 ADD PUSH3 0x800 JUMP JUMPDEST SWAP3 POP PUSH2 0x120 DUP13 ADD CALLDATALOAD SWAP2 POP PUSH2 0x140 DUP13 ADD CALLDATALOAD SWAP1 POP SWAP3 SWAP6 SWAP9 SWAP12 POP SWAP3 SWAP6 SWAP9 SWAP12 SWAP1 SWAP4 SWAP7 SWAP10 POP JUMP JUMPDEST PUSH1 0x0 PUSH1 0x20 DUP3 DUP5 SUB SLT ISZERO PUSH3 0x91E JUMPI PUSH1 0x0 DUP1 REVERT JUMPDEST DUP2 MLOAD DUP1 ISZERO ISZERO DUP2 EQ PUSH3 0x84E JUMPI PUSH1 0x0 DUP1 REVERT JUMPDEST PUSH1 0x0 PUSH1 0x20 DUP3 DUP5 SUB SLT ISZERO PUSH3 0x942 JUMPI PUSH1 0x0 DUP1 REVERT JUMPDEST POP MLOAD SWAP2 SWAP1 POP JUMP JUMPDEST DUP1 MLOAD PUSH1 0x1 PUSH1 0x1 PUSH1 0xA0 SHL SUB AND DUP3 MSTORE PUSH1 0x20 DUP2 ADD MLOAD PUSH3 0x971 PUSH1 0x20 DUP5 ADD DUP3 PUSH1 0x1 PUSH1 0x1 PUSH1 0xA0 SHL SUB AND SWAP1 MSTORE JUMP JUMPDEST POP PUSH1 0x40 DUP2 ADD MLOAD PUSH3 0x987 PUSH1 0x40 DUP5 ADD DUP3 PUSH1 0xFF AND SWAP1 MSTORE JUMP JUMPDEST POP PUSH1 0x60 DUP2 ADD MLOAD PUSH3 0x99D PUSH1 0x60 DUP5 ADD DUP3 PUSH1 0xFF AND SWAP1 MSTORE JUMP JUMPDEST POP PUSH1 0x80 DUP2 ADD MLOAD PUSH3 0x9B2 PUSH1 0x80 DUP5 ADD DUP3 ISZERO ISZERO SWAP1 MSTORE JUMP JUMPDEST POP PUSH1 0xA0 DUP2 ADD MLOAD PUSH1 0xA0 DUP4 ADD MSTORE PUSH1 0xC0 DUP2 ADD MLOAD PUSH1 0xC0 DUP4 ADD MSTORE PUSH1 0xE0 DUP2 ADD MLOAD PUSH3 0x9DD PUSH1 0xE0 DUP5 ADD DUP3 PUSH2 0xFFFF AND SWAP1 MSTORE JUMP JUMPDEST POP PUSH2 0x100 DUP2 DUP2 ADD MLOAD PUSH2 0xFFFF SWAP1 DUP2 AND SWAP2 DUP5 ADD SWAP2 SWAP1 SWAP2 MSTORE PUSH2 0x120 DUP1 DUP4 ADD MLOAD SWAP1 DUP5 ADD MSTORE PUSH2 0x140 DUP1 DUP4 ADD MLOAD SWAP1 SWAP2 AND SWAP1 DUP4 ADD MSTORE PUSH2 0x160 DUP1 DUP3 ADD MLOAD PUSH1 0x1 PUSH1 0x1 PUSH1 0xA0 SHL SUB AND SWAP1 DUP4 ADD MSTORE PUSH2 0x180 DUP1 DUP3 ADD MLOAD SWAP1 DUP4 ADD MSTORE PUSH2 0x1A0 SWAP1 DUP2 ADD MLOAD SWAP2 ADD MSTORE JUMP JUMPDEST PUSH1 0x1 PUSH1 0x1 PUSH1 0xA0 SHL SUB DUP5 DUP2 AND DUP3 MSTORE DUP4 AND PUSH1 0x20 DUP3 ADD MSTORE PUSH2 0x200 DUP2 ADD PUSH3 0xA5E PUSH1 0x40 DUP4 ADD DUP5 PUSH3 0x949 JUMP JUMPDEST SWAP5 SWAP4 POP POP POP POP JUMP JUMPDEST PUSH1 0x1 PUSH1 0x1 PUSH1 0xA0 SHL SUB DUP4 AND DUP2 MSTORE PUSH2 0x1E0 DUP2 ADD PUSH3 0x84E PUSH1 0x20 DUP4 ADD DUP5 PUSH3 0x949 JUMP JUMPDEST PUSH1 0x20 DUP1 DUP3 MSTORE DUP3 MLOAD DUP3 DUP3 ADD DUP2 SWAP1 MSTORE PUSH1 0x0 SWAP2 SWAP1 DUP5 DUP3 ADD SWAP1 PUSH1 0x40 DUP6 ADD SWAP1 DUP5 JUMPDEST DUP2 DUP2 LT ISZERO PUSH3 0xAC9 JUMPI DUP4 MLOAD PUSH1 0x1 PUSH1 0x1 PUSH1 0xA0 SHL SUB AND DUP4 MSTORE SWAP3 DUP5 ADD SWAP3 SWAP2 DUP5 ADD SWAP2 PUSH1 0x1 ADD PUSH3 0xAA2 JUMP JUMPDEST POP SWAP1 SWAP7 SWAP6 POP POP POP POP POP POP JUMP INVALID PUSH1 0x80 PUSH1 0x40 MSTORE CALLVALUE DUP1 ISZERO PUSH3 0x11 JUMPI PUSH1 0x0 DUP1 REVERT JUMPDEST POP PUSH1 0x40 MLOAD PUSH3 0x30C2 CODESIZE SUB DUP1 PUSH3 0x30C2 DUP4 CODECOPY DUP2 ADD PUSH1 0x40 DUP2 SWAP1 MSTORE PUSH3 0x34 SWAP2 PUSH3 0x682 JUMP JUMPDEST PUSH3 0x3F CALLER PUSH3 0x3F2 JUMP JUMPDEST PUSH1 0x3 DUP1 SLOAD PUSH1 0x1 PUSH1 0x1 PUSH1 0xA0 SHL SUB NOT SWAP1 DUP2 AND PUSH1 0x1 PUSH1 0x1 PUSH1 0xA0 SHL SUB DUP7 DUP2 AND SWAP2 SWAP1 SWAP2 OR SWAP1 SWAP3 SSTORE PUSH1 0x4 DUP1 SLOAD DUP3 AND DUP6 DUP5 AND OR SWAP1 SSTORE DUP3 MLOAD PUSH1 0x9 DUP1 SLOAD SWAP1 SWAP3 AND SWAP1 DUP4 AND OR SWAP1 SSTORE PUSH1 0x20 DUP3 ADD MLOAD PUSH1 0xA DUP1 SLOAD PUSH1 0x40 DUP6 ADD MLOAD PUSH1 0x60 DUP7 ADD MLOAD PUSH1 0x80 DUP8 ADD MLOAD SWAP5 DUP7 AND PUSH1 0x1 PUSH1 0x1 PUSH1 0xA8 SHL SUB NOT SWAP1 SWAP4 AND SWAP3 SWAP1 SWAP3 OR PUSH1 0x1 PUSH1 0xA0 SHL PUSH1 0xFF SWAP3 DUP4 AND MUL OR PUSH2 0xFFFF PUSH1 0xA8 SHL NOT AND PUSH1 0x1 PUSH1 0xA8 SHL SWAP2 SWAP1 SWAP3 AND MUL PUSH1 0xFF PUSH1 0xB0 SHL NOT AND OR PUSH1 0x1 PUSH1 0xB0 SHL SWAP3 ISZERO ISZERO SWAP3 SWAP1 SWAP3 MUL SWAP2 SWAP1 SWAP2 OR SWAP1 SSTORE PUSH1 0xA0 DUP3 ADD MLOAD PUSH1 0xB SSTORE PUSH1 0xC0 DUP3 ADD MLOAD PUSH1 0xC SSTORE PUSH1 0xE0 DUP3 ADD MLOAD PUSH1 0xD DUP1 SLOAD PUSH2 0x100 DUP6 ADD MLOAD PUSH2 0xFFFF SWAP4 DUP5 AND PUSH4 0xFFFFFFFF NOT SWAP1 SWAP3 AND SWAP2 SWAP1 SWAP2 OR PUSH3 0x10000 SWAP2 DUP5 AND DUP3 MUL OR SWAP1 SWAP2 SSTORE PUSH2 0x120 DUP5 ADD MLOAD PUSH1 0xE SSTORE PUSH2 0x140 DUP5 ADD MLOAD PUSH1 0xF DUP1 SLOAD PUSH2 0x160 DUP8 ADD MLOAD SWAP3 SWAP1 SWAP5 AND PUSH1 0x1 PUSH1 0x1 PUSH1 0xB0 SHL SUB NOT SWAP1 SWAP5 AND SWAP4 SWAP1 SWAP4 OR SWAP4 AND MUL SWAP2 SWAP1 SWAP2 OR SWAP1 SSTORE PUSH2 0x180 DUP2 ADD MLOAD PUSH1 0x10 SSTORE PUSH2 0x1A0 DUP2 ADD MLOAD PUSH1 0x11 SSTORE PUSH3 0x170 PUSH3 0x442 JUMP JUMPDEST PUSH1 0x12 DUP1 SLOAD PUSH1 0xFF PUSH1 0xA0 SHL NOT AND PUSH1 0x1 PUSH1 0xA0 SHL DUP4 PUSH1 0x4 DUP2 GT ISZERO PUSH3 0x195 JUMPI PUSH3 0x195 PUSH3 0xA7F JUMP JUMPDEST MUL OR SWAP1 SSTORE POP PUSH1 0x9 SLOAD PUSH1 0x1 DUP1 SLOAD PUSH1 0x1 PUSH1 0x1 PUSH1 0xA0 SHL SUB NOT AND PUSH1 0x1 PUSH1 0x1 PUSH1 0xA0 SHL SUB SWAP1 SWAP3 AND SWAP2 DUP3 OR SWAP1 SSTORE PUSH1 0x40 DUP1 MLOAD PUSH4 0x313CE567 PUSH1 0xE0 SHL DUP2 MSTORE SWAP1 MLOAD PUSH4 0x313CE567 SWAP2 PUSH1 0x4 DUP1 DUP3 ADD SWAP3 PUSH1 0x20 SWAP3 SWAP1 SWAP2 SWAP1 DUP3 SWAP1 SUB ADD DUP2 DUP7 DUP1 EXTCODESIZE ISZERO DUP1 ISZERO PUSH3 0x1F2 JUMPI PUSH1 0x0 DUP1 REVERT JUMPDEST POP GAS STATICCALL ISZERO DUP1 ISZERO PUSH3 0x207 JUMPI RETURNDATASIZE PUSH1 0x0 DUP1 RETURNDATACOPY RETURNDATASIZE PUSH1 0x0 REVERT JUMPDEST POP POP POP POP PUSH1 0x40 MLOAD RETURNDATASIZE PUSH1 0x1F NOT PUSH1 0x1F DUP3 ADD AND DUP3 ADD DUP1 PUSH1 0x40 MSTORE POP DUP2 ADD SWAP1 PUSH3 0x22D SWAP2 SWAP1 PUSH3 0x7CB JUMP JUMPDEST PUSH1 0xA DUP1 SLOAD PUSH1 0xFF SWAP3 SWAP1 SWAP3 AND PUSH1 0x1 PUSH1 0xA0 SHL MUL PUSH1 0xFF PUSH1 0xA0 SHL NOT DUP4 AND DUP2 OR SWAP1 SWAP2 SSTORE PUSH1 0x9 SLOAD PUSH1 0x1 PUSH1 0x1 PUSH1 0xA0 SHL SUB SWAP1 DUP2 AND SWAP2 DUP2 AND SWAP3 AND SWAP2 SWAP1 SWAP2 OR EQ ISZERO PUSH3 0x282 JUMPI PUSH1 0xA DUP1 SLOAD PUSH2 0xFFFF PUSH1 0xA8 SHL NOT AND PUSH1 0x89 PUSH1 0xA9 SHL OR SWAP1 SSTORE PUSH3 0x354 JUMP JUMPDEST PUSH1 0xA DUP1 SLOAD PUSH1 0xFF PUSH1 0xB0 SHL NOT DUP2 AND SWAP1 SWAP2 SSTORE PUSH1 0x40 DUP1 MLOAD PUSH4 0x313CE567 PUSH1 0xE0 SHL DUP2 MSTORE SWAP1 MLOAD PUSH1 0x1 PUSH1 0x1 PUSH1 0xA0 SHL SUB SWAP1 SWAP3 AND SWAP2 PUSH4 0x313CE567 SWAP2 PUSH1 0x4 DUP1 DUP3 ADD SWAP3 PUSH1 0x20 SWAP3 SWAP1 SWAP2 SWAP1 DUP3 SWAP1 SUB ADD DUP2 DUP7 DUP1 EXTCODESIZE ISZERO DUP1 ISZERO PUSH3 0x2D4 JUMPI PUSH1 0x0 DUP1 REVERT JUMPDEST POP GAS STATICCALL ISZERO DUP1 ISZERO PUSH3 0x2E9 JUMPI RETURNDATASIZE PUSH1 0x0 DUP1 RETURNDATACOPY RETURNDATASIZE PUSH1 0x0 REVERT JUMPDEST POP POP POP POP PUSH1 0x40 MLOAD RETURNDATASIZE PUSH1 0x1F NOT PUSH1 0x1F DUP3 ADD AND DUP3 ADD DUP1 PUSH1 0x40 MSTORE POP DUP2 ADD SWAP1 PUSH3 0x30F SWAP2 SWAP1 PUSH3 0x7CB JUMP JUMPDEST PUSH1 0xA DUP1 SLOAD PUSH1 0xFF SWAP3 SWAP1 SWAP3 AND PUSH1 0x1 PUSH1 0xA8 SHL MUL PUSH1 0xFF PUSH1 0xA8 SHL NOT DUP4 AND DUP2 OR SWAP1 SWAP2 SSTORE PUSH1 0x2 DUP1 SLOAD PUSH1 0x1 PUSH1 0x1 PUSH1 0xA0 SHL SUB NOT AND PUSH1 0x1 PUSH1 0x1 PUSH1 0xA0 SHL SUB SWAP3 DUP4 AND SWAP3 SWAP1 SWAP4 AND SWAP2 SWAP1 SWAP2 OR SWAP2 SWAP1 SWAP2 OR SWAP1 SSTORE JUMPDEST PUSH3 0x35E PUSH3 0x46C JUMP JUMPDEST PUSH1 0x5 DUP2 SWAP1 SSTORE PUSH1 0x8 SSTORE PUSH1 0x12 DUP1 SLOAD PUSH1 0x1 PUSH1 0x1 PUSH1 0xA0 SHL SUB NOT AND ADDRESS OR SWAP1 SSTORE PUSH3 0x383 DUP3 PUSH3 0x487 JUMP JUMPDEST PUSH32 0x95AD27B63A983F975981F9457D76AE9619C05F68E0A020ACE848990FD814EE17 PUSH3 0x3B7 PUSH1 0x0 SLOAD PUSH1 0x1 PUSH1 0x1 PUSH1 0xA0 SHL SUB AND SWAP1 JUMP JUMPDEST PUSH1 0x3 SLOAD PUSH1 0x4 SLOAD PUSH1 0x5 SLOAD PUSH1 0x40 MLOAD PUSH3 0x3E1 SWAP5 SWAP4 PUSH1 0x1 PUSH1 0x1 PUSH1 0xA0 SHL SUB SWAP1 DUP2 AND SWAP4 AND SWAP2 SWAP1 PUSH1 0x9 SWAP1 PUSH3 0x7E9 JUMP JUMPDEST PUSH1 0x40 MLOAD DUP1 SWAP2 SUB SWAP1 LOG1 POP POP POP PUSH3 0xA95 JUMP JUMPDEST PUSH1 0x0 DUP1 SLOAD PUSH1 0x1 PUSH1 0x1 PUSH1 0xA0 SHL SUB DUP4 DUP2 AND PUSH1 0x1 PUSH1 0x1 PUSH1 0xA0 SHL SUB NOT DUP4 AND DUP2 OR DUP5 SSTORE PUSH1 0x40 MLOAD SWAP2 SWAP1 SWAP3 AND SWAP3 DUP4 SWAP2 PUSH32 0x8BE0079C531659141344CD1FD0A4F28419497F9722A3DAAFE3B4186F6B6457E0 SWAP2 SWAP1 LOG3 POP POP JUMP JUMPDEST PUSH1 0x10 SLOAD PUSH1 0x0 SWAP1 TIMESTAMP LT ISZERO PUSH3 0x456 JUMPI POP PUSH1 0x1 SWAP1 JUMP JUMPDEST PUSH1 0x11 SLOAD TIMESTAMP GT PUSH3 0x466 JUMPI POP PUSH1 0x2 SWAP1 JUMP JUMPDEST POP PUSH1 0x3 SWAP1 JUMP JUMPDEST PUSH1 0xB SLOAD PUSH1 0x0 SWAP1 DUP2 SWAP1 PUSH3 0x480 SWAP1 DUP3 PUSH3 0x50A JUMP JUMPDEST SWAP4 SWAP3 POP POP POP JUMP JUMPDEST PUSH3 0x491 PUSH3 0x56B JUMP JUMPDEST PUSH1 0x1 PUSH1 0x1 PUSH1 0xA0 SHL SUB DUP2 AND PUSH3 0x4FC JUMPI PUSH1 0x40 MLOAD PUSH3 0x461BCD PUSH1 0xE5 SHL DUP2 MSTORE PUSH1 0x20 PUSH1 0x4 DUP3 ADD MSTORE PUSH1 0x26 PUSH1 0x24 DUP3 ADD MSTORE PUSH32 0x4F776E61626C653A206E6577206F776E657220697320746865207A65726F2061 PUSH1 0x44 DUP3 ADD MSTORE PUSH6 0x646472657373 PUSH1 0xD0 SHL PUSH1 0x64 DUP3 ADD MSTORE PUSH1 0x84 ADD JUMPDEST PUSH1 0x40 MLOAD DUP1 SWAP2 SUB SWAP1 REVERT JUMPDEST PUSH3 0x507 DUP2 PUSH3 0x3F2 JUMP JUMPDEST POP JUMP JUMPDEST PUSH1 0x0 DUP1 DUP4 ISZERO PUSH3 0x535 JUMPI DUP4 PUSH3 0x51F PUSH3 0x5C9 JUMP JUMPDEST PUSH3 0x52B SWAP1 DUP7 PUSH3 0xA47 JUMP JUMPDEST SWAP2 POP SWAP2 POP PUSH3 0x564 JUMP JUMPDEST DUP3 ISZERO PUSH3 0x55D JUMPI PUSH3 0x546 PUSH3 0x5C9 JUMP JUMPDEST PUSH3 0x552 SWAP1 DUP5 PUSH3 0x91A JUMP JUMPDEST DUP4 SWAP2 POP SWAP2 POP PUSH3 0x564 JUMP JUMPDEST POP PUSH1 0x0 SWAP1 POP DUP1 JUMPDEST SWAP3 POP SWAP3 SWAP1 POP JUMP JUMPDEST PUSH1 0x0 SLOAD PUSH1 0x1 PUSH1 0x1 PUSH1 0xA0 SHL SUB AND CALLER EQ PUSH3 0x5C7 JUMPI PUSH1 0x40 MLOAD PUSH3 0x461BCD PUSH1 0xE5 SHL DUP2 MSTORE PUSH1 0x20 PUSH1 0x4 DUP3 ADD DUP2 SWAP1 MSTORE PUSH1 0x24 DUP3 ADD MSTORE PUSH32 0x4F776E61626C653A2063616C6C6572206973206E6F7420746865206F776E6572 PUSH1 0x44 DUP3 ADD MSTORE PUSH1 0x64 ADD PUSH3 0x4F3 JUMP JUMPDEST JUMP JUMPDEST PUSH1 0xA DUP1 SLOAD PUSH1 0x0 SWAP2 PUSH3 0x5E6 SWAP2 PUSH1 0x1 PUSH1 0xA8 SHL SWAP1 DIV PUSH1 0xFF AND SWAP1 PUSH3 0x986 JUMP JUMPDEST PUSH1 0xA DUP1 SLOAD PUSH3 0x601 SWAP2 PUSH1 0x1 PUSH1 0xA0 SHL SWAP1 SWAP2 DIV PUSH1 0xFF AND SWAP1 PUSH3 0x986 JUMP JUMPDEST PUSH1 0xC SLOAD PUSH3 0x612 SWAP1 PUSH1 0x64 SWAP1 PUSH3 0x91A JUMP JUMPDEST PUSH3 0x61E SWAP2 SWAP1 PUSH3 0xA47 JUMP JUMPDEST PUSH3 0x62A SWAP2 SWAP1 PUSH3 0x91A JUMP JUMPDEST SWAP1 POP SWAP1 JUMP JUMPDEST DUP1 MLOAD PUSH1 0x1 PUSH1 0x1 PUSH1 0xA0 SHL SUB DUP2 AND DUP2 EQ PUSH3 0x647 JUMPI PUSH1 0x0 DUP1 REVERT JUMPDEST SWAP2 SWAP1 POP JUMP JUMPDEST DUP1 MLOAD DUP1 ISZERO ISZERO DUP2 EQ PUSH3 0x647 JUMPI PUSH1 0x0 DUP1 REVERT JUMPDEST DUP1 MLOAD PUSH2 0xFFFF DUP2 AND DUP2 EQ PUSH3 0x647 JUMPI PUSH1 0x0 DUP1 REVERT JUMPDEST DUP1 MLOAD PUSH1 0xFF DUP2 AND DUP2 EQ PUSH3 0x647 JUMPI PUSH1 0x0 DUP1 REVERT JUMPDEST PUSH1 0x0 DUP1 PUSH1 0x0 DUP4 DUP6 SUB PUSH2 0x200 DUP2 SLT ISZERO PUSH3 0x69A JUMPI PUSH1 0x0 DUP1 REVERT JUMPDEST PUSH3 0x6A5 DUP6 PUSH3 0x62F JUMP JUMPDEST SWAP4 POP PUSH3 0x6B5 PUSH1 0x20 DUP7 ADD PUSH3 0x62F JUMP JUMPDEST SWAP3 POP PUSH2 0x1C0 DUP1 PUSH1 0x3F NOT DUP4 ADD SLT ISZERO PUSH3 0x6CC JUMPI PUSH1 0x0 DUP1 REVERT JUMPDEST PUSH3 0x6D6 PUSH3 0x8E2 JUMP JUMPDEST SWAP2 POP PUSH3 0x6E6 PUSH1 0x40 DUP8 ADD PUSH3 0x62F JUMP JUMPDEST DUP3 MSTORE PUSH3 0x6F6 PUSH1 0x60 DUP8 ADD PUSH3 0x62F JUMP JUMPDEST PUSH1 0x20 DUP4 ADD MSTORE PUSH3 0x709 PUSH1 0x80 DUP8 ADD PUSH3 0x670 JUMP JUMPDEST PUSH1 0x40 DUP4 ADD MSTORE PUSH3 0x71C PUSH1 0xA0 DUP8 ADD PUSH3 0x670 JUMP JUMPDEST PUSH1 0x60 DUP4 ADD MSTORE PUSH3 0x72F PUSH1 0xC0 DUP8 ADD PUSH3 0x64C JUMP JUMPDEST PUSH1 0x80 DUP4 ADD MSTORE PUSH1 0xE0 DUP7 ADD MLOAD PUSH1 0xA0 DUP4 ADD MSTORE PUSH2 0x100 DUP1 DUP8 ADD MLOAD PUSH1 0xC0 DUP5 ADD MSTORE PUSH2 0x120 PUSH3 0x75A DUP2 DUP10 ADD PUSH3 0x65D JUMP JUMPDEST PUSH1 0xE0 DUP6 ADD MSTORE PUSH2 0x140 PUSH3 0x76F DUP2 DUP11 ADD PUSH3 0x65D JUMP JUMPDEST DUP4 DUP7 ADD MSTORE PUSH2 0x160 SWAP3 POP DUP3 DUP10 ADD MLOAD DUP3 DUP7 ADD MSTORE PUSH2 0x180 SWAP2 POP PUSH3 0x792 DUP3 DUP11 ADD PUSH3 0x65D JUMP JUMPDEST SWAP1 DUP6 ADD MSTORE PUSH2 0x1A0 PUSH3 0x7A6 DUP10 DUP3 ADD PUSH3 0x62F JUMP JUMPDEST DUP4 DUP7 ADD MSTORE DUP4 DUP10 ADD MLOAD DUP3 DUP7 ADD MSTORE PUSH2 0x1E0 DUP10 ADD MLOAD DUP2 DUP7 ADD MSTORE POP POP POP POP DUP1 SWAP2 POP POP SWAP3 POP SWAP3 POP SWAP3 JUMP JUMPDEST PUSH1 0x0 PUSH1 0x20 DUP3 DUP5 SUB SLT ISZERO PUSH3 0x7DE JUMPI PUSH1 0x0 DUP1 REVERT JUMPDEST PUSH3 0x480 DUP3 PUSH3 0x670 JUMP JUMPDEST PUSH1 0x1 PUSH1 0x1 PUSH1 0xA0 SHL SUB DUP7 DUP2 AND DUP3 MSTORE DUP6 DUP2 AND PUSH1 0x20 DUP4 ADD MSTORE DUP5 DUP2 AND PUSH1 0x40 DUP4 ADD MSTORE PUSH1 0x60 DUP3 ADD DUP5 SWAP1 MSTORE DUP3 SLOAD DUP2 AND PUSH1 0x80 DUP4 ADD MSTORE PUSH2 0x240 DUP3 ADD SWAP1 PUSH1 0x1 DUP5 ADD SLOAD PUSH1 0x1 PUSH1 0x1 PUSH1 0xA0 SHL SUB DUP3 DUP3 AND AND PUSH1 0xA0 DUP6 ADD MSTORE PUSH1 0xA0 DUP2 SWAP1 SHR PUSH1 0xFF AND PUSH1 0xC0 DUP6 ADD MSTORE PUSH1 0xA8 DUP2 SWAP1 SHR PUSH1 0xFF AND PUSH1 0xE0 DUP6 ADD MSTORE PUSH3 0x862 PUSH2 0x100 DUP6 ADD PUSH1 0xFF DUP4 PUSH1 0xB0 SHR AND ISZERO ISZERO SWAP1 MSTORE JUMP JUMPDEST POP PUSH1 0x2 DUP5 ADD SLOAD PUSH2 0x120 DUP5 ADD MSTORE PUSH1 0x3 DUP5 ADD SLOAD PUSH2 0x140 DUP5 ADD MSTORE PUSH1 0x4 DUP5 ADD SLOAD PUSH2 0xFFFF DUP1 DUP3 AND PUSH2 0x160 DUP7 ADD MSTORE PUSH1 0x10 SWAP2 DUP3 SHR DUP2 AND PUSH2 0x180 DUP7 ADD MSTORE PUSH1 0x5 DUP7 ADD SLOAD PUSH2 0x1A0 DUP7 ADD MSTORE PUSH1 0x6 DUP7 ADD SLOAD SWAP1 DUP2 AND PUSH2 0x1C0 DUP7 ADD MSTORE SWAP1 SHR AND PUSH1 0x1 PUSH1 0x1 PUSH1 0xA0 SHL SUB AND PUSH2 0x1E0 DUP4 ADD MSTORE PUSH1 0x7 DUP4 ADD SLOAD PUSH2 0x200 DUP4 ADD MSTORE PUSH1 0x8 SWAP1 SWAP3 ADD SLOAD PUSH2 0x220 SWAP1 SWAP2 ADD MSTORE SWAP5 SWAP4 POP POP POP POP JUMP JUMPDEST PUSH1 0x40 MLOAD PUSH2 0x1C0 DUP2 ADD PUSH1 0x1 PUSH1 0x1 PUSH1 0x40 SHL SUB DUP2 GT DUP3 DUP3 LT OR ISZERO PUSH3 0x914 JUMPI PUSH4 0x4E487B71 PUSH1 0xE0 SHL PUSH1 0x0 MSTORE PUSH1 0x41 PUSH1 0x4 MSTORE PUSH1 0x24 PUSH1 0x0 REVERT JUMPDEST PUSH1 0x40 MSTORE SWAP1 JUMP JUMPDEST PUSH1 0x0 DUP3 PUSH3 0x938 JUMPI PUSH4 0x4E487B71 PUSH1 0xE0 SHL PUSH1 0x0 MSTORE PUSH1 0x12 PUSH1 0x4 MSTORE PUSH1 0x24 PUSH1 0x0 REVERT JUMPDEST POP DIV SWAP1 JUMP JUMPDEST PUSH1 0x1 DUP2 DUP2 JUMPDEST DUP1 DUP6 GT ISZERO PUSH3 0x97E JUMPI DUP2 PUSH1 0x0 NOT DIV DUP3 GT ISZERO PUSH3 0x962 JUMPI PUSH3 0x962 PUSH3 0xA69 JUMP JUMPDEST DUP1 DUP6 AND ISZERO PUSH3 0x970 JUMPI SWAP2 DUP2 MUL SWAP2 JUMPDEST SWAP4 DUP5 SHR SWAP4 SWAP1 DUP1 MUL SWAP1 PUSH3 0x942 JUMP JUMPDEST POP SWAP3 POP SWAP3 SWAP1 POP JUMP JUMPDEST PUSH1 0x0 PUSH3 0x480 PUSH1 0xFF DUP5 AND DUP4 PUSH1 0x0 DUP3 PUSH3 0x9A2 JUMPI POP PUSH1 0x1 PUSH3 0xA41 JUMP JUMPDEST DUP2 PUSH3 0x9B1 JUMPI POP PUSH1 0x0 PUSH3 0xA41 JUMP JUMPDEST DUP2 PUSH1 0x1 DUP2 EQ PUSH3 0x9CA JUMPI PUSH1 0x2 DUP2 EQ PUSH3 0x9D5 JUMPI PUSH3 0x9F5 JUMP JUMPDEST PUSH1 0x1 SWAP2 POP POP PUSH3 0xA41 JUMP JUMPDEST PUSH1 0xFF DUP5 GT ISZERO PUSH3 0x9E9 JUMPI PUSH3 0x9E9 PUSH3 0xA69 JUMP JUMPDEST POP POP PUSH1 0x1 DUP3 SHL PUSH3 0xA41 JUMP JUMPDEST POP PUSH1 0x20 DUP4 LT PUSH2 0x133 DUP4 LT AND PUSH1 0x4E DUP5 LT PUSH1 0xB DUP5 LT AND OR ISZERO PUSH3 0xA1A JUMPI POP DUP2 DUP2 EXP PUSH3 0xA41 JUMP JUMPDEST PUSH3 0xA26 DUP4 DUP4 PUSH3 0x93D JUMP JUMPDEST DUP1 PUSH1 0x0 NOT DIV DUP3 GT ISZERO PUSH3 0xA3D JUMPI PUSH3 0xA3D PUSH3 0xA69 JUMP JUMPDEST MUL SWAP1 POP JUMPDEST SWAP3 SWAP2 POP POP JUMP JUMPDEST PUSH1 0x0 DUP2 PUSH1 0x0 NOT DIV DUP4 GT DUP3 ISZERO ISZERO AND ISZERO PUSH3 0xA64 JUMPI PUSH3 0xA64 PUSH3 0xA69 JUMP JUMPDEST POP MUL SWAP1 JUMP JUMPDEST PUSH4 0x4E487B71 PUSH1 0xE0 SHL PUSH1 0x0 MSTORE PUSH1 0x11 PUSH1 0x4 MSTORE PUSH1 0x24 PUSH1 0x0 REVERT JUMPDEST PUSH4 0x4E487B71 PUSH1 0xE0 SHL PUSH1 0x0 MSTORE PUSH1 0x21 PUSH1 0x4 MSTORE PUSH1 0x24 PUSH1 0x0 REVERT JUMPDEST PUSH2 0x261D DUP1 PUSH3 0xAA5 PUSH1 0x0 CODECOPY PUSH1 0x0 RETURN INVALID PUSH1 0x80 PUSH1 0x40 MSTORE PUSH1 0x4 CALLDATASIZE LT PUSH2 0xE1 JUMPI PUSH1 0x0 CALLDATALOAD PUSH1 0xE0 SHR DUP1 PUSH4 0xA7F43779 GT PUSH2 0x7F JUMPI DUP1 PUSH4 0xD6FEBDE8 GT PUSH2 0x59 JUMPI DUP1 PUSH4 0xD6FEBDE8 EQ PUSH2 0x3D0 JUMPI DUP1 PUSH4 0xD79875EB EQ PUSH2 0x3E3 JUMPI DUP1 PUSH4 0xEA8A1AF0 EQ PUSH2 0x3F6 JUMPI DUP1 PUSH4 0xF2FDE38B EQ PUSH2 0x40B JUMPI PUSH1 0x0 DUP1 REVERT JUMPDEST DUP1 PUSH4 0xA7F43779 EQ PUSH2 0x372 JUMPI DUP1 PUSH4 0xC19D93FB EQ PUSH2 0x387 JUMPI DUP1 PUSH4 0xD0E30DB0 EQ PUSH2 0x3B2 JUMPI PUSH1 0x0 DUP1 REVERT JUMPDEST DUP1 PUSH4 0x715018A6 GT PUSH2 0xBB JUMPI DUP1 PUSH4 0x715018A6 EQ PUSH2 0x1D6 JUMPI DUP1 PUSH4 0x88E765FF EQ PUSH2 0x1ED JUMPI DUP1 PUSH4 0x89035730 EQ PUSH2 0x202 JUMPI DUP1 PUSH4 0x8DA5CB5B EQ PUSH2 0x34A JUMPI PUSH1 0x0 DUP1 REVERT JUMPDEST DUP1 PUSH4 0x3BF3E18E EQ PUSH2 0x13D JUMPI DUP1 PUSH4 0x5DAB2420 EQ PUSH2 0x16D JUMPI DUP1 PUSH4 0x66D602AE EQ PUSH2 0x1AC JUMPI PUSH1 0x0 DUP1 REVERT JUMPDEST CALLDATASIZE PUSH2 0x138 JUMPI PUSH1 0x40 DUP1 MLOAD CALLER DUP2 MSTORE PUSH1 0x20 DUP2 ADD DUP3 SWAP1 MSTORE PUSH1 0x7 DUP2 DUP4 ADD MSTORE PUSH7 0x72656365697665 PUSH1 0xC8 SHL PUSH1 0x60 DUP3 ADD MSTORE SWAP1 MLOAD PUSH32 0xD00CA3F088120B3D909C3A9E01BE91E94A2B001AED9C25FE751C3C7A72DC49BF SWAP2 DUP2 SWAP1 SUB PUSH1 0x80 ADD SWAP1 LOG1 STOP JUMPDEST PUSH1 0x0 DUP1 REVERT JUMPDEST CALLVALUE DUP1 ISZERO PUSH2 0x149 JUMPI PUSH1 0x0 DUP1 REVERT JUMPDEST POP PUSH1 0xA SLOAD PUSH1 0x1 PUSH1 0xB0 SHL SWAP1 DIV PUSH1 0xFF AND JUMPDEST PUSH1 0x40 MLOAD SWAP1 ISZERO ISZERO DUP2 MSTORE PUSH1 0x20 ADD JUMPDEST PUSH1 0x40 MLOAD DUP1 SWAP2 SUB SWAP1 RETURN JUMPDEST CALLVALUE DUP1 ISZERO PUSH2 0x179 JUMPI PUSH1 0x0 DUP1 REVERT JUMPDEST POP PUSH2 0x182 PUSH2 0x42B JUMP JUMPDEST PUSH1 0x40 DUP1 MLOAD PUSH1 0x1 PUSH1 0x1 PUSH1 0xA0 SHL SUB SWAP5 DUP6 AND DUP2 MSTORE SWAP3 DUP5 AND PUSH1 0x20 DUP5 ADD MSTORE SWAP3 AND SWAP2 DUP2 ADD SWAP2 SWAP1 SWAP2 MSTORE PUSH1 0x60 ADD PUSH2 0x164 JUMP JUMPDEST CALLVALUE DUP1 ISZERO PUSH2 0x1B8 JUMPI PUSH1 0x0 DUP1 REVERT JUMPDEST POP PUSH2 0x1C1 PUSH2 0x45F JUMP JUMPDEST PUSH1 0x40 DUP1 MLOAD SWAP3 DUP4 MSTORE PUSH1 0x20 DUP4 ADD SWAP2 SWAP1 SWAP2 MSTORE ADD PUSH2 0x164 JUMP JUMPDEST CALLVALUE DUP1 ISZERO PUSH2 0x1E2 JUMPI PUSH1 0x0 DUP1 REVERT JUMPDEST POP PUSH2 0x1EB PUSH2 0x473 JUMP JUMPDEST STOP JUMPDEST CALLVALUE DUP1 ISZERO PUSH2 0x1F9 JUMPI PUSH1 0x0 DUP1 REVERT JUMPDEST POP PUSH2 0x1C1 PUSH2 0x487 JUMP JUMPDEST CALLVALUE DUP1 ISZERO PUSH2 0x20E JUMPI PUSH1 0x0 DUP1 REVERT JUMPDEST POP PUSH2 0x33D PUSH1 0x40 DUP1 MLOAD PUSH2 0x1C0 DUP2 ADD DUP3 MSTORE PUSH1 0x0 DUP1 DUP3 MSTORE PUSH1 0x20 DUP3 ADD DUP2 SWAP1 MSTORE SWAP2 DUP2 ADD DUP3 SWAP1 MSTORE PUSH1 0x60 DUP2 ADD DUP3 SWAP1 MSTORE PUSH1 0x80 DUP2 ADD DUP3 SWAP1 MSTORE PUSH1 0xA0 DUP2 ADD DUP3 SWAP1 MSTORE PUSH1 0xC0 DUP2 ADD DUP3 SWAP1 MSTORE PUSH1 0xE0 DUP2 ADD DUP3 SWAP1 MSTORE PUSH2 0x100 DUP2 ADD DUP3 SWAP1 MSTORE PUSH2 0x120 DUP2 ADD DUP3 SWAP1 MSTORE PUSH2 0x140 DUP2 ADD DUP3 SWAP1 MSTORE PUSH2 0x160 DUP2 ADD DUP3 SWAP1 MSTORE PUSH2 0x180 DUP2 ADD DUP3 SWAP1 MSTORE PUSH2 0x1A0 DUP2 ADD SWAP2 SWAP1 SWAP2 MSTORE POP PUSH1 0x40 DUP1 MLOAD PUSH2 0x1C0 DUP2 ADD DUP3 MSTORE PUSH1 0x9 SLOAD PUSH1 0x1 PUSH1 0x1 PUSH1 0xA0 SHL SUB SWAP1 DUP2 AND DUP3 MSTORE PUSH1 0xA SLOAD DUP1 DUP3 AND PUSH1 0x20 DUP5 ADD MSTORE PUSH1 0xFF PUSH1 0x1 PUSH1 0xA0 SHL DUP3 DIV DUP2 AND SWAP5 DUP5 ADD SWAP5 SWAP1 SWAP5 MSTORE PUSH1 0x1 PUSH1 0xA8 SHL DUP2 DIV DUP5 AND PUSH1 0x60 DUP5 ADD MSTORE PUSH1 0x1 PUSH1 0xB0 SHL SWAP1 DIV SWAP1 SWAP3 AND ISZERO ISZERO PUSH1 0x80 DUP3 ADD MSTORE PUSH1 0xB SLOAD PUSH1 0xA0 DUP3 ADD MSTORE PUSH1 0xC SLOAD PUSH1 0xC0 DUP3 ADD MSTORE PUSH1 0xD SLOAD PUSH2 0xFFFF DUP1 DUP3 AND PUSH1 0xE0 DUP5 ADD MSTORE PUSH3 0x10000 SWAP2 DUP3 SWAP1 DIV DUP2 AND PUSH2 0x100 DUP5 ADD MSTORE PUSH1 0xE SLOAD PUSH2 0x120 DUP5 ADD MSTORE PUSH1 0xF SLOAD SWAP1 DUP2 AND PUSH2 0x140 DUP5 ADD MSTORE DIV SWAP1 SWAP2 AND PUSH2 0x160 DUP3 ADD MSTORE PUSH1 0x10 SLOAD PUSH2 0x180 DUP3 ADD MSTORE PUSH1 0x11 SLOAD PUSH2 0x1A0 DUP3 ADD MSTORE SWAP1 JUMP JUMPDEST PUSH1 0x40 MLOAD PUSH2 0x164 SWAP2 SWAP1 PUSH2 0x22D6 JUMP JUMPDEST CALLVALUE DUP1 ISZERO PUSH2 0x356 JUMPI PUSH1 0x0 DUP1 REVERT JUMPDEST POP PUSH1 0x0 SLOAD PUSH1 0x40 MLOAD PUSH1 0x1 PUSH1 0x1 PUSH1 0xA0 SHL SUB SWAP1 SWAP2 AND DUP2 MSTORE PUSH1 0x20 ADD PUSH2 0x164 JUMP JUMPDEST CALLVALUE DUP1 ISZERO PUSH2 0x37E JUMPI PUSH1 0x0 DUP1 REVERT JUMPDEST POP PUSH2 0x1EB PUSH2 0x493 JUMP JUMPDEST CALLVALUE DUP1 ISZERO PUSH2 0x393 JUMPI PUSH1 0x0 DUP1 REVERT JUMPDEST POP PUSH2 0x39C PUSH2 0x597 JUMP JUMPDEST PUSH1 0x40 MLOAD PUSH2 0x164 SWAP11 SWAP10 SWAP9 SWAP8 SWAP7 SWAP6 SWAP5 SWAP4 SWAP3 SWAP2 SWAP1 PUSH2 0x23C9 JUMP JUMPDEST CALLVALUE DUP1 ISZERO PUSH2 0x3BE JUMPI PUSH1 0x0 DUP1 REVERT JUMPDEST POP PUSH1 0x5 SLOAD PUSH1 0x40 MLOAD SWAP1 DUP2 MSTORE PUSH1 0x20 ADD PUSH2 0x164 JUMP JUMPDEST PUSH2 0x158 PUSH2 0x3DE CALLDATASIZE PUSH1 0x4 PUSH2 0x22B4 JUMP JUMPDEST PUSH2 0x729 JUMP JUMPDEST PUSH2 0x158 PUSH2 0x3F1 CALLDATASIZE PUSH1 0x4 PUSH2 0x22B4 JUMP JUMPDEST PUSH2 0x104D JUMP JUMPDEST CALLVALUE DUP1 ISZERO PUSH2 0x402 JUMPI PUSH1 0x0 DUP1 REVERT JUMPDEST POP PUSH2 0x1EB PUSH2 0x1776 JUMP JUMPDEST CALLVALUE DUP1 ISZERO PUSH2 0x417 JUMPI PUSH1 0x0 DUP1 REVERT JUMPDEST POP PUSH2 0x1EB PUSH2 0x426 CALLDATASIZE PUSH1 0x4 PUSH2 0x2250 JUMP JUMPDEST PUSH2 0x180B JUMP JUMPDEST PUSH1 0x0 DUP1 PUSH1 0x0 PUSH2 0x442 PUSH1 0x0 SLOAD PUSH1 0x1 PUSH1 0x1 PUSH1 0xA0 SHL SUB AND SWAP1 JUMP JUMPDEST PUSH1 0x3 SLOAD PUSH1 0x4 SLOAD SWAP2 SWAP6 PUSH1 0x1 PUSH1 0x1 PUSH1 0xA0 SHL SUB SWAP2 DUP3 AND SWAP6 POP SWAP2 AND SWAP3 POP SWAP1 POP JUMP JUMPDEST PUSH1 0x0 DUP1 PUSH2 0x46B CALLER PUSH2 0x1884 JUMP JUMPDEST SWAP2 POP SWAP2 POP SWAP1 SWAP2 JUMP JUMPDEST PUSH2 0x47B PUSH2 0x1942 JUMP JUMPDEST PUSH2 0x485 PUSH1 0x0 PUSH2 0x199C JUMP JUMPDEST JUMP JUMPDEST PUSH1 0x0 DUP1 PUSH2 0x46B CALLER PUSH2 0x19EC JUMP JUMPDEST PUSH2 0x49B PUSH2 0x1942 JUMP JUMPDEST PUSH2 0x4A3 PUSH2 0x1A56 JUMP JUMPDEST PUSH2 0x4AB PUSH2 0x1ABD JUMP JUMPDEST PUSH1 0xF SLOAD PUSH2 0x4C6 SWAP1 PUSH3 0x10000 SWAP1 DIV PUSH1 0x1 PUSH1 0x1 PUSH1 0xA0 SHL SUB AND PUSH2 0x1B96 JUMP JUMPDEST PUSH2 0x517 JUMPI PUSH1 0x40 MLOAD PUSH3 0x461BCD PUSH1 0xE5 SHL DUP2 MSTORE PUSH1 0x20 PUSH1 0x4 DUP3 ADD MSTORE PUSH1 0x18 PUSH1 0x24 DUP3 ADD MSTORE PUSH32 0x526566756E642062757920746F6B656E206661696C7572650000000000000000 PUSH1 0x44 DUP3 ADD MSTORE PUSH1 0x64 ADD JUMPDEST PUSH1 0x40 MLOAD DUP1 SWAP2 SUB SWAP1 REVERT JUMPDEST PUSH1 0xF SLOAD PUSH2 0x532 SWAP1 PUSH3 0x10000 SWAP1 DIV PUSH1 0x1 PUSH1 0x1 PUSH1 0xA0 SHL SUB AND PUSH2 0x1DB7 JUMP JUMPDEST PUSH2 0x57A JUMPI PUSH1 0x40 MLOAD PUSH3 0x461BCD PUSH1 0xE5 SHL DUP2 MSTORE PUSH1 0x20 PUSH1 0x4 DUP3 ADD MSTORE PUSH1 0x19 PUSH1 0x24 DUP3 ADD MSTORE PUSH25 0x526566756E642073656C6C20746F6B656E206661696C757265 PUSH1 0x38 SHL PUSH1 0x44 DUP3 ADD MSTORE PUSH1 0x64 ADD PUSH2 0x50E JUMP JUMPDEST PUSH1 0x12 DUP1 SLOAD PUSH1 0x3 SWAP2 SWAP1 PUSH1 0xFF PUSH1 0xA0 SHL NOT AND PUSH1 0x1 PUSH1 0xA0 SHL DUP4 JUMPDEST MUL OR SWAP1 SSTORE POP JUMP JUMPDEST PUSH1 0x12 SLOAD PUSH1 0xA SLOAD PUSH1 0x0 SWAP2 DUP3 SWAP2 DUP3 SWAP2 DUP3 SWAP2 DUP3 SWAP2 DUP3 SWAP2 DUP3 SWAP2 DUP3 SWAP2 DUP3 SWAP2 DUP3 SWAP2 PUSH1 0x1 PUSH1 0x1 PUSH1 0xA0 SHL SUB SWAP1 SWAP2 AND BALANCE SWAP1 PUSH1 0x1 PUSH1 0xB0 SHL SWAP1 DIV PUSH1 0xFF AND PUSH2 0x64F JUMPI PUSH1 0x2 SLOAD PUSH1 0x12 SLOAD PUSH1 0x40 MLOAD PUSH4 0x70A08231 PUSH1 0xE0 SHL DUP2 MSTORE PUSH1 0x1 PUSH1 0x1 PUSH1 0xA0 SHL SUB SWAP2 DUP3 AND PUSH1 0x4 DUP3 ADD MSTORE SWAP2 AND SWAP1 PUSH4 0x70A08231 SWAP1 PUSH1 0x24 ADD PUSH1 0x20 PUSH1 0x40 MLOAD DUP1 DUP4 SUB DUP2 DUP7 DUP1 EXTCODESIZE ISZERO DUP1 ISZERO PUSH2 0x614 JUMPI PUSH1 0x0 DUP1 REVERT JUMPDEST POP GAS STATICCALL ISZERO DUP1 ISZERO PUSH2 0x628 JUMPI RETURNDATASIZE PUSH1 0x0 DUP1 RETURNDATACOPY RETURNDATASIZE PUSH1 0x0 REVERT JUMPDEST POP POP POP POP PUSH1 0x40 MLOAD RETURNDATASIZE PUSH1 0x1F NOT PUSH1 0x1F DUP3 ADD AND DUP3 ADD DUP1 PUSH1 0x40 MSTORE POP DUP2 ADD SWAP1 PUSH2 0x64C SWAP2 SWAP1 PUSH2 0x229B JUMP JUMPDEST SWAP1 POP JUMPDEST PUSH1 0xB SLOAD PUSH1 0x6 SLOAD PUSH1 0x7 SLOAD PUSH1 0x5 SLOAD PUSH1 0x8 SLOAD CALLER PUSH1 0x0 SWAP1 DUP2 MSTORE PUSH1 0x14 PUSH1 0x20 MSTORE PUSH1 0x40 SWAP1 DUP2 SWAP1 KECCAK256 DUP1 SLOAD PUSH1 0x1 SWAP2 DUP3 ADD SLOAD SWAP2 SLOAD PUSH1 0x12 SLOAD SWAP4 MLOAD PUSH4 0x70A08231 PUSH1 0xE0 SHL DUP2 MSTORE PUSH1 0x1 PUSH1 0x1 PUSH1 0xA0 SHL SUB SWAP5 DUP6 AND PUSH1 0x4 DUP3 ADD MSTORE SWAP2 SWAP4 DUP11 SWAP3 SWAP2 AND SWAP1 PUSH4 0x70A08231 SWAP1 PUSH1 0x24 ADD PUSH1 0x20 PUSH1 0x40 MLOAD DUP1 DUP4 SUB DUP2 DUP7 DUP1 EXTCODESIZE ISZERO DUP1 ISZERO PUSH2 0x6C0 JUMPI PUSH1 0x0 DUP1 REVERT JUMPDEST POP GAS STATICCALL ISZERO DUP1 ISZERO PUSH2 0x6D4 JUMPI RETURNDATASIZE PUSH1 0x0 DUP1 RETURNDATACOPY RETURNDATASIZE PUSH1 0x0 REVERT JUMPDEST POP POP POP POP PUSH1 0x40 MLOAD RETURNDATASIZE PUSH1 0x1F NOT PUSH1 0x1F DUP3 ADD AND DUP3 ADD DUP1 PUSH1 0x40 MSTORE POP DUP2 ADD SWAP1 PUSH2 0x6F8 SWAP2 SWAP1 PUSH2 0x229B JUMP JUMPDEST PUSH1 0x12 PUSH1 0x14 SWAP1 SLOAD SWAP1 PUSH2 0x100 EXP SWAP1 DIV PUSH1 0xFF AND SWAP11 POP SWAP11 POP SWAP11 POP SWAP11 POP SWAP11 POP SWAP11 POP SWAP11 POP SWAP11 POP SWAP11 POP SWAP11 POP POP SWAP1 SWAP2 SWAP3 SWAP4 SWAP5 SWAP6 SWAP7 SWAP8 SWAP9 SWAP10 JUMP JUMPDEST PUSH1 0x0 PUSH2 0x733 PUSH2 0x1A56 JUMP JUMPDEST PUSH2 0x73B PUSH2 0x1E80 JUMP JUMPDEST DUP3 ISZERO DUP1 ISZERO SWAP1 PUSH2 0x749 JUMPI POP DUP2 ISZERO ISZERO JUMPDEST PUSH2 0x786 JUMPI PUSH1 0x40 MLOAD PUSH3 0x461BCD PUSH1 0xE5 SHL DUP2 MSTORE PUSH1 0x20 PUSH1 0x4 DUP3 ADD MSTORE PUSH1 0xE PUSH1 0x24 DUP3 ADD MSTORE PUSH14 0x416D6F756E74206973207A65726F PUSH1 0x90 SHL PUSH1 0x44 DUP3 ADD MSTORE PUSH1 0x64 ADD PUSH2 0x50E JUMP JUMPDEST PUSH2 0x790 DUP4 DUP4 PUSH2 0x1F1D JUMP JUMPDEST PUSH2 0x7D0 JUMPI PUSH1 0x40 MLOAD PUSH3 0x461BCD PUSH1 0xE5 SHL DUP2 MSTORE PUSH1 0x20 PUSH1 0x4 DUP3 ADD MSTORE PUSH1 0x11 PUSH1 0x24 DUP3 ADD MSTORE PUSH17 0xA0E4D2C6CA40D2E640DAD2E6DAC2E8C6D PUSH1 0x7B SHL PUSH1 0x44 DUP3 ADD MSTORE PUSH1 0x64 ADD PUSH2 0x50E JUMP JUMPDEST PUSH2 0x7DA CALLER DUP5 PUSH2 0x1F98 JUMP JUMPDEST PUSH2 0x81F JUMPI PUSH1 0x40 MLOAD PUSH3 0x461BCD PUSH1 0xE5 SHL DUP2 MSTORE PUSH1 0x20 PUSH1 0x4 DUP3 ADD MSTORE PUSH1 0x16 PUSH1 0x24 DUP3 ADD MSTORE PUSH22 0x416D6F756E742065786365656473206D6178696D756D PUSH1 0x50 SHL PUSH1 0x44 DUP3 ADD MSTORE PUSH1 0x64 ADD PUSH2 0x50E JUMP JUMPDEST PUSH1 0x1 SLOAD PUSH1 0x12 SLOAD PUSH1 0x40 MLOAD PUSH4 0x70A08231 PUSH1 0xE0 SHL DUP2 MSTORE PUSH1 0x1 PUSH1 0x1 PUSH1 0xA0 SHL SUB SWAP2 DUP3 AND PUSH1 0x4 DUP3 ADD MSTORE DUP5 SWAP3 SWAP2 SWAP1 SWAP2 AND SWAP1 PUSH4 0x70A08231 SWAP1 PUSH1 0x24 ADD PUSH1 0x20 PUSH1 0x40 MLOAD DUP1 DUP4 SUB DUP2 DUP7 DUP1 EXTCODESIZE ISZERO DUP1 ISZERO PUSH2 0x86A JUMPI PUSH1 0x0 DUP1 REVERT JUMPDEST POP GAS STATICCALL ISZERO DUP1 ISZERO PUSH2 0x87E JUMPI RETURNDATASIZE PUSH1 0x0 DUP1 RETURNDATACOPY RETURNDATASIZE PUSH1 0x0 REVERT JUMPDEST POP POP POP POP PUSH1 0x40 MLOAD RETURNDATASIZE PUSH1 0x1F NOT PUSH1 0x1F DUP3 ADD AND DUP3 ADD DUP1 PUSH1 0x40 MSTORE POP DUP2 ADD SWAP1 PUSH2 0x8A2 SWAP2 SWAP1 PUSH2 0x229B JUMP JUMPDEST LT ISZERO PUSH2 0x8FB JUMPI PUSH1 0x40 MLOAD PUSH3 0x461BCD PUSH1 0xE5 SHL DUP2 MSTORE PUSH1 0x20 PUSH1 0x4 DUP3 ADD MSTORE PUSH1 0x22 PUSH1 0x24 DUP3 ADD MSTORE PUSH32 0x53656C6C20746F6B656E2062616C616E636520697320696E7375666669636965 PUSH1 0x44 DUP3 ADD MSTORE PUSH2 0x1B9D PUSH1 0xF2 SHL PUSH1 0x64 DUP3 ADD MSTORE PUSH1 0x84 ADD PUSH2 0x50E JUMP JUMPDEST PUSH1 0x0 PUSH2 0x906 DUP5 PUSH2 0x1FC2 JUMP JUMPDEST PUSH1 0xA SLOAD SWAP1 SWAP2 POP PUSH1 0x1 PUSH1 0xB0 SHL SWAP1 DIV PUSH1 0xFF AND ISZERO PUSH2 0xB05 JUMPI DUP4 CALLVALUE EQ PUSH2 0x963 JUMPI PUSH1 0x40 MLOAD PUSH3 0x461BCD PUSH1 0xE5 SHL DUP2 MSTORE PUSH1 0x20 PUSH1 0x4 DUP3 ADD MSTORE PUSH1 0x16 PUSH1 0x24 DUP3 ADD MSTORE PUSH22 0x1B5CD9CB9D985B1D59481A5CC81B9BDD081D985B1A59 PUSH1 0x52 SHL PUSH1 0x44 DUP3 ADD MSTORE PUSH1 0x64 ADD PUSH2 0x50E JUMP JUMPDEST CALLER BALANCE DUP5 GT ISZERO PUSH2 0x9B4 JUMPI PUSH1 0x40 MLOAD PUSH3 0x461BCD PUSH1 0xE5 SHL DUP2 MSTORE PUSH1 0x20 PUSH1 0x4 DUP3 ADD MSTORE PUSH1 0x1C PUSH1 0x24 DUP3 ADD MSTORE PUSH32 0x596F75722062616C616E636520697320696E73756666696369656E7400000000 PUSH1 0x44 DUP3 ADD MSTORE PUSH1 0x64 ADD PUSH2 0x50E JUMP JUMPDEST PUSH1 0x12 SLOAD PUSH1 0x40 MLOAD PUSH1 0x0 SWAP2 PUSH1 0x1 PUSH1 0x1 PUSH1 0xA0 SHL SUB AND SWAP1 DUP7 SWAP1 DUP4 DUP2 DUP2 DUP2 DUP6 DUP8 GAS CALL SWAP3 POP POP POP RETURNDATASIZE DUP1 PUSH1 0x0 DUP2 EQ PUSH2 0xA01 JUMPI PUSH1 0x40 MLOAD SWAP2 POP PUSH1 0x1F NOT PUSH1 0x3F RETURNDATASIZE ADD AND DUP3 ADD PUSH1 0x40 MSTORE RETURNDATASIZE DUP3 MSTORE RETURNDATASIZE PUSH1 0x0 PUSH1 0x20 DUP5 ADD RETURNDATACOPY PUSH2 0xA06 JUMP JUMPDEST PUSH1 0x60 SWAP2 POP JUMPDEST POP POP SWAP1 POP DUP1 PUSH2 0xA57 JUMPI PUSH1 0x40 MLOAD PUSH3 0x461BCD PUSH1 0xE5 SHL DUP2 MSTORE PUSH1 0x20 PUSH1 0x4 DUP3 ADD MSTORE PUSH1 0x19 PUSH1 0x24 DUP3 ADD MSTORE PUSH32 0x5472616E7366657220636F6E7472616374206661696C75726500000000000000 PUSH1 0x44 DUP3 ADD MSTORE PUSH1 0x64 ADD PUSH2 0x50E JUMP JUMPDEST PUSH1 0xF SLOAD PUSH3 0x10000 SWAP1 DIV PUSH1 0x1 PUSH1 0x1 PUSH1 0xA0 SHL SUB AND PUSH2 0xA73 DUP4 DUP8 PUSH2 0x2581 JUMP JUMPDEST PUSH1 0x40 MLOAD PUSH1 0x0 DUP2 DUP2 DUP2 DUP6 DUP8 GAS CALL SWAP3 POP POP POP RETURNDATASIZE DUP1 PUSH1 0x0 DUP2 EQ PUSH2 0xAAF JUMPI PUSH1 0x40 MLOAD SWAP2 POP PUSH1 0x1F NOT PUSH1 0x3F RETURNDATASIZE ADD AND DUP3 ADD PUSH1 0x40 MSTORE RETURNDATASIZE DUP3 MSTORE RETURNDATASIZE PUSH1 0x0 PUSH1 0x20 DUP5 ADD RETURNDATACOPY PUSH2 0xAB4 JUMP JUMPDEST PUSH1 0x60 SWAP2 POP JUMPDEST POP POP DUP1 SWAP2 POP POP DUP1 PUSH2 0xAFF JUMPI PUSH1 0x40 MLOAD PUSH3 0x461BCD PUSH1 0xE5 SHL DUP2 MSTORE PUSH1 0x20 PUSH1 0x4 DUP3 ADD MSTORE PUSH1 0x15 PUSH1 0x24 DUP3 ADD MSTORE PUSH21 0x5472616E73666572207465616D206661696C757265 PUSH1 0x58 SHL PUSH1 0x44 DUP3 ADD MSTORE PUSH1 0x64 ADD PUSH2 0x50E JUMP JUMPDEST POP PUSH2 0xE92 JUMP JUMPDEST PUSH1 0x2 SLOAD PUSH1 0x12 SLOAD PUSH1 0x40 MLOAD PUSH4 0x6EB1769F PUSH1 0xE1 SHL DUP2 MSTORE CALLER PUSH1 0x4 DUP3 ADD MSTORE PUSH1 0x1 PUSH1 0x1 PUSH1 0xA0 SHL SUB SWAP2 DUP3 AND PUSH1 0x24 DUP3 ADD MSTORE DUP7 SWAP3 SWAP2 SWAP1 SWAP2 AND SWAP1 PUSH4 0xDD62ED3E SWAP1 PUSH1 0x44 ADD PUSH1 0x20 PUSH1 0x40 MLOAD DUP1 DUP4 SUB DUP2 DUP7 DUP1 EXTCODESIZE ISZERO DUP1 ISZERO PUSH2 0xB56 JUMPI PUSH1 0x0 DUP1 REVERT JUMPDEST POP GAS STATICCALL ISZERO DUP1 ISZERO PUSH2 0xB6A JUMPI RETURNDATASIZE PUSH1 0x0 DUP1 RETURNDATACOPY RETURNDATASIZE PUSH1 0x0 REVERT JUMPDEST POP POP POP POP PUSH1 0x40 MLOAD RETURNDATASIZE PUSH1 0x1F NOT PUSH1 0x1F DUP3 ADD AND DUP3 ADD DUP1 PUSH1 0x40 MSTORE POP DUP2 ADD SWAP1 PUSH2 0xB8E SWAP2 SWAP1 PUSH2 0x229B JUMP JUMPDEST LT ISZERO PUSH2 0xBED JUMPI PUSH1 0x40 MLOAD PUSH3 0x461BCD PUSH1 0xE5 SHL DUP2 MSTORE PUSH1 0x20 PUSH1 0x4 DUP3 ADD MSTORE PUSH1 0x28 PUSH1 0x24 DUP3 ADD MSTORE PUSH32 0x596F75722062757920746F6B656E20616C6C6F77616E636520697320696E7375 PUSH1 0x44 DUP3 ADD MSTORE PUSH8 0x19999A58DA595B9D PUSH1 0xC2 SHL PUSH1 0x64 DUP3 ADD MSTORE PUSH1 0x84 ADD PUSH2 0x50E JUMP JUMPDEST PUSH1 0x2 SLOAD PUSH1 0x40 MLOAD PUSH4 0x70A08231 PUSH1 0xE0 SHL DUP2 MSTORE CALLER PUSH1 0x4 DUP3 ADD MSTORE DUP6 SWAP2 PUSH1 0x1 PUSH1 0x1 PUSH1 0xA0 SHL SUB AND SWAP1 PUSH4 0x70A08231 SWAP1 PUSH1 0x24 ADD PUSH1 0x20 PUSH1 0x40 MLOAD DUP1 DUP4 SUB DUP2 DUP7 DUP1 EXTCODESIZE ISZERO DUP1 ISZERO PUSH2 0xC30 JUMPI PUSH1 0x0 DUP1 REVERT JUMPDEST POP GAS STATICCALL ISZERO DUP1 ISZERO PUSH2 0xC44 JUMPI RETURNDATASIZE PUSH1 0x0 DUP1 RETURNDATACOPY RETURNDATASIZE PUSH1 0x0 REVERT JUMPDEST POP POP POP POP PUSH1 0x40 MLOAD RETURNDATASIZE PUSH1 0x1F NOT PUSH1 0x1F DUP3 ADD AND DUP3 ADD DUP1 PUSH1 0x40 MSTORE POP DUP2 ADD SWAP1 PUSH2 0xC68 SWAP2 SWAP1 PUSH2 0x229B JUMP JUMPDEST LT ISZERO PUSH2 0xCC5 JUMPI PUSH1 0x40 MLOAD PUSH3 0x461BCD PUSH1 0xE5 SHL DUP2 MSTORE PUSH1 0x20 PUSH1 0x4 DUP3 ADD MSTORE PUSH1 0x26 PUSH1 0x24 DUP3 ADD MSTORE PUSH32 0x596F75722062757920746F6B656E2062616C616E636520697320696E73756666 PUSH1 0x44 DUP3 ADD MSTORE PUSH6 0x1A58DA595B9D PUSH1 0xD2 SHL PUSH1 0x64 DUP3 ADD MSTORE PUSH1 0x84 ADD PUSH2 0x50E JUMP JUMPDEST PUSH1 0x2 SLOAD PUSH1 0x12 SLOAD PUSH1 0x40 MLOAD PUSH4 0x23B872DD PUSH1 0xE0 SHL DUP2 MSTORE CALLER PUSH1 0x4 DUP3 ADD MSTORE PUSH1 0x1 PUSH1 0x1 PUSH1 0xA0 SHL SUB SWAP2 DUP3 AND PUSH1 0x24 DUP3 ADD MSTORE PUSH1 0x44 DUP2 ADD DUP8 SWAP1 MSTORE SWAP2 AND SWAP1 PUSH4 0x23B872DD SWAP1 PUSH1 0x64 ADD PUSH1 0x20 PUSH1 0x40 MLOAD DUP1 DUP4 SUB DUP2 PUSH1 0x0 DUP8 DUP1 EXTCODESIZE ISZERO DUP1 ISZERO PUSH2 0xD1B JUMPI PUSH1 0x0 DUP1 REVERT JUMPDEST POP GAS CALL ISZERO DUP1 ISZERO PUSH2 0xD2F JUMPI RETURNDATASIZE PUSH1 0x0 DUP1 RETURNDATACOPY RETURNDATASIZE PUSH1 0x0 REVERT JUMPDEST POP POP POP POP PUSH1 0x40 MLOAD RETURNDATASIZE PUSH1 0x1F NOT PUSH1 0x1F DUP3 ADD AND DUP3 ADD DUP1 PUSH1 0x40 MSTORE POP DUP2 ADD SWAP1 PUSH2 0xD53 SWAP2 SWAP1 PUSH2 0x2279 JUMP JUMPDEST PUSH2 0xD9F JUMPI PUSH1 0x40 MLOAD PUSH3 0x461BCD PUSH1 0xE5 SHL DUP2 MSTORE PUSH1 0x20 PUSH1 0x4 DUP3 ADD MSTORE PUSH1 0x1E PUSH1 0x24 DUP3 ADD MSTORE PUSH32 0x42757920746F6B656E207472616E7366657246726F6D206661696C7572650000 PUSH1 0x44 DUP3 ADD MSTORE PUSH1 0x64 ADD PUSH2 0x50E JUMP JUMPDEST PUSH1 0x2 SLOAD PUSH1 0xF SLOAD PUSH1 0x1 PUSH1 0x1 PUSH1 0xA0 SHL SUB SWAP2 DUP3 AND SWAP2 PUSH4 0xA9059CBB SWAP2 PUSH3 0x10000 SWAP1 DIV AND PUSH2 0xDC8 DUP5 DUP9 PUSH2 0x2581 JUMP JUMPDEST PUSH1 0x40 MLOAD PUSH1 0x1 PUSH1 0x1 PUSH1 0xE0 SHL SUB NOT PUSH1 0xE0 DUP6 SWAP1 SHL AND DUP2 MSTORE PUSH1 0x1 PUSH1 0x1 PUSH1 0xA0 SHL SUB SWAP1 SWAP3 AND PUSH1 0x4 DUP4 ADD MSTORE PUSH1 0x24 DUP3 ADD MSTORE PUSH1 0x44 ADD PUSH1 0x20 PUSH1 0x40 MLOAD DUP1 DUP4 SUB DUP2 PUSH1 0x0 DUP8 DUP1 EXTCODESIZE ISZERO DUP1 ISZERO PUSH2 0xE0E JUMPI PUSH1 0x0 DUP1 REVERT JUMPDEST POP GAS CALL ISZERO DUP1 ISZERO PUSH2 0xE22 JUMPI RETURNDATASIZE PUSH1 0x0 DUP1 RETURNDATACOPY RETURNDATASIZE PUSH1 0x0 REVERT JUMPDEST POP POP POP POP PUSH1 0x40 MLOAD RETURNDATASIZE PUSH1 0x1F NOT PUSH1 0x1F DUP3 ADD AND DUP3 ADD DUP1 PUSH1 0x40 MSTORE POP DUP2 ADD SWAP1 PUSH2 0xE46 SWAP2 SWAP1 PUSH2 0x2279 JUMP JUMPDEST PUSH2 0xE92 JUMPI PUSH1 0x40 MLOAD PUSH3 0x461BCD PUSH1 0xE5 SHL DUP2 MSTORE PUSH1 0x20 PUSH1 0x4 DUP3 ADD MSTORE PUSH1 0x1F PUSH1 0x24 DUP3 ADD MSTORE PUSH32 0x42757920746F6B656E207472616E73666572207465616D206661696C75726500 PUSH1 0x44 DUP3 ADD MSTORE PUSH1 0x64 ADD PUSH2 0x50E JUMP JUMPDEST PUSH1 0x1 SLOAD PUSH1 0x40 MLOAD PUSH4 0xA9059CBB PUSH1 0xE0 SHL DUP2 MSTORE CALLER PUSH1 0x4 DUP3 ADD MSTORE PUSH1 0x24 DUP2 ADD DUP6 SWAP1 MSTORE PUSH1 0x1 PUSH1 0x1 PUSH1 0xA0 SHL SUB SWAP1 SWAP2 AND SWAP1 PUSH4 0xA9059CBB SWAP1 PUSH1 0x44 ADD PUSH1 0x20 PUSH1 0x40 MLOAD DUP1 DUP4 SUB DUP2 PUSH1 0x0 DUP8 DUP1 EXTCODESIZE ISZERO DUP1 ISZERO PUSH2 0xEDE JUMPI PUSH1 0x0 DUP1 REVERT JUMPDEST POP GAS CALL ISZERO DUP1 ISZERO PUSH2 0xEF2 JUMPI RETURNDATASIZE PUSH1 0x0 DUP1 RETURNDATACOPY RETURNDATASIZE PUSH1 0x0 REVERT JUMPDEST POP POP POP POP PUSH1 0x40 MLOAD RETURNDATASIZE PUSH1 0x1F NOT PUSH1 0x1F DUP3 ADD AND DUP3 ADD DUP1 PUSH1 0x40 MSTORE POP DUP2 ADD SWAP1 PUSH2 0xF16 SWAP2 SWAP1 PUSH2 0x2279 JUMP JUMPDEST PUSH2 0xF62 JUMPI PUSH1 0x40 MLOAD PUSH3 0x461BCD PUSH1 0xE5 SHL DUP2 MSTORE PUSH1 0x20 PUSH1 0x4 DUP3 ADD MSTORE PUSH1 0x1B PUSH1 0x24 DUP3 ADD MSTORE PUSH32 0x53656C6C20746F6B656E207472616E73666572206661696C7572650000000000 PUSH1 0x44 DUP3 ADD MSTORE PUSH1 0x64 ADD PUSH2 0x50E JUMP JUMPDEST DUP4 PUSH1 0x6 PUSH1 0x0 DUP3 DUP3 SLOAD PUSH2 0xF74 SWAP2 SWAP1 PUSH2 0x243A JUMP JUMPDEST SWAP3 POP POP DUP2 SWAP1 SSTORE POP DUP3 PUSH1 0x8 PUSH1 0x0 DUP3 DUP3 SLOAD PUSH2 0xF8D SWAP2 SWAP1 PUSH2 0x2581 JUMP JUMPDEST SWAP3 POP POP DUP2 SWAP1 SSTORE POP DUP1 PUSH1 0x7 PUSH1 0x0 DUP3 DUP3 SLOAD PUSH2 0xFA6 SWAP2 SWAP1 PUSH2 0x243A JUMP JUMPDEST SWAP1 SWAP2 SSTORE POP POP CALLER PUSH1 0x0 SWAP1 DUP2 MSTORE PUSH1 0x13 PUSH1 0x20 MSTORE PUSH1 0x40 DUP2 KECCAK256 DUP1 SLOAD DUP7 SWAP3 SWAP1 PUSH2 0xFCA SWAP1 DUP5 SWAP1 PUSH2 0x243A JUMP JUMPDEST SWAP1 SWAP2 SSTORE POP POP CALLER PUSH1 0x0 SWAP1 DUP2 MSTORE PUSH1 0x13 PUSH1 0x20 MSTORE PUSH1 0x40 DUP2 KECCAK256 PUSH1 0x1 ADD DUP1 SLOAD DUP6 SWAP3 SWAP1 PUSH2 0xFF1 SWAP1 DUP5 SWAP1 PUSH2 0x243A JUMP JUMPDEST SWAP1 SWAP2 SSTORE POP POP CALLER PUSH1 0x0 SWAP1 DUP2 MSTORE PUSH1 0x14 PUSH1 0x20 MSTORE PUSH1 0x40 DUP2 KECCAK256 DUP1 SLOAD DUP7 SWAP3 SWAP1 PUSH2 0x1015 SWAP1 DUP5 SWAP1 PUSH2 0x243A JUMP JUMPDEST SWAP1 SWAP2 SSTORE POP POP CALLER PUSH1 0x0 SWAP1 DUP2 MSTORE PUSH1 0x14 PUSH1 0x20 MSTORE PUSH1 0x40 DUP2 KECCAK256 PUSH1 0x1 ADD DUP1 SLOAD DUP6 SWAP3 SWAP1 PUSH2 0x103C SWAP1 DUP5 SWAP1 PUSH2 0x243A JUMP JUMPDEST SWAP1 SWAP2 SSTORE POP PUSH1 0x1 SWAP3 POP POP POP JUMPDEST SWAP3 SWAP2 POP POP JUMP JUMPDEST PUSH1 0x0 PUSH2 0x1057 PUSH2 0x1A56 JUMP JUMPDEST PUSH2 0x105F PUSH2 0x1E80 JUMP JUMPDEST DUP3 ISZERO DUP1 ISZERO SWAP1 PUSH2 0x106D JUMPI POP DUP2 ISZERO ISZERO JUMPDEST PUSH2 0x10AA JUMPI PUSH1 0x40 MLOAD PUSH3 0x461BCD PUSH1 0xE5 SHL DUP2 MSTORE PUSH1 0x20 PUSH1 0x4 DUP3 ADD MSTORE PUSH1 0xE PUSH1 0x24 DUP3 ADD MSTORE PUSH14 0x416D6F756E74206973207A65726F PUSH1 0x90 SHL PUSH1 0x44 DUP3 ADD MSTORE PUSH1 0x64 ADD PUSH2 0x50E JUMP JUMPDEST PUSH2 0x10B4 DUP4 DUP4 PUSH2 0x1F1D JUMP JUMPDEST PUSH2 0x10F4 JUMPI PUSH1 0x40 MLOAD PUSH3 0x461BCD PUSH1 0xE5 SHL DUP2 MSTORE PUSH1 0x20 PUSH1 0x4 DUP3 ADD MSTORE PUSH1 0x11 PUSH1 0x24 DUP3 ADD MSTORE PUSH17 0xA0E4D2C6CA40D2E640DAD2E6DAC2E8C6D PUSH1 0x7B SHL PUSH1 0x44 DUP3 ADD MSTORE PUSH1 0x64 ADD PUSH2 0x50E JUMP JUMPDEST PUSH2 0x10FE CALLER DUP4 PUSH2 0x1FE4 JUMP JUMPDEST PUSH2 0x1143 JUMPI PUSH1 0x40 MLOAD PUSH3 0x461BCD PUSH1 0xE5 SHL DUP2 MSTORE PUSH1 0x20 PUSH1 0x4 DUP3 ADD MSTORE PUSH1 0x16 PUSH1 0x24 DUP3 ADD MSTORE PUSH22 0x416D6F756E742065786365656473206D6178696D756D PUSH1 0x50 SHL PUSH1 0x44 DUP3 ADD MSTORE PUSH1 0x64 ADD PUSH2 0x50E JUMP JUMPDEST PUSH1 0x0 PUSH2 0x114E DUP5 PUSH2 0x2004 JUMP JUMPDEST SWAP1 POP DUP1 PUSH2 0x1159 PUSH2 0x2036 JUMP JUMPDEST LT ISZERO PUSH2 0x11A1 JUMPI PUSH1 0x40 MLOAD PUSH3 0x461BCD PUSH1 0xE5 SHL DUP2 MSTORE PUSH1 0x20 PUSH1 0x4 DUP3 ADD MSTORE PUSH1 0x17 PUSH1 0x24 DUP3 ADD MSTORE PUSH23 0x10985B185B98D9481A5CC81A5B9CDD59999A58DA595B9D PUSH1 0x4A SHL PUSH1 0x44 DUP3 ADD MSTORE PUSH1 0x64 ADD PUSH2 0x50E JUMP JUMPDEST PUSH1 0x1 SLOAD PUSH1 0x12 SLOAD PUSH1 0x40 MLOAD PUSH4 0x6EB1769F PUSH1 0xE1 SHL DUP2 MSTORE CALLER PUSH1 0x4 DUP3 ADD MSTORE PUSH1 0x1 PUSH1 0x1 PUSH1 0xA0 SHL SUB SWAP2 DUP3 AND PUSH1 0x24 DUP3 ADD MSTORE DUP6 SWAP3 SWAP2 SWAP1 SWAP2 AND SWAP1 PUSH4 0xDD62ED3E SWAP1 PUSH1 0x44 ADD PUSH1 0x20 PUSH1 0x40 MLOAD DUP1 DUP4 SUB DUP2 DUP7 DUP1 EXTCODESIZE ISZERO DUP1 ISZERO PUSH2 0x11F2 JUMPI PUSH1 0x0 DUP1 REVERT JUMPDEST POP GAS STATICCALL ISZERO DUP1 ISZERO PUSH2 0x1206 JUMPI RETURNDATASIZE PUSH1 0x0 DUP1 RETURNDATACOPY RETURNDATASIZE PUSH1 0x0 REVERT JUMPDEST POP POP POP POP PUSH1 0x40 MLOAD RETURNDATASIZE PUSH1 0x1F NOT PUSH1 0x1F DUP3 ADD AND DUP3 ADD DUP1 PUSH1 0x40 MSTORE POP DUP2 ADD SWAP1 PUSH2 0x122A SWAP2 SWAP1 PUSH2 0x229B JUMP JUMPDEST LT ISZERO PUSH2 0x128A JUMPI PUSH1 0x40 MLOAD PUSH3 0x461BCD PUSH1 0xE5 SHL DUP2 MSTORE PUSH1 0x20 PUSH1 0x4 DUP3 ADD MSTORE PUSH1 0x29 PUSH1 0x24 DUP3 ADD MSTORE PUSH32 0x596F75722073656C6C20746F6B656E20616C6C6F77616E636520697320696E73 PUSH1 0x44 DUP3 ADD MSTORE PUSH9 0x1D59999A58DA595B9D PUSH1 0xBA SHL PUSH1 0x64 DUP3 ADD MSTORE PUSH1 0x84 ADD PUSH2 0x50E JUMP JUMPDEST PUSH1 0x1 SLOAD PUSH1 0x40 MLOAD PUSH4 0x70A08231 PUSH1 0xE0 SHL DUP2 MSTORE CALLER PUSH1 0x4 DUP3 ADD MSTORE DUP5 SWAP2 PUSH1 0x1 PUSH1 0x1 PUSH1 0xA0 SHL SUB AND SWAP1 PUSH4 0x70A08231 SWAP1 PUSH1 0x24 ADD PUSH1 0x20 PUSH1 0x40 MLOAD DUP1 DUP4 SUB DUP2 DUP7 DUP1 EXTCODESIZE ISZERO DUP1 ISZERO PUSH2 0x12CD JUMPI PUSH1 0x0 DUP1 REVERT JUMPDEST POP GAS STATICCALL ISZERO DUP1 ISZERO PUSH2 0x12E1 JUMPI RETURNDATASIZE PUSH1 0x0 DUP1 RETURNDATACOPY RETURNDATASIZE PUSH1 0x0 REVERT JUMPDEST POP POP POP POP PUSH1 0x40 MLOAD RETURNDATASIZE PUSH1 0x1F NOT PUSH1 0x1F DUP3 ADD AND DUP3 ADD DUP1 PUSH1 0x40 MSTORE POP DUP2 ADD SWAP1 PUSH2 0x1305 SWAP2 SWAP1 PUSH2 0x229B JUMP JUMPDEST LT ISZERO PUSH2 0x1363 JUMPI PUSH1 0x40 MLOAD PUSH3 0x461BCD PUSH1 0xE5 SHL DUP2 MSTORE PUSH1 0x20 PUSH1 0x4 DUP3 ADD MSTORE PUSH1 0x27 PUSH1 0x24 DUP3 ADD MSTORE PUSH32 0x596F75722073656C6C20746F6B656E2062616C616E636520697320696E737566 PUSH1 0x44 DUP3 ADD MSTORE PUSH7 0x199A58DA595B9D PUSH1 0xCA SHL PUSH1 0x64 DUP3 ADD MSTORE PUSH1 0x84 ADD PUSH2 0x50E JUMP JUMPDEST PUSH1 0x1 SLOAD PUSH1 0x12 SLOAD PUSH1 0x40 MLOAD PUSH4 0x23B872DD PUSH1 0xE0 SHL DUP2 MSTORE CALLER PUSH1 0x4 DUP3 ADD MSTORE PUSH1 0x1 PUSH1 0x1 PUSH1 0xA0 SHL SUB SWAP2 DUP3 AND PUSH1 0x24 DUP3 ADD MSTORE PUSH1 0x44 DUP2 ADD DUP7 SWAP1 MSTORE SWAP2 AND SWAP1 PUSH4 0x23B872DD SWAP1 PUSH1 0x64 ADD PUSH1 0x20 PUSH1 0x40 MLOAD DUP1 DUP4 SUB DUP2 PUSH1 0x0 DUP8 DUP1 EXTCODESIZE ISZERO DUP1 ISZERO PUSH2 0x13B9 JUMPI PUSH1 0x0 DUP1 REVERT JUMPDEST POP GAS CALL ISZERO DUP1 ISZERO PUSH2 0x13CD JUMPI RETURNDATASIZE PUSH1 0x0 DUP1 RETURNDATACOPY RETURNDATASIZE PUSH1 0x0 REVERT JUMPDEST POP POP POP POP PUSH1 0x40 MLOAD RETURNDATASIZE PUSH1 0x1F NOT PUSH1 0x1F DUP3 ADD AND DUP3 ADD DUP1 PUSH1 0x40 MSTORE POP DUP2 ADD SWAP1 PUSH2 0x13F1 SWAP2 SWAP1 PUSH2 0x2279 JUMP JUMPDEST PUSH2 0x143D JUMPI PUSH1 0x40 MLOAD PUSH3 0x461BCD PUSH1 0xE5 SHL DUP2 MSTORE PUSH1 0x20 PUSH1 0x4 DUP3 ADD MSTORE PUSH1 0x1F PUSH1 0x24 DUP3 ADD MSTORE PUSH32 0x53656C6C20746F6B656E207472616E7366657246726F6D206661696C75726500 PUSH1 0x44 DUP3 ADD MSTORE PUSH1 0x64 ADD PUSH2 0x50E JUMP JUMPDEST PUSH1 0xA SLOAD PUSH1 0x1 PUSH1 0xB0 SHL SWAP1 DIV PUSH1 0xFF AND ISZERO PUSH2 0x153C JUMPI PUSH1 0x12 SLOAD PUSH1 0x1 PUSH1 0x1 PUSH1 0xA0 SHL SUB AND BALANCE DUP2 GT ISZERO PUSH2 0x14A5 JUMPI PUSH1 0x40 MLOAD PUSH3 0x461BCD PUSH1 0xE5 SHL DUP2 MSTORE PUSH1 0x20 PUSH1 0x4 DUP3 ADD MSTORE PUSH1 0x17 PUSH1 0x24 DUP3 ADD MSTORE PUSH23 0x10985B185B98D9481A5CC81A5B9CDD59999A58DA595B9D PUSH1 0x4A SHL PUSH1 0x44 DUP3 ADD MSTORE PUSH1 0x64 ADD PUSH2 0x50E JUMP JUMPDEST PUSH1 0x40 MLOAD PUSH1 0x0 SWAP1 CALLER SWAP1 DUP4 SWAP1 DUP4 DUP2 DUP2 DUP2 DUP6 DUP8 GAS CALL SWAP3 POP POP POP RETURNDATASIZE DUP1 PUSH1 0x0 DUP2 EQ PUSH2 0x14E7 JUMPI PUSH1 0x40 MLOAD SWAP2 POP PUSH1 0x1F NOT PUSH1 0x3F RETURNDATASIZE ADD AND DUP3 ADD PUSH1 0x40 MSTORE RETURNDATASIZE DUP3 MSTORE RETURNDATASIZE PUSH1 0x0 PUSH1 0x20 DUP5 ADD RETURNDATACOPY PUSH2 0x14EC JUMP JUMPDEST PUSH1 0x60 SWAP2 POP JUMPDEST POP POP SWAP1 POP DUP1 PUSH2 0x1536 JUMPI PUSH1 0x40 MLOAD PUSH3 0x461BCD PUSH1 0xE5 SHL DUP2 MSTORE PUSH1 0x20 PUSH1 0x4 DUP3 ADD MSTORE PUSH1 0x16 PUSH1 0x24 DUP3 ADD MSTORE PUSH22 0x5472616E73666572206275796572206661696C757265 PUSH1 0x50 SHL PUSH1 0x44 DUP3 ADD MSTORE PUSH1 0x64 ADD PUSH2 0x50E JUMP JUMPDEST POP PUSH2 0x16E7 JUMP JUMPDEST PUSH1 0x2 SLOAD PUSH1 0x12 SLOAD PUSH1 0x40 MLOAD PUSH4 0x70A08231 PUSH1 0xE0 SHL DUP2 MSTORE PUSH1 0x1 PUSH1 0x1 PUSH1 0xA0 SHL SUB SWAP2 DUP3 AND PUSH1 0x4 DUP3 ADD MSTORE DUP4 SWAP3 SWAP2 SWAP1 SWAP2 AND SWAP1 PUSH4 0x70A08231 SWAP1 PUSH1 0x24 ADD PUSH1 0x20 PUSH1 0x40 MLOAD DUP1 DUP4 SUB DUP2 DUP7 DUP1 EXTCODESIZE ISZERO DUP1 ISZERO PUSH2 0x1587 JUMPI PUSH1 0x0 DUP1 REVERT JUMPDEST POP GAS STATICCALL ISZERO DUP1 ISZERO PUSH2 0x159B JUMPI RETURNDATASIZE PUSH1 0x0 DUP1 RETURNDATACOPY RETURNDATASIZE PUSH1 0x0 REVERT JUMPDEST POP POP POP POP PUSH1 0x40 MLOAD RETURNDATASIZE PUSH1 0x1F NOT PUSH1 0x1F DUP3 ADD AND DUP3 ADD DUP1 PUSH1 0x40 MSTORE POP DUP2 ADD SWAP1 PUSH2 0x15BF SWAP2 SWAP1 PUSH2 0x229B JUMP JUMPDEST LT ISZERO PUSH2 0x1617 JUMPI PUSH1 0x40 MLOAD PUSH3 0x461BCD PUSH1 0xE5 SHL DUP2 MSTORE PUSH1 0x20 PUSH1 0x4 DUP3 ADD MSTORE PUSH1 0x21 PUSH1 0x24 DUP3 ADD MSTORE PUSH32 0x42757920746F6B656E2062616C616E636520697320696E73756666696369656E PUSH1 0x44 DUP3 ADD MSTORE PUSH1 0x1D PUSH1 0xFA SHL PUSH1 0x64 DUP3 ADD MSTORE PUSH1 0x84 ADD PUSH2 0x50E JUMP JUMPDEST PUSH1 0x2 SLOAD PUSH1 0x40 MLOAD PUSH4 0xA9059CBB PUSH1 0xE0 SHL DUP2 MSTORE CALLER PUSH1 0x4 DUP3 ADD MSTORE PUSH1 0x24 DUP2 ADD DUP4 SWAP1 MSTORE PUSH1 0x1 PUSH1 0x1 PUSH1 0xA0 SHL SUB SWAP1 SWAP2 AND SWAP1 PUSH4 0xA9059CBB SWAP1 PUSH1 0x44 ADD PUSH1 0x20 PUSH1 0x40 MLOAD DUP1 DUP4 SUB DUP2 PUSH1 0x0 DUP8 DUP1 EXTCODESIZE ISZERO DUP1 ISZERO PUSH2 0x1663 JUMPI PUSH1 0x0 DUP1 REVERT JUMPDEST POP GAS CALL ISZERO DUP1 ISZERO PUSH2 0x1677 JUMPI RETURNDATASIZE PUSH1 0x0 DUP1 RETURNDATACOPY RETURNDATASIZE PUSH1 0x0 REVERT JUMPDEST POP POP POP POP PUSH1 0x40 MLOAD RETURNDATASIZE PUSH1 0x1F NOT PUSH1 0x1F DUP3 ADD AND DUP3 ADD DUP1 PUSH1 0x40 MSTORE POP DUP2 ADD SWAP1 PUSH2 0x169B SWAP2 SWAP1 PUSH2 0x2279 JUMP JUMPDEST PUSH2 0x16E7 JUMPI PUSH1 0x40 MLOAD PUSH3 0x461BCD PUSH1 0xE5 SHL DUP2 MSTORE PUSH1 0x20 PUSH1 0x4 DUP3 ADD DUP2 SWAP1 MSTORE PUSH1 0x24 DUP3 ADD MSTORE PUSH32 0x42757920746F6B656E207472616E73666572206275796572206661696C757265 PUSH1 0x44 DUP3 ADD MSTORE PUSH1 0x64 ADD PUSH2 0x50E JUMP JUMPDEST DUP4 PUSH1 0x6 PUSH1 0x0 DUP3 DUP3 SLOAD PUSH2 0x16F9 SWAP2 SWAP1 PUSH2 0x2581 JUMP JUMPDEST SWAP3 POP POP DUP2 SWAP1 SSTORE POP DUP3 PUSH1 0x8 PUSH1 0x0 DUP3 DUP3 SLOAD PUSH2 0x1712 SWAP2 SWAP1 PUSH2 0x243A JUMP JUMPDEST SWAP3 POP POP DUP2 SWAP1 SSTORE POP DUP1 PUSH1 0x7 PUSH1 0x0 DUP3 DUP3 SLOAD PUSH2 0x172B SWAP2 SWAP1 PUSH2 0x2581 JUMP JUMPDEST SWAP1 SWAP2 SSTORE POP POP CALLER PUSH1 0x0 SWAP1 DUP2 MSTORE PUSH1 0x14 PUSH1 0x20 MSTORE PUSH1 0x40 DUP2 KECCAK256 DUP1 SLOAD DUP7 SWAP3 SWAP1 PUSH2 0x174F SWAP1 DUP5 SWAP1 PUSH2 0x2581 JUMP JUMPDEST SWAP1 SWAP2 SSTORE POP POP CALLER PUSH1 0x0 SWAP1 DUP2 MSTORE PUSH1 0x14 PUSH1 0x20 MSTORE PUSH1 0x40 DUP2 KECCAK256 PUSH1 0x1 ADD DUP1 SLOAD DUP6 SWAP3 SWAP1 PUSH2 0x103C SWAP1 DUP5 SWAP1 PUSH2 0x2581 JUMP JUMPDEST PUSH2 0x177E PUSH2 0x1942 JUMP JUMPDEST PUSH2 0x1786 PUSH2 0x1A56 JUMP JUMPDEST PUSH2 0x178E PUSH2 0x20E0 JUMP JUMPDEST PUSH1 0xF SLOAD PUSH2 0x17A9 SWAP1 PUSH3 0x10000 SWAP1 DIV PUSH1 0x1 PUSH1 0x1 PUSH1 0xA0 SHL SUB AND PUSH2 0x1DB7 JUMP JUMPDEST PUSH2 0x17F1 JUMPI PUSH1 0x40 MLOAD PUSH3 0x461BCD PUSH1 0xE5 SHL DUP2 MSTORE PUSH1 0x20 PUSH1 0x4 DUP3 ADD MSTORE PUSH1 0x19 PUSH1 0x24 DUP3 ADD MSTORE PUSH25 0x526566756E642073656C6C20746F6B656E206661696C757265 PUSH1 0x38 SHL PUSH1 0x44 DUP3 ADD MSTORE PUSH1 0x64 ADD PUSH2 0x50E JUMP JUMPDEST PUSH1 0x12 DUP1 SLOAD PUSH1 0x4 SWAP2 SWAP1 PUSH1 0xFF PUSH1 0xA0 SHL NOT AND PUSH1 0x1 PUSH1 0xA0 SHL DUP4 PUSH2 0x590 JUMP JUMPDEST PUSH2 0x1813 PUSH2 0x1942 JUMP JUMPDEST PUSH1 0x1 PUSH1 0x1 PUSH1 0xA0 SHL SUB DUP2 AND PUSH2 0x1878 JUMPI PUSH1 0x40 MLOAD PUSH3 0x461BCD PUSH1 0xE5 SHL DUP2 MSTORE PUSH1 0x20 PUSH1 0x4 DUP3 ADD MSTORE PUSH1 0x26 PUSH1 0x24 DUP3 ADD MSTORE PUSH32 0x4F776E61626C653A206E6577206F776E657220697320746865207A65726F2061 PUSH1 0x44 DUP3 ADD MSTORE PUSH6 0x646472657373 PUSH1 0xD0 SHL PUSH1 0x64 DUP3 ADD MSTORE PUSH1 0x84 ADD PUSH2 0x50E JUMP JUMPDEST PUSH2 0x1881 DUP2 PUSH2 0x199C JUMP JUMPDEST POP JUMP JUMPDEST PUSH1 0x1 PUSH1 0x1 PUSH1 0xA0 SHL SUB DUP2 AND PUSH1 0x0 SWAP1 DUP2 MSTORE PUSH1 0x13 PUSH1 0x20 DUP2 DUP2 MSTORE PUSH1 0x40 DUP1 DUP5 KECCAK256 PUSH1 0x1 SWAP1 DUP2 ADD SLOAD PUSH1 0x14 DUP5 MSTORE SWAP2 DUP6 KECCAK256 ADD SLOAD PUSH1 0xF SLOAD SWAP4 SWAP1 SWAP3 MSTORE DUP4 SWAP3 DUP4 SWAP3 PUSH2 0x190F SWAP3 SWAP2 PUSH2 0x2710 SWAP1 PUSH2 0x18D0 SWAP1 PUSH2 0xFFFF AND DUP5 PUSH2 0x2562 JUMP JUMPDEST PUSH2 0x18DA SWAP2 SWAP1 PUSH2 0x2452 JUMP JUMPDEST PUSH2 0x18E4 SWAP2 SWAP1 PUSH2 0x243A JUMP JUMPDEST PUSH2 0x18EE SWAP2 SWAP1 PUSH2 0x2581 JUMP JUMPDEST PUSH1 0x1 PUSH1 0x1 PUSH1 0xA0 SHL SUB DUP7 AND PUSH1 0x0 SWAP1 DUP2 MSTORE PUSH1 0x14 PUSH1 0x20 MSTORE PUSH1 0x40 SWAP1 KECCAK256 PUSH1 0x1 ADD SLOAD PUSH2 0x2131 JUMP JUMPDEST SWAP1 POP PUSH1 0x0 PUSH2 0x1920 PUSH1 0x7 SLOAD PUSH1 0x0 PUSH2 0x2147 JUMP JUMPDEST SWAP2 POP POP PUSH2 0x1937 PUSH1 0x0 PUSH2 0x1932 DUP5 DUP5 PUSH2 0x2131 JUMP JUMPDEST PUSH2 0x2147 JUMP JUMPDEST SWAP4 POP SWAP4 POP POP POP SWAP2 POP SWAP2 JUMP JUMPDEST PUSH1 0x0 SLOAD PUSH1 0x1 PUSH1 0x1 PUSH1 0xA0 SHL SUB AND CALLER EQ PUSH2 0x485 JUMPI PUSH1 0x40 MLOAD PUSH3 0x461BCD PUSH1 0xE5 SHL DUP2 MSTORE PUSH1 0x20 PUSH1 0x4 DUP3 ADD DUP2 SWAP1 MSTORE PUSH1 0x24 DUP3 ADD MSTORE PUSH32 0x4F776E61626C653A2063616C6C6572206973206E6F7420746865206F776E6572 PUSH1 0x44 DUP3 ADD MSTORE PUSH1 0x64 ADD PUSH2 0x50E JUMP JUMPDEST PUSH1 0x0 DUP1 SLOAD PUSH1 0x1 PUSH1 0x1 PUSH1 0xA0 SHL SUB DUP4 DUP2 AND PUSH1 0x1 PUSH1 0x1 PUSH1 0xA0 SHL SUB NOT DUP4 AND DUP2 OR DUP5 SSTORE PUSH1 0x40 MLOAD SWAP2 SWAP1 SWAP3 AND SWAP3 DUP4 SWAP2 PUSH32 0x8BE0079C531659141344CD1FD0A4F28419497F9722A3DAAFE3B4186F6B6457E0 SWAP2 SWAP1 LOG3 POP POP JUMP JUMPDEST PUSH1 0x1 PUSH1 0x1 PUSH1 0xA0 SHL SUB DUP2 AND PUSH1 0x0 SWAP1 DUP2 MSTORE PUSH1 0x14 PUSH1 0x20 MSTORE PUSH1 0x40 DUP2 KECCAK256 SLOAD PUSH1 0xE SLOAD DUP3 SWAP2 DUP3 SWAP2 PUSH2 0x1A2E SWAP2 PUSH2 0x1A19 SWAP2 PUSH2 0x2581 JUMP JUMPDEST PUSH1 0x6 SLOAD PUSH1 0xB SLOAD PUSH2 0x1A29 SWAP2 SWAP1 PUSH2 0x2581 JUMP JUMPDEST PUSH2 0x2131 JUMP JUMPDEST SWAP1 POP PUSH1 0x0 PUSH2 0x1A3F PUSH1 0x0 PUSH1 0x8 SLOAD PUSH2 0x2147 JUMP JUMPDEST POP SWAP1 POP PUSH2 0x1937 PUSH2 0x1A4F DUP4 DUP4 PUSH2 0x2131 JUMP JUMPDEST PUSH1 0x0 PUSH2 0x2147 JUMP JUMPDEST PUSH1 0x4 PUSH1 0x12 SLOAD PUSH1 0x1 PUSH1 0xA0 SHL SWAP1 DIV PUSH1 0xFF AND PUSH1 0x4 DUP2 GT ISZERO PUSH2 0x1A76 JUMPI PUSH2 0x1A76 PUSH2 0x25D1 JUMP JUMPDEST EQ ISZERO PUSH2 0x485 JUMPI PUSH1 0x40 MLOAD PUSH3 0x461BCD PUSH1 0xE5 SHL DUP2 MSTORE PUSH1 0x20 PUSH1 0x4 DUP3 ADD MSTORE PUSH1 0x16 PUSH1 0x24 DUP3 ADD MSTORE PUSH22 0x10DC9BDDD9199D5B991A5B99C81A5CC818D85B98D95B PUSH1 0x52 SHL PUSH1 0x44 DUP3 ADD MSTORE PUSH1 0x64 ADD PUSH2 0x50E JUMP JUMPDEST PUSH1 0x11 SLOAD TIMESTAMP GT DUP1 PUSH2 0x1AD1 JUMPI POP PUSH1 0xB SLOAD PUSH1 0x6 SLOAD LT ISZERO JUMPDEST PUSH2 0x1B28 JUMPI PUSH1 0x40 MLOAD PUSH3 0x461BCD PUSH1 0xE5 SHL DUP2 MSTORE PUSH1 0x20 PUSH1 0x4 DUP3 ADD MSTORE PUSH1 0x22 PUSH1 0x24 DUP3 ADD MSTORE PUSH32 0x43726F776466756E64696E6720656E6420636F6E646974696F6E206E6F74206D PUSH1 0x44 DUP3 ADD MSTORE PUSH2 0x195D PUSH1 0xF2 SHL PUSH1 0x64 DUP3 ADD MSTORE PUSH1 0x84 ADD PUSH2 0x50E JUMP JUMPDEST PUSH1 0x3 PUSH1 0x12 SLOAD PUSH1 0x1 PUSH1 0xA0 SHL SWAP1 DIV PUSH1 0xFF AND PUSH1 0x4 DUP2 GT ISZERO PUSH2 0x1B48 JUMPI PUSH2 0x1B48 PUSH2 0x25D1 JUMP JUMPDEST EQ ISZERO PUSH2 0x485 JUMPI PUSH1 0x40 MLOAD PUSH3 0x461BCD PUSH1 0xE5 SHL DUP2 MSTORE PUSH1 0x20 PUSH1 0x4 DUP3 ADD MSTORE PUSH1 0x1C PUSH1 0x24 DUP3 ADD MSTORE PUSH32 0x43726F776466756E64696E672073746174757320697320656E64656400000000 PUSH1 0x44 DUP3 ADD MSTORE PUSH1 0x64 ADD PUSH2 0x50E JUMP JUMPDEST PUSH1 0xA SLOAD PUSH1 0x0 SWAP1 PUSH1 0x1 SWAP1 PUSH1 0x1 PUSH1 0xB0 SHL SWAP1 DIV PUSH1 0xFF AND ISZERO PUSH2 0x1C1E JUMPI PUSH1 0x12 SLOAD PUSH1 0x1 PUSH1 0x1 PUSH1 0xA0 SHL SUB AND BALANCE ISZERO PUSH2 0x1C19 JUMPI PUSH1 0x12 SLOAD PUSH1 0x40 MLOAD PUSH1 0x1 PUSH1 0x1 PUSH1 0xA0 SHL SUB DUP6 DUP2 AND SWAP3 AND BALANCE SWAP1 PUSH1 0x0 DUP2 DUP2 DUP2 DUP6 DUP8 GAS CALL SWAP3 POP POP POP RETURNDATASIZE DUP1 PUSH1 0x0 DUP2 EQ PUSH2 0x1C0E JUMPI PUSH1 0x40 MLOAD SWAP2 POP PUSH1 0x1F NOT PUSH1 0x3F RETURNDATASIZE ADD AND DUP3 ADD PUSH1 0x40 MSTORE RETURNDATASIZE DUP3 MSTORE RETURNDATASIZE PUSH1 0x0 PUSH1 0x20 DUP5 ADD RETURNDATACOPY PUSH2 0x1C13 JUMP JUMPDEST PUSH1 0x60 SWAP2 POP JUMPDEST POP SWAP1 SWAP2 POP POP JUMPDEST PUSH2 0x1047 JUMP JUMPDEST PUSH1 0x2 SLOAD PUSH1 0x12 SLOAD PUSH1 0x40 MLOAD PUSH4 0x70A08231 PUSH1 0xE0 SHL DUP2 MSTORE PUSH1 0x1 PUSH1 0x1 PUSH1 0xA0 SHL SUB SWAP2 DUP3 AND PUSH1 0x4 DUP3 ADD MSTORE PUSH1 0x0 SWAP3 SWAP2 SWAP1 SWAP2 AND SWAP1 PUSH4 0x70A08231 SWAP1 PUSH1 0x24 ADD PUSH1 0x20 PUSH1 0x40 MLOAD DUP1 DUP4 SUB DUP2 DUP7 DUP1 EXTCODESIZE ISZERO DUP1 ISZERO PUSH2 0x1C6A JUMPI PUSH1 0x0 DUP1 REVERT JUMPDEST POP GAS STATICCALL ISZERO DUP1 ISZERO PUSH2 0x1C7E JUMPI RETURNDATASIZE PUSH1 0x0 DUP1 RETURNDATACOPY RETURNDATASIZE PUSH1 0x0 REVERT JUMPDEST POP POP POP POP PUSH1 0x40 MLOAD RETURNDATASIZE PUSH1 0x1F NOT PUSH1 0x1F DUP3 ADD AND DUP3 ADD DUP1 PUSH1 0x40 MSTORE POP DUP2 ADD SWAP1 PUSH2 0x1CA2 SWAP2 SWAP1 PUSH2 0x229B JUMP JUMPDEST GT ISZERO PUSH2 0x1047 JUMPI PUSH1 0x2 SLOAD PUSH1 0x12 SLOAD PUSH1 0x40 MLOAD PUSH4 0x70A08231 PUSH1 0xE0 SHL DUP2 MSTORE PUSH1 0x1 PUSH1 0x1 PUSH1 0xA0 SHL SUB SWAP2 DUP3 AND PUSH1 0x4 DUP3 ADD MSTORE SWAP2 AND SWAP1 PUSH4 0xA9059CBB SWAP1 DUP6 SWAP1 DUP4 SWAP1 PUSH4 0x70A08231 SWAP1 PUSH1 0x24 ADD JUMPDEST PUSH1 0x20 PUSH1 0x40 MLOAD DUP1 DUP4 SUB DUP2 DUP7 DUP1 EXTCODESIZE ISZERO DUP1 ISZERO PUSH2 0x1CFA JUMPI PUSH1 0x0 DUP1 REVERT JUMPDEST POP GAS STATICCALL ISZERO DUP1 ISZERO PUSH2 0x1D0E JUMPI RETURNDATASIZE PUSH1 0x0 DUP1 RETURNDATACOPY RETURNDATASIZE PUSH1 0x0 REVERT JUMPDEST POP POP POP POP PUSH1 0x40 MLOAD RETURNDATASIZE PUSH1 0x1F NOT PUSH1 0x1F DUP3 ADD AND DUP3 ADD DUP1 PUSH1 0x40 MSTORE POP DUP2 ADD SWAP1 PUSH2 0x1D32 SWAP2 SWAP1 PUSH2 0x229B JUMP JUMPDEST PUSH1 0x40 MLOAD PUSH1 0x1 PUSH1 0x1 PUSH1 0xE0 SHL SUB NOT PUSH1 0xE0 DUP6 SWAP1 SHL AND DUP2 MSTORE PUSH1 0x1 PUSH1 0x1 PUSH1 0xA0 SHL SUB SWAP1 SWAP3 AND PUSH1 0x4 DUP4 ADD MSTORE PUSH1 0x24 DUP3 ADD MSTORE PUSH1 0x44 ADD PUSH1 0x20 PUSH1 0x40 MLOAD DUP1 DUP4 SUB DUP2 PUSH1 0x0 DUP8 DUP1 EXTCODESIZE ISZERO DUP1 ISZERO PUSH2 0x1D78 JUMPI PUSH1 0x0 DUP1 REVERT JUMPDEST POP GAS CALL ISZERO DUP1 ISZERO PUSH2 0x1D8C JUMPI RETURNDATASIZE PUSH1 0x0 DUP1 RETURNDATACOPY RETURNDATASIZE PUSH1 0x0 REVERT JUMPDEST POP POP POP POP PUSH1 0x40 MLOAD RETURNDATASIZE PUSH1 0x1F NOT PUSH1 0x1F DUP3 ADD AND DUP3 ADD DUP1 PUSH1 0x40 MSTORE POP DUP2 ADD SWAP1 PUSH2 0x1DB0 SWAP2 SWAP1 PUSH2 0x2279 JUMP JUMPDEST SWAP4 SWAP3 POP POP POP JUMP JUMPDEST PUSH1 0x1 DUP1 SLOAD PUSH1 0x12 SLOAD PUSH1 0x40 MLOAD PUSH4 0x70A08231 PUSH1 0xE0 SHL DUP2 MSTORE PUSH1 0x1 PUSH1 0x1 PUSH1 0xA0 SHL SUB SWAP2 DUP3 AND PUSH1 0x4 DUP3 ADD MSTORE PUSH1 0x0 SWAP4 SWAP3 DUP5 SWAP3 AND SWAP1 PUSH4 0x70A08231 SWAP1 PUSH1 0x24 ADD PUSH1 0x20 PUSH1 0x40 MLOAD DUP1 DUP4 SUB DUP2 DUP7 DUP1 EXTCODESIZE ISZERO DUP1 ISZERO PUSH2 0x1E04 JUMPI PUSH1 0x0 DUP1 REVERT JUMPDEST POP GAS STATICCALL ISZERO DUP1 ISZERO PUSH2 0x1E18 JUMPI RETURNDATASIZE PUSH1 0x0 DUP1 RETURNDATACOPY RETURNDATASIZE PUSH1 0x0 REVERT JUMPDEST POP POP POP POP PUSH1 0x40 MLOAD RETURNDATASIZE PUSH1 0x1F NOT PUSH1 0x1F DUP3 ADD AND DUP3 ADD DUP1 PUSH1 0x40 MSTORE POP DUP2 ADD SWAP1 PUSH2 0x1E3C SWAP2 SWAP1 PUSH2 0x229B JUMP JUMPDEST GT ISZERO PUSH2 0x1047 JUMPI PUSH1 0x1 SLOAD PUSH1 0x12 SLOAD PUSH1 0x40 MLOAD PUSH4 0x70A08231 PUSH1 0xE0 SHL DUP2 MSTORE PUSH1 0x1 PUSH1 0x1 PUSH1 0xA0 SHL SUB SWAP2 DUP3 AND PUSH1 0x4 DUP3 ADD MSTORE SWAP2 AND SWAP1 PUSH4 0xA9059CBB SWAP1 DUP6 SWAP1 DUP4 SWAP1 PUSH4 0x70A08231 SWAP1 PUSH1 0x24 ADD PUSH2 0x1CE2 JUMP JUMPDEST PUSH1 0x10 SLOAD TIMESTAMP LT ISZERO PUSH2 0x1ED2 JUMPI PUSH1 0x40 MLOAD PUSH3 0x461BCD PUSH1 0xE5 SHL DUP2 MSTORE PUSH1 0x20 PUSH1 0x4 DUP3 ADD MSTORE PUSH1 0x18 PUSH1 0x24 DUP3 ADD MSTORE PUSH32 0x43726F776466756E64696E67206E6F7420737461727465640000000000000000 PUSH1 0x44 DUP3 ADD MSTORE PUSH1 0x64 ADD PUSH2 0x50E JUMP JUMPDEST PUSH1 0x11 SLOAD TIMESTAMP GT ISZERO PUSH2 0x485 JUMPI PUSH1 0x40 MLOAD PUSH3 0x461BCD PUSH1 0xE5 SHL DUP2 MSTORE PUSH1 0x20 PUSH1 0x4 DUP3 ADD MSTORE PUSH1 0x16 PUSH1 0x24 DUP3 ADD MSTORE PUSH22 0x10DC9BDDD9199D5B991A5B99C81A185CC8195B991959 PUSH1 0x52 SHL PUSH1 0x44 DUP3 ADD MSTORE PUSH1 0x64 ADD PUSH2 0x50E JUMP JUMPDEST PUSH1 0x0 DUP2 PUSH2 0x1F49 PUSH2 0x1F2B PUSH2 0x219C JUMP JUMPDEST PUSH2 0x1F35 SWAP1 DUP7 PUSH2 0x2562 JUMP JUMPDEST PUSH1 0xA SLOAD PUSH1 0x1 PUSH1 0xA0 SHL SWAP1 DIV PUSH1 0xFF AND PUSH1 0x8 PUSH2 0x21F3 JUMP JUMPDEST EQ ISZERO PUSH2 0x1F57 JUMPI POP PUSH1 0x1 PUSH2 0x1047 JUMP JUMPDEST DUP3 PUSH2 0x1F81 PUSH2 0x1F63 PUSH2 0x219C JUMP JUMPDEST PUSH2 0x1F6D SWAP1 DUP6 PUSH2 0x2452 JUMP JUMPDEST PUSH1 0xA SLOAD PUSH1 0x1 PUSH1 0xA8 SHL SWAP1 DIV PUSH1 0xFF AND PUSH1 0x8 PUSH2 0x21F3 JUMP JUMPDEST EQ ISZERO PUSH2 0x1F8F JUMPI POP PUSH1 0x1 PUSH2 0x1047 JUMP JUMPDEST POP PUSH1 0x0 SWAP3 SWAP2 POP POP JUMP JUMPDEST PUSH1 0x0 DUP1 PUSH2 0x1FA4 DUP5 PUSH2 0x19EC JUMP JUMPDEST POP SWAP1 POP DUP1 DUP4 GT PUSH2 0x1FB8 JUMPI PUSH1 0x1 SWAP2 POP POP PUSH2 0x1047 JUMP JUMPDEST PUSH1 0x0 SWAP2 POP POP PUSH2 0x1047 JUMP JUMPDEST PUSH1 0xD SLOAD PUSH1 0x0 SWAP1 PUSH2 0x2710 SWAP1 PUSH2 0x1FDA SWAP1 PUSH2 0xFFFF AND DUP5 PUSH2 0x2562 JUMP JUMPDEST PUSH2 0x1047 SWAP2 SWAP1 PUSH2 0x2452 JUMP JUMPDEST PUSH1 0x0 DUP1 PUSH2 0x1FF0 DUP5 PUSH2 0x1884 JUMP JUMPDEST SWAP2 POP POP DUP1 DUP4 GT PUSH2 0x1FB8 JUMPI PUSH1 0x1 SWAP2 POP POP PUSH2 0x1047 JUMP JUMPDEST PUSH1 0xD SLOAD PUSH1 0x0 SWAP1 PUSH2 0x2710 SWAP1 PUSH2 0x2022 SWAP1 PUSH3 0x10000 SWAP1 DIV PUSH2 0xFFFF AND DUP5 PUSH2 0x2562 JUMP JUMPDEST PUSH2 0x202C SWAP2 SWAP1 PUSH2 0x2452 JUMP JUMPDEST PUSH2 0x1047 SWAP1 DUP4 PUSH2 0x2581 JUMP JUMPDEST PUSH1 0xA SLOAD PUSH1 0x0 SWAP1 PUSH1 0x1 PUSH1 0xB0 SHL SWAP1 DIV PUSH1 0xFF AND ISZERO PUSH2 0x205C JUMPI POP PUSH1 0x12 SLOAD PUSH1 0x1 PUSH1 0x1 PUSH1 0xA0 SHL SUB AND BALANCE SWAP1 JUMP JUMPDEST PUSH1 0x2 SLOAD PUSH1 0x12 SLOAD PUSH1 0x40 MLOAD PUSH4 0x70A08231 PUSH1 0xE0 SHL DUP2 MSTORE PUSH1 0x1 PUSH1 0x1 PUSH1 0xA0 SHL SUB SWAP2 DUP3 AND PUSH1 0x4 DUP3 ADD MSTORE SWAP2 AND SWAP1 PUSH4 0x70A08231 SWAP1 PUSH1 0x24 ADD PUSH1 0x20 PUSH1 0x40 MLOAD DUP1 DUP4 SUB DUP2 DUP7 DUP1 EXTCODESIZE ISZERO DUP1 ISZERO PUSH2 0x20A3 JUMPI PUSH1 0x0 DUP1 REVERT JUMPDEST POP GAS STATICCALL ISZERO DUP1 ISZERO PUSH2 0x20B7 JUMPI RETURNDATASIZE PUSH1 0x0 DUP1 RETURNDATACOPY RETURNDATASIZE PUSH1 0x0 REVERT JUMPDEST POP POP POP POP PUSH1 0x40 MLOAD RETURNDATASIZE PUSH1 0x1F NOT PUSH1 0x1F DUP3 ADD AND DUP3 ADD DUP1 PUSH1 0x40 MSTORE POP DUP2 ADD SWAP1 PUSH2 0x20DB SWAP2 SWAP1 PUSH2 0x229B JUMP JUMPDEST SWAP1 POP SWAP1 JUMP JUMPDEST PUSH1 0x10 SLOAD TIMESTAMP LT PUSH2 0x485 JUMPI PUSH1 0x40 MLOAD PUSH3 0x461BCD PUSH1 0xE5 SHL DUP2 MSTORE PUSH1 0x20 PUSH1 0x4 DUP3 ADD MSTORE PUSH1 0x18 PUSH1 0x24 DUP3 ADD MSTORE PUSH32 0x43726F776466756E64696E672068617320737461727465640000000000000000 PUSH1 0x44 DUP3 ADD MSTORE PUSH1 0x64 ADD PUSH2 0x50E JUMP JUMPDEST PUSH1 0x0 DUP2 DUP4 LT PUSH2 0x2140 JUMPI DUP2 PUSH2 0x1DB0 JUMP JUMPDEST POP SWAP1 SWAP2 SWAP1 POP JUMP JUMPDEST PUSH1 0x0 DUP1 DUP4 ISZERO PUSH2 0x216C JUMPI DUP4 PUSH2 0x2159 PUSH2 0x219C JUMP JUMPDEST PUSH2 0x2163 SWAP1 DUP7 PUSH2 0x2562 JUMP JUMPDEST SWAP2 POP SWAP2 POP PUSH2 0x2195 JUMP JUMPDEST DUP3 ISZERO PUSH2 0x218E JUMPI PUSH2 0x217A PUSH2 0x219C JUMP JUMPDEST PUSH2 0x2184 SWAP1 DUP5 PUSH2 0x2452 JUMP JUMPDEST DUP4 SWAP2 POP SWAP2 POP PUSH2 0x2195 JUMP JUMPDEST POP PUSH1 0x0 SWAP1 POP DUP1 JUMPDEST SWAP3 POP SWAP3 SWAP1 POP JUMP JUMPDEST PUSH1 0xA DUP1 SLOAD PUSH1 0x0 SWAP2 PUSH2 0x21B7 SWAP2 PUSH1 0x1 PUSH1 0xA8 SHL SWAP1 DIV PUSH1 0xFF AND SWAP1 PUSH2 0x24B7 JUMP JUMPDEST PUSH1 0xA DUP1 SLOAD PUSH2 0x21D0 SWAP2 PUSH1 0x1 PUSH1 0xA0 SHL SWAP1 SWAP2 DIV PUSH1 0xFF AND SWAP1 PUSH2 0x24B7 JUMP JUMPDEST PUSH1 0xC SLOAD PUSH2 0x21DF SWAP1 PUSH1 0x64 SWAP1 PUSH2 0x2452 JUMP JUMPDEST PUSH2 0x21E9 SWAP2 SWAP1 PUSH2 0x2562 JUMP JUMPDEST PUSH2 0x20DB SWAP2 SWAP1 PUSH2 0x2452 JUMP JUMPDEST PUSH1 0x0 DUP2 PUSH1 0xFF AND DUP4 PUSH1 0xFF AND LT ISZERO PUSH2 0x220A JUMPI POP DUP3 PUSH2 0x1DB0 JUMP JUMPDEST PUSH2 0x2214 DUP3 DUP5 PUSH2 0x2598 JUMP JUMPDEST PUSH2 0x221F SWAP1 PUSH1 0xA PUSH2 0x24B7 JUMP JUMPDEST PUSH2 0x2229 DUP4 DUP6 PUSH2 0x2598 JUMP JUMPDEST PUSH2 0x2234 SWAP1 PUSH1 0xA PUSH2 0x24B7 JUMP JUMPDEST PUSH2 0x223E SWAP1 DUP7 PUSH2 0x2452 JUMP JUMPDEST PUSH2 0x2248 SWAP2 SWAP1 PUSH2 0x2562 JUMP JUMPDEST SWAP5 SWAP4 POP POP POP POP JUMP JUMPDEST PUSH1 0x0 PUSH1 0x20 DUP3 DUP5 SUB SLT ISZERO PUSH2 0x2262 JUMPI PUSH1 0x0 DUP1 REVERT JUMPDEST DUP2 CALLDATALOAD PUSH1 0x1 PUSH1 0x1 PUSH1 0xA0 SHL SUB DUP2 AND DUP2 EQ PUSH2 0x1DB0 JUMPI PUSH1 0x0 DUP1 REVERT JUMPDEST PUSH1 0x0 PUSH1 0x20 DUP3 DUP5 SUB SLT ISZERO PUSH2 0x228B JUMPI PUSH1 0x0 DUP1 REVERT JUMPDEST DUP2 MLOAD DUP1 ISZERO ISZERO DUP2 EQ PUSH2 0x1DB0 JUMPI PUSH1 0x0 DUP1 REVERT JUMPDEST PUSH1 0x0 PUSH1 0x20 DUP3 DUP5 SUB SLT ISZERO PUSH2 0x22AD JUMPI PUSH1 0x0 DUP1 REVERT JUMPDEST POP MLOAD SWAP2 SWAP1 POP JUMP JUMPDEST PUSH1 0x0 DUP1 PUSH1 0x40 DUP4 DUP6 SUB SLT ISZERO PUSH2 0x22C7 JUMPI PUSH1 0x0 DUP1 REVERT JUMPDEST POP POP DUP1 CALLDATALOAD SWAP3 PUSH1 0x20 SWAP1 SWAP2 ADD CALLDATALOAD SWAP2 POP JUMP JUMPDEST DUP2 MLOAD PUSH1 0x1 PUSH1 0x1 PUSH1 0xA0 SHL SUB AND DUP2 MSTORE PUSH2 0x1C0 DUP2 ADD PUSH1 0x20 DUP4 ADD MLOAD PUSH2 0x2302 PUSH1 0x20 DUP5 ADD DUP3 PUSH1 0x1 PUSH1 0x1 PUSH1 0xA0 SHL SUB AND SWAP1 MSTORE JUMP JUMPDEST POP PUSH1 0x40 DUP4 ADD MLOAD PUSH2 0x2317 PUSH1 0x40 DUP5 ADD DUP3 PUSH1 0xFF AND SWAP1 MSTORE JUMP JUMPDEST POP PUSH1 0x60 DUP4 ADD MLOAD PUSH2 0x232C PUSH1 0x60 DUP5 ADD DUP3 PUSH1 0xFF AND SWAP1 MSTORE JUMP JUMPDEST POP PUSH1 0x80 DUP4 ADD MLOAD PUSH2 0x2340 PUSH1 0x80 DUP5 ADD DUP3 ISZERO ISZERO SWAP1 MSTORE JUMP JUMPDEST POP PUSH1 0xA0 DUP4 ADD MLOAD PUSH1 0xA0 DUP4 ADD MSTORE PUSH1 0xC0 DUP4 ADD MLOAD PUSH1 0xC0 DUP4 ADD MSTORE PUSH1 0xE0 DUP4 ADD MLOAD PUSH2 0x236A PUSH1 0xE0 DUP5 ADD DUP3 PUSH2 0xFFFF AND SWAP1 MSTORE JUMP JUMPDEST POP PUSH2 0x100 DUP4 DUP2 ADD MLOAD PUSH2 0xFFFF SWAP1 DUP2 AND SWAP2 DUP5 ADD SWAP2 SWAP1 SWAP2 MSTORE PUSH2 0x120 DUP1 DUP6 ADD MLOAD SWAP1 DUP5 ADD MSTORE PUSH2 0x140 DUP1 DUP6 ADD MLOAD SWAP1 SWAP2 AND SWAP1 DUP4 ADD MSTORE PUSH2 0x160 DUP1 DUP5 ADD MLOAD PUSH1 0x1 PUSH1 0x1 PUSH1 0xA0 SHL SUB AND SWAP1 DUP4 ADD MSTORE PUSH2 0x180 DUP1 DUP5 ADD MLOAD SWAP1 DUP4 ADD MSTORE PUSH2 0x1A0 SWAP3 DUP4 ADD MLOAD SWAP3 SWAP1 SWAP2 ADD SWAP2 SWAP1 SWAP2 MSTORE SWAP1 JUMP JUMPDEST PUSH1 0x0 PUSH2 0x140 DUP3 ADD SWAP1 POP DUP12 DUP3 MSTORE DUP11 PUSH1 0x20 DUP4 ADD MSTORE DUP10 PUSH1 0x40 DUP4 ADD MSTORE DUP9 PUSH1 0x60 DUP4 ADD MSTORE DUP8 PUSH1 0x80 DUP4 ADD MSTORE DUP7 PUSH1 0xA0 DUP4 ADD MSTORE DUP6 PUSH1 0xC0 DUP4 ADD MSTORE DUP5 PUSH1 0xE0 DUP4 ADD MSTORE DUP4 PUSH2 0x100 DUP4 ADD MSTORE PUSH1 0x5 DUP4 LT PUSH2 0x2424 JUMPI PUSH4 0x4E487B71 PUSH1 0xE0 SHL PUSH1 0x0 MSTORE PUSH1 0x21 PUSH1 0x4 MSTORE PUSH1 0x24 PUSH1 0x0 REVERT JUMPDEST DUP3 PUSH2 0x120 DUP4 ADD MSTORE SWAP12 SWAP11 POP POP POP POP POP POP POP POP POP POP POP JUMP JUMPDEST PUSH1 0x0 DUP3 NOT DUP3 GT ISZERO PUSH2 0x244D JUMPI PUSH2 0x244D PUSH2 0x25BB JUMP JUMPDEST POP ADD SWAP1 JUMP JUMPDEST PUSH1 0x0 DUP3 PUSH2 0x246F JUMPI PUSH4 0x4E487B71 PUSH1 0xE0 SHL PUSH1 0x0 MSTORE PUSH1 0x12 PUSH1 0x4 MSTORE PUSH1 0x24 PUSH1 0x0 REVERT JUMPDEST POP DIV SWAP1 JUMP JUMPDEST PUSH1 0x1 DUP2 DUP2 JUMPDEST DUP1 DUP6 GT ISZERO PUSH2 0x24AF JUMPI DUP2 PUSH1 0x0 NOT DIV DUP3 GT ISZERO PUSH2 0x2495 JUMPI PUSH2 0x2495 PUSH2 0x25BB JUMP JUMPDEST DUP1 DUP6 AND ISZERO PUSH2 0x24A2 JUMPI SWAP2 DUP2 MUL SWAP2 JUMPDEST SWAP4 DUP5 SHR SWAP4 SWAP1 DUP1 MUL SWAP1 PUSH2 0x2479 JUMP JUMPDEST POP SWAP3 POP SWAP3 SWAP1 POP JUMP JUMPDEST PUSH1 0x0 PUSH2 0x1DB0 PUSH1 0xFF DUP5 AND DUP4 PUSH1 0x0 DUP3 PUSH2 0x24D0 JUMPI POP PUSH1 0x1 PUSH2 0x1047 JUMP JUMPDEST DUP2 PUSH2 0x24DD JUMPI POP PUSH1 0x0 PUSH2 0x1047 JUMP JUMPDEST DUP2 PUSH1 0x1 DUP2 EQ PUSH2 0x24F3 JUMPI PUSH1 0x2 DUP2 EQ PUSH2 0x24FD JUMPI PUSH2 0x2519 JUMP JUMPDEST PUSH1 0x1 SWAP2 POP POP PUSH2 0x1047 JUMP JUMPDEST PUSH1 0xFF DUP5 GT ISZERO PUSH2 0x250E JUMPI PUSH2 0x250E PUSH2 0x25BB JUMP JUMPDEST POP POP PUSH1 0x1 DUP3 SHL PUSH2 0x1047 JUMP JUMPDEST POP PUSH1 0x20 DUP4 LT PUSH2 0x133 DUP4 LT AND PUSH1 0x4E DUP5 LT PUSH1 0xB DUP5 LT AND OR ISZERO PUSH2 0x253C JUMPI POP DUP2 DUP2 EXP PUSH2 0x1047 JUMP JUMPDEST PUSH2 0x2546 DUP4 DUP4 PUSH2 0x2474 JUMP JUMPDEST DUP1 PUSH1 0x0 NOT DIV DUP3 GT ISZERO PUSH2 0x255A JUMPI PUSH2 0x255A PUSH2 0x25BB JUMP JUMPDEST MUL SWAP4 SWAP3 POP POP POP JUMP JUMPDEST PUSH1 0x0 DUP2 PUSH1 0x0 NOT DIV DUP4 GT DUP3 ISZERO ISZERO AND ISZERO PUSH2 0x257C JUMPI PUSH2 0x257C PUSH2 0x25BB JUMP JUMPDEST POP MUL SWAP1 JUMP JUMPDEST PUSH1 0x0 DUP3 DUP3 LT ISZERO PUSH2 0x2593 JUMPI PUSH2 0x2593 PUSH2 0x25BB JUMP JUMPDEST POP SUB SWAP1 JUMP JUMPDEST PUSH1 0x0 PUSH1 0xFF DUP3 AND PUSH1 0xFF DUP5 AND DUP1 DUP3 LT ISZERO PUSH2 0x25B2 JUMPI PUSH2 0x25B2 PUSH2 0x25BB JUMP JUMPDEST SWAP1 SUB SWAP4 SWAP3 POP POP POP JUMP JUMPDEST PUSH4 0x4E487B71 PUSH1 0xE0 SHL PUSH1 0x0 MSTORE PUSH1 0x11 PUSH1 0x4 MSTORE PUSH1 0x24 PUSH1 0x0 REVERT JUMPDEST PUSH4 0x4E487B71 PUSH1 0xE0 SHL PUSH1 0x0 MSTORE PUSH1 0x21 PUSH1 0x4 MSTORE PUSH1 0x24 PUSH1 0x0 REVERT INVALID LOG2 PUSH5 0x6970667358 0x22 SLT KECCAK256 DUP1 0xF 0xE DUP2 SAR 0xEB DUP11 NUMBER 0xB3 EXTCODECOPY PUSH10 0x25A8A59D49DC128B2E9B 0xEF 0xB7 ADDMOD DUP15 SWAP5 RETURNDATASIZE PUSH31 0xEEC23BF464736F6C63430008070033A2646970667358221220ED6D38A414CF XOR 0xBC 0xE5 PUSH20 0xFA973524906149B7589BB3BB00F38AAE52061BD4 MLOAD 0xB0 PUSH5 0x736F6C6343 STOP ADDMOD SMOD STOP CALLER "
		},
		"gasEstimates": {
			"creation": {
				"codeDepositCost": "3061800",
				"executionCost": "29214",
				"totalCost": "3091014"
			},
			"external": {
				"createCrowdfundingContract(address,address,uint256,uint256,uint16,uint16,uint256,uint16,address,uint256,uint256)": "infinite",
				"getDeployedCrowdfundingContracts()": "infinite",
				"owner()": "2323",
				"renounceOwnership()": "infinite",
				"transferOwnership(address)": "28399"
			}
		},
		"methodIdentifiers": {
			"createCrowdfundingContract(address,address,uint256,uint256,uint16,uint16,uint256,uint16,address,uint256,uint256)": "b82364ff",
			"getDeployedCrowdfundingContracts()": "79201eec",
			"owner()": "8da5cb5b",
			"renounceOwnership()": "715018a6",
			"transferOwnership(address)": "f2fde38b"
		}
	},
	"abi": [
		{
			"anonymous": false,
			"inputs": [
				{
					"indexed": false,
					"internalType": "address",
					"name": "crowdfunding",
					"type": "address"
				},
				{
					"components": [
						{
							"internalType": "address",
							"name": "sellTokenAddress",
							"type": "address"
						},
						{
							"internalType": "address",
							"name": "buyTokenAddress",
							"type": "address"
						},
						{
							"internalType": "uint8",
							"name": "sellTokenDecimals",
							"type": "uint8"
						},
						{
							"internalType": "uint8",
							"name": "buyTokenDecimals",
							"type": "uint8"
						},
						{
							"internalType": "bool",
							"name": "buyTokenIsNative",
							"type": "bool"
						},
						{
							"internalType": "uint256",
							"name": "raiseTotal",
							"type": "uint256"
						},
						{
							"internalType": "uint256",
							"name": "buyPrice",
							"type": "uint256"
						},
						{
							"internalType": "uint16",
							"name": "swapPercent",
							"type": "uint16"
						},
						{
							"internalType": "uint16",
							"name": "sellTax",
							"type": "uint16"
						},
						{
							"internalType": "uint256",
							"name": "maxBuyAmount",
							"type": "uint256"
						},
						{
							"internalType": "uint16",
							"name": "maxSellPercent",
							"type": "uint16"
						},
						{
							"internalType": "address",
							"name": "teamWallet",
							"type": "address"
						},
						{
							"internalType": "uint256",
							"name": "startTime",
							"type": "uint256"
						},
						{
							"internalType": "uint256",
							"name": "endTime",
							"type": "uint256"
						}
					],
					"indexed": false,
					"internalType": "struct Parameters",
					"name": "paras",
					"type": "tuple"
				}
			],
			"name": "CrowdfundingCreated",
			"type": "event"
		},
		{
			"anonymous": false,
			"inputs": [
				{
					"indexed": true,
					"internalType": "address",
					"name": "previousOwner",
					"type": "address"
				},
				{
					"indexed": true,
					"internalType": "address",
					"name": "newOwner",
					"type": "address"
				}
			],
			"name": "OwnershipTransferred",
			"type": "event"
		},
		{
			"inputs": [
				{
					"internalType": "address",
					"name": "_sellToken",
					"type": "address"
				},
				{
					"internalType": "address",
					"name": "_buyToken",
					"type": "address"
				},
				{
					"internalType": "uint256",
					"name": "_raiseTotal",
					"type": "uint256"
				},
				{
					"internalType": "uint256",
					"name": "_buyPrice",
					"type": "uint256"
				},
				{
					"internalType": "uint16",
					"name": "_swapPercent",
					"type": "uint16"
				},
				{
					"internalType": "uint16",
					"name": "_sellTax",
					"type": "uint16"
				},
				{
					"internalType": "uint256",
					"name": "_maxBuyAmount",
					"type": "uint256"
				},
				{
					"internalType": "uint16",
					"name": "_maxSellPercent",
					"type": "uint16"
				},
				{
					"internalType": "address",
					"name": "_teamWallet",
					"type": "address"
				},
				{
					"internalType": "uint256",
					"name": "_startTime",
					"type": "uint256"
				},
				{
					"internalType": "uint256",
					"name": "_endTime",
					"type": "uint256"
				}
			],
			"name": "createCrowdfundingContract",
			"outputs": [],
			"stateMutability": "nonpayable",
			"type": "function"
		},
		{
			"inputs": [],
			"name": "getDeployedCrowdfundingContracts",
			"outputs": [
				{
					"internalType": "address[]",
					"name": "",
					"type": "address[]"
				}
			],
			"stateMutability": "view",
			"type": "function"
		},
		{
			"inputs": [],
			"name": "owner",
			"outputs": [
				{
					"internalType": "address",
					"name": "",
					"type": "address"
				}
			],
			"stateMutability": "view",
			"type": "function"
		},
		{
			"inputs": [],
			"name": "renounceOwnership",
			"outputs": [],
			"stateMutability": "nonpayable",
			"type": "function"
		},
		{
			"inputs": [
				{
					"internalType": "address",
					"name": "newOwner",
					"type": "address"
				}
			],
			"name": "transferOwnership",
			"outputs": [],
			"stateMutability": "nonpayable",
			"type": "function"
		}
	]
}