{
	"data": {
		"bytecode": {
			"linkReferences": {},
			"object": "608060405234801561001057600080fd5b50336000806101000a81548173ffffffffffffffffffffffffffffffffffffffff021916908373ffffffffffffffffffffffffffffffffffffffff160217905550336000806101000a81548173ffffffffffffffffffffffffffffffffffffffff021916908373ffffffffffffffffffffffffffffffffffffffff160217905550611566806100a06000396000f3fe6080604052600436106100435760003560e01c806314da447f14610052578063baa143ed1461007b578063f2fde38b14610097578063f86025c3146100c05761004d565b3661004d57600080fd5b600080fd5b34801561005e57600080fd5b506100796004803603810190610074919061080f565b610102565b005b61009560048036038101906100909190610885565b610177565b005b3480156100a357600080fd5b506100be60048036038101906100b991906107e2565b6102d7565b005b3480156100cc57600080fd5b506100e760048036038101906100e2919061083c565b6103af565b6040516100f996959493929190610b70565b60405180910390f35b60008054906101000a900473ffffffffffffffffffffffffffffffffffffffff1673ffffffffffffffffffffffffffffffffffffffff163373ffffffffffffffffffffffffffffffffffffffff161461015e5761015d611196565b5b8073ffffffffffffffffffffffffffffffffffffffff16ff5b60008180600001906101899190610c4d565b905014156101cc576040517f08c379a00000000000000000000000000000000000000000000000000000000081526004016101c390610c0d565b60405180910390fd5b60028180600001906101de9190610c4d565b6040516101ec929190610b10565b908152602001604051809103902060050160009054906101000a900460ff161561024b576040517f08c379a000000000000000000000000000000000000000000000000000000000815260040161024290610c2d565b60405180910390fd5b80600282806000019061025e9190610c4d565b60405161026c929190610b10565b90815260200160405180910390208181610286919061148f565b9050507f822c16987e5c88fd1ec8ce2935c0b5daf646231496d234745d143a9b626739738180600001906102ba9190610c4d565b83336040516102cc9493929190610b29565b60405180910390a150565b60008054906101000a900473ffffffffffffffffffffffffffffffffffffffff1673ffffffffffffffffffffffffffffffffffffffff163373ffffffffffffffffffffffffffffffffffffffff161461033357610332611196565b5b600073ffffffffffffffffffffffffffffffffffffffff168173ffffffffffffffffffffffffffffffffffffffff1614156103a3576040517f08c379a000000000000000000000000000000000000000000000000000000000815260040161039a90610bed565b60405180910390fd5b6103ac8161063b565b50565b6002818051602081018201805184825260208301602085012081835280955050505050506000915090508060000180546103e8906110f9565b80601f0160208091040260200160405190810160405280929190818152602001828054610414906110f9565b80156104615780601f1061043657610100808354040283529160200191610461565b820191906000526020600020905b81548152906001019060200180831161044457829003601f168201915b5050505050908060010160009054906101000a900460ff1690806002018054610489906110f9565b80601f01602080910402602001604051908101604052809291908181526020018280546104b5906110f9565b80156105025780601f106104d757610100808354040283529160200191610502565b820191906000526020600020905b8154815290600101906020018083116104e557829003601f168201915b505050505090806003018054610517906110f9565b80601f0160208091040260200160405190810160405280929190818152602001828054610543906110f9565b80156105905780601f1061056557610100808354040283529160200191610590565b820191906000526020600020905b81548152906001019060200180831161057357829003601f168201915b5050505050908060040180546105a5906110f9565b80601f01602080910402602001604051908101604052809291908181526020018280546105d1906110f9565b801561061e5780601f106105f35761010080835404028352916020019161061e565b820191906000526020600020905b81548152906001019060200180831161060157829003601f168201915b5050505050908060050160009054906101000a900460ff16905086565b60008060009054906101000a900473ffffffffffffffffffffffffffffffffffffffff169050816000806101000a81548173ffffffffffffffffffffffffffffffffffffffff021916908373ffffffffffffffffffffffffffffffffffffffff1602179055508173ffffffffffffffffffffffffffffffffffffffff168173ffffffffffffffffffffffffffffffffffffffff167f8be0079c531659141344cd1fd0a4f28419497f9722a3daafe3b4186f6b6457e060405160405180910390a35050565b600061071261070d84610cd5565b610cb0565b90508281526020810184848401111561072e5761072d6112bf565b5b610739848285610fdd565b509392505050565b600081359050610750816114d6565b92915050565b600081359050610765816114ed565b92915050565b60008135905061077a81611504565b92915050565b60008135905061078f8161151b565b92915050565b600082601f8301126107aa576107a96112a1565b5b81356107ba8482602086016106ff565b91505092915050565b600060c082840312156107d9576107d86112ab565b5b81905092915050565b6000602082840312156107f8576107f76112ce565b5b600061080684828501610741565b91505092915050565b600060208284031215610825576108246112ce565b5b600061083384828501610756565b91505092915050565b600060208284031215610852576108516112ce565b5b600082013567ffffffffffffffff8111156108705761086f6112c4565b5b61087c84828501610795565b91505092915050565b60006020828403121561089b5761089a6112ce565b5b600082013567ffffffffffffffff8111156108b9576108b86112c4565b5b6108c5848285016107c3565b91505092915050565b6108d781610e35565b82525050565b6108e681610e59565b82525050565b6108f581610e59565b82525050565b61090481610ee9565b82525050565b61091381610ee9565b82525050565b60006109258385610d31565b9350610932838584610fdd565b61093b836112d3565b840190509392505050565b60006109528385610d42565b935061095f838584610fdd565b610968836112d3565b840190509392505050565b600061097f8385610d53565b935061098c838584610fdd565b82840190509392505050565b60006109a382610d26565b6109ad8185610d42565b93506109bd818560208601610fec565b6109c6816112d3565b840191505092915050565b60006109de602683610d42565b91506109e982611323565b604082019050919050565b6000610a01601483610d42565b9150610a0c82611372565b602082019050919050565b6000610a24601a83610d42565b9150610a2f8261139b565b602082019050919050565b600060c08301610a4d6000840184610d8c565b8583036000870152610a60838284610919565b92505050610a716020840184610d75565b610a7e60208601826108fb565b50610a8c6040840184610d8c565b8583036040870152610a9f838284610919565b92505050610ab06060840184610d8c565b8583036060870152610ac3838284610919565b92505050610ad46080840184610d8c565b8583036080870152610ae7838284610919565b92505050610af860a0840184610d5e565b610b0560a08601826108dd565b508091505092915050565b6000610b1d828486610973565b91508190509392505050565b60006060820190508181036000830152610b44818688610946565b90508181036020830152610b588185610a3a565b9050610b6760408301846108ce565b95945050505050565b600060c0820190508181036000830152610b8a8189610998565b9050610b99602083018861090a565b8181036040830152610bab8187610998565b90508181036060830152610bbf8186610998565b90508181036080830152610bd38185610998565b9050610be260a08301846108ec565b979650505050505050565b60006020820190508181036000830152610c06816109d1565b9050919050565b60006020820190508181036000830152610c26816109f4565b9050919050565b60006020820190508181036000830152610c4681610a17565b9050919050565b60008083356001602003843603038112610c6a57610c696112b0565b5b80840192508235915067ffffffffffffffff821115610c8c57610c8b6112a6565b5b602083019250600182023603831315610ca857610ca76112ba565b5b509250929050565b6000610cba610ccb565b9050610cc68282611147565b919050565b6000604051905090565b600067ffffffffffffffff821115610cf057610cef611223565b5b610cf9826112d3565b9050602081019050919050565b60008190508160005260206000209050919050565b600082905092915050565b600081519050919050565b600082825260208201905092915050565b600082825260208201905092915050565b600081905092915050565b6000610d6d602084018461076b565b905092915050565b6000610d846020840184610780565b905092915050565b60008083356001602003843603038112610da957610da86112c9565b5b83810192508235915060208301925067ffffffffffffffff821115610dd157610dd061129c565b5b600182023603841315610de757610de66112b5565b5b509250929050565b601f821115610e3057610e0181610d06565b610e0a846110e9565b81016020851015610e19578190505b610e2d610e25856110e9565b830182610ea2565b50505b505050565b6000610e4082610e78565b9050919050565b6000610e5282610e78565b9050919050565b60008115159050919050565b6000819050610e73826114c2565b919050565b600073ffffffffffffffffffffffffffffffffffffffff82169050919050565b6000819050919050565b5b81811015610ec157610eb660008261130b565b600181019050610ea3565b5050565b6000610ed082610e59565b9050919050565b6000610ee282610e65565b9050919050565b6000610ef482610e65565b9050919050565b6000610f0682610e98565b9050919050565b610f178383610d1b565b67ffffffffffffffff811115610f3057610f2f611223565b5b610f3a82546110f9565b610f45828285610def565b6000601f831160018114610f745760008415610f62578287013590505b610f6c858261112b565b865550610fd4565b601f198416610f8286610d06565b60005b82811015610faa57848901358255600182019150602085019450602081019050610f85565b86831015610fc75784890135610fc3601f891682611178565b8355505b6001600288020188555050505b50505050505050565b82818337600083830152505050565b60005b8381101561100a578082015181840152602081019050610fef565b83811115611019576000848401525b50505050565b60008101600083016110318185610c4d565b61103c81838661147f565b5050505060018101602083018061105281611286565b905061105e818461145c565b50505060028101604083016110738185610c4d565b61107e81838661147f565b5050505060038101606083016110948185610c4d565b61109f81838661147f565b5050505060048101608083016110b58185610c4d565b6110c081838661147f565b505050506005810160a08301806110d681611270565b90506110e28184611439565b5050505050565b60006020601f8301049050919050565b6000600282049050600182168061111157607f821691505b60208210811415611125576111246111f4565b5b50919050565b60006111378383611178565b9150826002028217905092915050565b611150826112d3565b810181811067ffffffffffffffff8211171561116f5761116e611223565b5b80604052505050565b6000611189600019846008026112fe565b1980831691505092915050565b7f4e487b7100000000000000000000000000000000000000000000000000000000600052600160045260246000fd5b7f4e487b7100000000000000000000000000000000000000000000000000000000600052602160045260246000fd5b7f4e487b7100000000000000000000000000000000000000000000000000000000600052602260045260246000fd5b7f4e487b7100000000000000000000000000000000000000000000000000000000600052604160045260246000fd5b6000819050919050565b6000819050919050565b6000819050919050565b6000813561127d81611504565b80915050919050565b600081356112938161151b565b80915050919050565b600080fd5b600080fd5b600080fd5b600080fd5b600080fd5b600080fd5b600080fd5b600080fd5b600080fd5b600080fd5b600080fd5b6000601f19601f8301169050919050565b60008160001b9050919050565b600082821b905092915050565b600082821c905092915050565b61131361152b565b61131e81848461149d565b505050565b7f4f776e61626c653a206e6577206f776e657220697320746865207a65726f206160008201527f6464726573730000000000000000000000000000000000000000000000000000602082015250565b7f6e616d652063616e206e6f74206265206e756c6c000000000000000000000000600082015250565b7f73746172747570206e616d6520686173206265656e2075736564000000000000600082015250565b600060ff6113d1846112e4565b9350801983169250808416831791505092915050565b6000600883026114177fffffffffffffffffffffffffffffffffffffffffffffffffffffffffffffffff826112f1565b61142186836112f1565b95508019841693508086168417925050509392505050565b61144282610ec5565b61145561144e82611252565b83546113c4565b8255505050565b61146582610ed7565b6114786114718261125c565b83546113c4565b8255505050565b61148a838383610f0d565b505050565b611499828261101f565b5050565b6114a683610efb565b6114ba6114b282611266565b8484546113e7565b825550505050565b600581106114d3576114d26111c5565b5b50565b6114df81610e35565b81146114ea57600080fd5b50565b6114f681610e47565b811461150157600080fd5b50565b61150d81610e59565b811461151857600080fd5b50565b6005811061152857600080fd5b50565b60009056fea264697066735822122072b9786f8ea7f3ff7ee39405d3cb9ad1a938a6c96583db449e94b034f594488764736f6c63430008070033",
			"opcodes": "PUSH1 0x80 PUSH1 0x40 MSTORE CALLVALUE DUP1 ISZERO PUSH2 0x10 JUMPI PUSH1 0x0 DUP1 REVERT JUMPDEST POP CALLER PUSH1 0x0 DUP1 PUSH2 0x100 EXP DUP2 SLOAD DUP2 PUSH20 0xFFFFFFFFFFFFFFFFFFFFFFFFFFFFFFFFFFFFFFFF MUL NOT AND SWAP1 DUP4 PUSH20 0xFFFFFFFFFFFFFFFFFFFFFFFFFFFFFFFFFFFFFFFF AND MUL OR SWAP1 SSTORE POP CALLER PUSH1 0x0 DUP1 PUSH2 0x100 EXP DUP2 SLOAD DUP2 PUSH20 0xFFFFFFFFFFFFFFFFFFFFFFFFFFFFFFFFFFFFFFFF MUL NOT AND SWAP1 DUP4 PUSH20 0xFFFFFFFFFFFFFFFFFFFFFFFFFFFFFFFFFFFFFFFF AND MUL OR SWAP1 SSTORE POP PUSH2 0x1566 DUP1 PUSH2 0xA0 PUSH1 0x0 CODECOPY PUSH1 0x0 RETURN INVALID PUSH1 0x80 PUSH1 0x40 MSTORE PUSH1 0x4 CALLDATASIZE LT PUSH2 0x43 JUMPI PUSH1 0x0 CALLDATALOAD PUSH1 0xE0 SHR DUP1 PUSH4 0x14DA447F EQ PUSH2 0x52 JUMPI DUP1 PUSH4 0xBAA143ED EQ PUSH2 0x7B JUMPI DUP1 PUSH4 0xF2FDE38B EQ PUSH2 0x97 JUMPI DUP1 PUSH4 0xF86025C3 EQ PUSH2 0xC0 JUMPI PUSH2 0x4D JUMP JUMPDEST CALLDATASIZE PUSH2 0x4D JUMPI PUSH1 0x0 DUP1 REVERT JUMPDEST PUSH1 0x0 DUP1 REVERT JUMPDEST CALLVALUE DUP1 ISZERO PUSH2 0x5E JUMPI PUSH1 0x0 DUP1 REVERT JUMPDEST POP PUSH2 0x79 PUSH1 0x4 DUP1 CALLDATASIZE SUB DUP2 ADD SWAP1 PUSH2 0x74 SWAP2 SWAP1 PUSH2 0x80F JUMP JUMPDEST PUSH2 0x102 JUMP JUMPDEST STOP JUMPDEST PUSH2 0x95 PUSH1 0x4 DUP1 CALLDATASIZE SUB DUP2 ADD SWAP1 PUSH2 0x90 SWAP2 SWAP1 PUSH2 0x885 JUMP JUMPDEST PUSH2 0x177 JUMP JUMPDEST STOP JUMPDEST CALLVALUE DUP1 ISZERO PUSH2 0xA3 JUMPI PUSH1 0x0 DUP1 REVERT JUMPDEST POP PUSH2 0xBE PUSH1 0x4 DUP1 CALLDATASIZE SUB DUP2 ADD SWAP1 PUSH2 0xB9 SWAP2 SWAP1 PUSH2 0x7E2 JUMP JUMPDEST PUSH2 0x2D7 JUMP JUMPDEST STOP JUMPDEST CALLVALUE DUP1 ISZERO PUSH2 0xCC JUMPI PUSH1 0x0 DUP1 REVERT JUMPDEST POP PUSH2 0xE7 PUSH1 0x4 DUP1 CALLDATASIZE SUB DUP2 ADD SWAP1 PUSH2 0xE2 SWAP2 SWAP1 PUSH2 0x83C JUMP JUMPDEST PUSH2 0x3AF JUMP JUMPDEST PUSH1 0x40 MLOAD PUSH2 0xF9 SWAP7 SWAP6 SWAP5 SWAP4 SWAP3 SWAP2 SWAP1 PUSH2 0xB70 JUMP JUMPDEST PUSH1 0x40 MLOAD DUP1 SWAP2 SUB SWAP1 RETURN JUMPDEST PUSH1 0x0 DUP1 SLOAD SWAP1 PUSH2 0x100 EXP SWAP1 DIV PUSH20 0xFFFFFFFFFFFFFFFFFFFFFFFFFFFFFFFFFFFFFFFF AND PUSH20 0xFFFFFFFFFFFFFFFFFFFFFFFFFFFFFFFFFFFFFFFF AND CALLER PUSH20 0xFFFFFFFFFFFFFFFFFFFFFFFFFFFFFFFFFFFFFFFF AND EQ PUSH2 0x15E JUMPI PUSH2 0x15D PUSH2 0x1196 JUMP JUMPDEST JUMPDEST DUP1 PUSH20 0xFFFFFFFFFFFFFFFFFFFFFFFFFFFFFFFFFFFFFFFF AND SELFDESTRUCT JUMPDEST PUSH1 0x0 DUP2 DUP1 PUSH1 0x0 ADD SWAP1 PUSH2 0x189 SWAP2 SWAP1 PUSH2 0xC4D JUMP JUMPDEST SWAP1 POP EQ ISZERO PUSH2 0x1CC JUMPI PUSH1 0x40 MLOAD PUSH32 0x8C379A000000000000000000000000000000000000000000000000000000000 DUP2 MSTORE PUSH1 0x4 ADD PUSH2 0x1C3 SWAP1 PUSH2 0xC0D JUMP JUMPDEST PUSH1 0x40 MLOAD DUP1 SWAP2 SUB SWAP1 REVERT JUMPDEST PUSH1 0x2 DUP2 DUP1 PUSH1 0x0 ADD SWAP1 PUSH2 0x1DE SWAP2 SWAP1 PUSH2 0xC4D JUMP JUMPDEST PUSH1 0x40 MLOAD PUSH2 0x1EC SWAP3 SWAP2 SWAP1 PUSH2 0xB10 JUMP JUMPDEST SWAP1 DUP2 MSTORE PUSH1 0x20 ADD PUSH1 0x40 MLOAD DUP1 SWAP2 SUB SWAP1 KECCAK256 PUSH1 0x5 ADD PUSH1 0x0 SWAP1 SLOAD SWAP1 PUSH2 0x100 EXP SWAP1 DIV PUSH1 0xFF AND ISZERO PUSH2 0x24B JUMPI PUSH1 0x40 MLOAD PUSH32 0x8C379A000000000000000000000000000000000000000000000000000000000 DUP2 MSTORE PUSH1 0x4 ADD PUSH2 0x242 SWAP1 PUSH2 0xC2D JUMP JUMPDEST PUSH1 0x40 MLOAD DUP1 SWAP2 SUB SWAP1 REVERT JUMPDEST DUP1 PUSH1 0x2 DUP3 DUP1 PUSH1 0x0 ADD SWAP1 PUSH2 0x25E SWAP2 SWAP1 PUSH2 0xC4D JUMP JUMPDEST PUSH1 0x40 MLOAD PUSH2 0x26C SWAP3 SWAP2 SWAP1 PUSH2 0xB10 JUMP JUMPDEST SWAP1 DUP2 MSTORE PUSH1 0x20 ADD PUSH1 0x40 MLOAD DUP1 SWAP2 SUB SWAP1 KECCAK256 DUP2 DUP2 PUSH2 0x286 SWAP2 SWAP1 PUSH2 0x148F JUMP JUMPDEST SWAP1 POP POP PUSH32 0x822C16987E5C88FD1EC8CE2935C0B5DAF646231496D234745D143A9B62673973 DUP2 DUP1 PUSH1 0x0 ADD SWAP1 PUSH2 0x2BA SWAP2 SWAP1 PUSH2 0xC4D JUMP JUMPDEST DUP4 CALLER PUSH1 0x40 MLOAD PUSH2 0x2CC SWAP5 SWAP4 SWAP3 SWAP2 SWAP1 PUSH2 0xB29 JUMP JUMPDEST PUSH1 0x40 MLOAD DUP1 SWAP2 SUB SWAP1 LOG1 POP JUMP JUMPDEST PUSH1 0x0 DUP1 SLOAD SWAP1 PUSH2 0x100 EXP SWAP1 DIV PUSH20 0xFFFFFFFFFFFFFFFFFFFFFFFFFFFFFFFFFFFFFFFF AND PUSH20 0xFFFFFFFFFFFFFFFFFFFFFFFFFFFFFFFFFFFFFFFF AND CALLER PUSH20 0xFFFFFFFFFFFFFFFFFFFFFFFFFFFFFFFFFFFFFFFF AND EQ PUSH2 0x333 JUMPI PUSH2 0x332 PUSH2 0x1196 JUMP JUMPDEST JUMPDEST PUSH1 0x0 PUSH20 0xFFFFFFFFFFFFFFFFFFFFFFFFFFFFFFFFFFFFFFFF AND DUP2 PUSH20 0xFFFFFFFFFFFFFFFFFFFFFFFFFFFFFFFFFFFFFFFF AND EQ ISZERO PUSH2 0x3A3 JUMPI PUSH1 0x40 MLOAD PUSH32 0x8C379A000000000000000000000000000000000000000000000000000000000 DUP2 MSTORE PUSH1 0x4 ADD PUSH2 0x39A SWAP1 PUSH2 0xBED JUMP JUMPDEST PUSH1 0x40 MLOAD DUP1 SWAP2 SUB SWAP1 REVERT JUMPDEST PUSH2 0x3AC DUP2 PUSH2 0x63B JUMP JUMPDEST POP JUMP JUMPDEST PUSH1 0x2 DUP2 DUP1 MLOAD PUSH1 0x20 DUP2 ADD DUP3 ADD DUP1 MLOAD DUP5 DUP3 MSTORE PUSH1 0x20 DUP4 ADD PUSH1 0x20 DUP6 ADD KECCAK256 DUP2 DUP4 MSTORE DUP1 SWAP6 POP POP POP POP POP POP PUSH1 0x0 SWAP2 POP SWAP1 POP DUP1 PUSH1 0x0 ADD DUP1 SLOAD PUSH2 0x3E8 SWAP1 PUSH2 0x10F9 JUMP JUMPDEST DUP1 PUSH1 0x1F ADD PUSH1 0x20 DUP1 SWAP2 DIV MUL PUSH1 0x20 ADD PUSH1 0x40 MLOAD SWAP1 DUP2 ADD PUSH1 0x40 MSTORE DUP1 SWAP3 SWAP2 SWAP1 DUP2 DUP2 MSTORE PUSH1 0x20 ADD DUP3 DUP1 SLOAD PUSH2 0x414 SWAP1 PUSH2 0x10F9 JUMP JUMPDEST DUP1 ISZERO PUSH2 0x461 JUMPI DUP1 PUSH1 0x1F LT PUSH2 0x436 JUMPI PUSH2 0x100 DUP1 DUP4 SLOAD DIV MUL DUP4 MSTORE SWAP2 PUSH1 0x20 ADD SWAP2 PUSH2 0x461 JUMP JUMPDEST DUP3 ADD SWAP2 SWAP1 PUSH1 0x0 MSTORE PUSH1 0x20 PUSH1 0x0 KECCAK256 SWAP1 JUMPDEST DUP2 SLOAD DUP2 MSTORE SWAP1 PUSH1 0x1 ADD SWAP1 PUSH1 0x20 ADD DUP1 DUP4 GT PUSH2 0x444 JUMPI DUP3 SWAP1 SUB PUSH1 0x1F AND DUP3 ADD SWAP2 JUMPDEST POP POP POP POP POP SWAP1 DUP1 PUSH1 0x1 ADD PUSH1 0x0 SWAP1 SLOAD SWAP1 PUSH2 0x100 EXP SWAP1 DIV PUSH1 0xFF AND SWAP1 DUP1 PUSH1 0x2 ADD DUP1 SLOAD PUSH2 0x489 SWAP1 PUSH2 0x10F9 JUMP JUMPDEST DUP1 PUSH1 0x1F ADD PUSH1 0x20 DUP1 SWAP2 DIV MUL PUSH1 0x20 ADD PUSH1 0x40 MLOAD SWAP1 DUP2 ADD PUSH1 0x40 MSTORE DUP1 SWAP3 SWAP2 SWAP1 DUP2 DUP2 MSTORE PUSH1 0x20 ADD DUP3 DUP1 SLOAD PUSH2 0x4B5 SWAP1 PUSH2 0x10F9 JUMP JUMPDEST DUP1 ISZERO PUSH2 0x502 JUMPI DUP1 PUSH1 0x1F LT PUSH2 0x4D7 JUMPI PUSH2 0x100 DUP1 DUP4 SLOAD DIV MUL DUP4 MSTORE SWAP2 PUSH1 0x20 ADD SWAP2 PUSH2 0x502 JUMP JUMPDEST DUP3 ADD SWAP2 SWAP1 PUSH1 0x0 MSTORE PUSH1 0x20 PUSH1 0x0 KECCAK256 SWAP1 JUMPDEST DUP2 SLOAD DUP2 MSTORE SWAP1 PUSH1 0x1 ADD SWAP1 PUSH1 0x20 ADD DUP1 DUP4 GT PUSH2 0x4E5 JUMPI DUP3 SWAP1 SUB PUSH1 0x1F AND DUP3 ADD SWAP2 JUMPDEST POP POP POP POP POP SWAP1 DUP1 PUSH1 0x3 ADD DUP1 SLOAD PUSH2 0x517 SWAP1 PUSH2 0x10F9 JUMP JUMPDEST DUP1 PUSH1 0x1F ADD PUSH1 0x20 DUP1 SWAP2 DIV MUL PUSH1 0x20 ADD PUSH1 0x40 MLOAD SWAP1 DUP2 ADD PUSH1 0x40 MSTORE DUP1 SWAP3 SWAP2 SWAP1 DUP2 DUP2 MSTORE PUSH1 0x20 ADD DUP3 DUP1 SLOAD PUSH2 0x543 SWAP1 PUSH2 0x10F9 JUMP JUMPDEST DUP1 ISZERO PUSH2 0x590 JUMPI DUP1 PUSH1 0x1F LT PUSH2 0x565 JUMPI PUSH2 0x100 DUP1 DUP4 SLOAD DIV MUL DUP4 MSTORE SWAP2 PUSH1 0x20 ADD SWAP2 PUSH2 0x590 JUMP JUMPDEST DUP3 ADD SWAP2 SWAP1 PUSH1 0x0 MSTORE PUSH1 0x20 PUSH1 0x0 KECCAK256 SWAP1 JUMPDEST DUP2 SLOAD DUP2 MSTORE SWAP1 PUSH1 0x1 ADD SWAP1 PUSH1 0x20 ADD DUP1 DUP4 GT PUSH2 0x573 JUMPI DUP3 SWAP1 SUB PUSH1 0x1F AND DUP3 ADD SWAP2 JUMPDEST POP POP POP POP POP SWAP1 DUP1 PUSH1 0x4 ADD DUP1 SLOAD PUSH2 0x5A5 SWAP1 PUSH2 0x10F9 JUMP JUMPDEST DUP1 PUSH1 0x1F ADD PUSH1 0x20 DUP1 SWAP2 DIV MUL PUSH1 0x20 ADD PUSH1 0x40 MLOAD SWAP1 DUP2 ADD PUSH1 0x40 MSTORE DUP1 SWAP3 SWAP2 SWAP1 DUP2 DUP2 MSTORE PUSH1 0x20 ADD DUP3 DUP1 SLOAD PUSH2 0x5D1 SWAP1 PUSH2 0x10F9 JUMP JUMPDEST DUP1 ISZERO PUSH2 0x61E JUMPI DUP1 PUSH1 0x1F LT PUSH2 0x5F3 JUMPI PUSH2 0x100 DUP1 DUP4 SLOAD DIV MUL DUP4 MSTORE SWAP2 PUSH1 0x20 ADD SWAP2 PUSH2 0x61E JUMP JUMPDEST DUP3 ADD SWAP2 SWAP1 PUSH1 0x0 MSTORE PUSH1 0x20 PUSH1 0x0 KECCAK256 SWAP1 JUMPDEST DUP2 SLOAD DUP2 MSTORE SWAP1 PUSH1 0x1 ADD SWAP1 PUSH1 0x20 ADD DUP1 DUP4 GT PUSH2 0x601 JUMPI DUP3 SWAP1 SUB PUSH1 0x1F AND DUP3 ADD SWAP2 JUMPDEST POP POP POP POP POP SWAP1 DUP1 PUSH1 0x5 ADD PUSH1 0x0 SWAP1 SLOAD SWAP1 PUSH2 0x100 EXP SWAP1 DIV PUSH1 0xFF AND SWAP1 POP DUP7 JUMP JUMPDEST PUSH1 0x0 DUP1 PUSH1 0x0 SWAP1 SLOAD SWAP1 PUSH2 0x100 EXP SWAP1 DIV PUSH20 0xFFFFFFFFFFFFFFFFFFFFFFFFFFFFFFFFFFFFFFFF AND SWAP1 POP DUP2 PUSH1 0x0 DUP1 PUSH2 0x100 EXP DUP2 SLOAD DUP2 PUSH20 0xFFFFFFFFFFFFFFFFFFFFFFFFFFFFFFFFFFFFFFFF MUL NOT AND SWAP1 DUP4 PUSH20 0xFFFFFFFFFFFFFFFFFFFFFFFFFFFFFFFFFFFFFFFF AND MUL OR SWAP1 SSTORE POP DUP2 PUSH20 0xFFFFFFFFFFFFFFFFFFFFFFFFFFFFFFFFFFFFFFFF AND DUP2 PUSH20 0xFFFFFFFFFFFFFFFFFFFFFFFFFFFFFFFFFFFFFFFF AND PUSH32 0x8BE0079C531659141344CD1FD0A4F28419497F9722A3DAAFE3B4186F6B6457E0 PUSH1 0x40 MLOAD PUSH1 0x40 MLOAD DUP1 SWAP2 SUB SWAP1 LOG3 POP POP JUMP JUMPDEST PUSH1 0x0 PUSH2 0x712 PUSH2 0x70D DUP5 PUSH2 0xCD5 JUMP JUMPDEST PUSH2 0xCB0 JUMP JUMPDEST SWAP1 POP DUP3 DUP2 MSTORE PUSH1 0x20 DUP2 ADD DUP5 DUP5 DUP5 ADD GT ISZERO PUSH2 0x72E JUMPI PUSH2 0x72D PUSH2 0x12BF JUMP JUMPDEST JUMPDEST PUSH2 0x739 DUP5 DUP3 DUP6 PUSH2 0xFDD JUMP JUMPDEST POP SWAP4 SWAP3 POP POP POP JUMP JUMPDEST PUSH1 0x0 DUP2 CALLDATALOAD SWAP1 POP PUSH2 0x750 DUP2 PUSH2 0x14D6 JUMP JUMPDEST SWAP3 SWAP2 POP POP JUMP JUMPDEST PUSH1 0x0 DUP2 CALLDATALOAD SWAP1 POP PUSH2 0x765 DUP2 PUSH2 0x14ED JUMP JUMPDEST SWAP3 SWAP2 POP POP JUMP JUMPDEST PUSH1 0x0 DUP2 CALLDATALOAD SWAP1 POP PUSH2 0x77A DUP2 PUSH2 0x1504 JUMP JUMPDEST SWAP3 SWAP2 POP POP JUMP JUMPDEST PUSH1 0x0 DUP2 CALLDATALOAD SWAP1 POP PUSH2 0x78F DUP2 PUSH2 0x151B JUMP JUMPDEST SWAP3 SWAP2 POP POP JUMP JUMPDEST PUSH1 0x0 DUP3 PUSH1 0x1F DUP4 ADD SLT PUSH2 0x7AA JUMPI PUSH2 0x7A9 PUSH2 0x12A1 JUMP JUMPDEST JUMPDEST DUP2 CALLDATALOAD PUSH2 0x7BA DUP5 DUP3 PUSH1 0x20 DUP7 ADD PUSH2 0x6FF JUMP JUMPDEST SWAP2 POP POP SWAP3 SWAP2 POP POP JUMP JUMPDEST PUSH1 0x0 PUSH1 0xC0 DUP3 DUP5 SUB SLT ISZERO PUSH2 0x7D9 JUMPI PUSH2 0x7D8 PUSH2 0x12AB JUMP JUMPDEST JUMPDEST DUP2 SWAP1 POP SWAP3 SWAP2 POP POP JUMP JUMPDEST PUSH1 0x0 PUSH1 0x20 DUP3 DUP5 SUB SLT ISZERO PUSH2 0x7F8 JUMPI PUSH2 0x7F7 PUSH2 0x12CE JUMP JUMPDEST JUMPDEST PUSH1 0x0 PUSH2 0x806 DUP5 DUP3 DUP6 ADD PUSH2 0x741 JUMP JUMPDEST SWAP2 POP POP SWAP3 SWAP2 POP POP JUMP JUMPDEST PUSH1 0x0 PUSH1 0x20 DUP3 DUP5 SUB SLT ISZERO PUSH2 0x825 JUMPI PUSH2 0x824 PUSH2 0x12CE JUMP JUMPDEST JUMPDEST PUSH1 0x0 PUSH2 0x833 DUP5 DUP3 DUP6 ADD PUSH2 0x756 JUMP JUMPDEST SWAP2 POP POP SWAP3 SWAP2 POP POP JUMP JUMPDEST PUSH1 0x0 PUSH1 0x20 DUP3 DUP5 SUB SLT ISZERO PUSH2 0x852 JUMPI PUSH2 0x851 PUSH2 0x12CE JUMP JUMPDEST JUMPDEST PUSH1 0x0 DUP3 ADD CALLDATALOAD PUSH8 0xFFFFFFFFFFFFFFFF DUP2 GT ISZERO PUSH2 0x870 JUMPI PUSH2 0x86F PUSH2 0x12C4 JUMP JUMPDEST JUMPDEST PUSH2 0x87C DUP5 DUP3 DUP6 ADD PUSH2 0x795 JUMP JUMPDEST SWAP2 POP POP SWAP3 SWAP2 POP POP JUMP JUMPDEST PUSH1 0x0 PUSH1 0x20 DUP3 DUP5 SUB SLT ISZERO PUSH2 0x89B JUMPI PUSH2 0x89A PUSH2 0x12CE JUMP JUMPDEST JUMPDEST PUSH1 0x0 DUP3 ADD CALLDATALOAD PUSH8 0xFFFFFFFFFFFFFFFF DUP2 GT ISZERO PUSH2 0x8B9 JUMPI PUSH2 0x8B8 PUSH2 0x12C4 JUMP JUMPDEST JUMPDEST PUSH2 0x8C5 DUP5 DUP3 DUP6 ADD PUSH2 0x7C3 JUMP JUMPDEST SWAP2 POP POP SWAP3 SWAP2 POP POP JUMP JUMPDEST PUSH2 0x8D7 DUP2 PUSH2 0xE35 JUMP JUMPDEST DUP3 MSTORE POP POP JUMP JUMPDEST PUSH2 0x8E6 DUP2 PUSH2 0xE59 JUMP JUMPDEST DUP3 MSTORE POP POP JUMP JUMPDEST PUSH2 0x8F5 DUP2 PUSH2 0xE59 JUMP JUMPDEST DUP3 MSTORE POP POP JUMP JUMPDEST PUSH2 0x904 DUP2 PUSH2 0xEE9 JUMP JUMPDEST DUP3 MSTORE POP POP JUMP JUMPDEST PUSH2 0x913 DUP2 PUSH2 0xEE9 JUMP JUMPDEST DUP3 MSTORE POP POP JUMP JUMPDEST PUSH1 0x0 PUSH2 0x925 DUP4 DUP6 PUSH2 0xD31 JUMP JUMPDEST SWAP4 POP PUSH2 0x932 DUP4 DUP6 DUP5 PUSH2 0xFDD JUMP JUMPDEST PUSH2 0x93B DUP4 PUSH2 0x12D3 JUMP JUMPDEST DUP5 ADD SWAP1 POP SWAP4 SWAP3 POP POP POP JUMP JUMPDEST PUSH1 0x0 PUSH2 0x952 DUP4 DUP6 PUSH2 0xD42 JUMP JUMPDEST SWAP4 POP PUSH2 0x95F DUP4 DUP6 DUP5 PUSH2 0xFDD JUMP JUMPDEST PUSH2 0x968 DUP4 PUSH2 0x12D3 JUMP JUMPDEST DUP5 ADD SWAP1 POP SWAP4 SWAP3 POP POP POP JUMP JUMPDEST PUSH1 0x0 PUSH2 0x97F DUP4 DUP6 PUSH2 0xD53 JUMP JUMPDEST SWAP4 POP PUSH2 0x98C DUP4 DUP6 DUP5 PUSH2 0xFDD JUMP JUMPDEST DUP3 DUP5 ADD SWAP1 POP SWAP4 SWAP3 POP POP POP JUMP JUMPDEST PUSH1 0x0 PUSH2 0x9A3 DUP3 PUSH2 0xD26 JUMP JUMPDEST PUSH2 0x9AD DUP2 DUP6 PUSH2 0xD42 JUMP JUMPDEST SWAP4 POP PUSH2 0x9BD DUP2 DUP6 PUSH1 0x20 DUP7 ADD PUSH2 0xFEC JUMP JUMPDEST PUSH2 0x9C6 DUP2 PUSH2 0x12D3 JUMP JUMPDEST DUP5 ADD SWAP2 POP POP SWAP3 SWAP2 POP POP JUMP JUMPDEST PUSH1 0x0 PUSH2 0x9DE PUSH1 0x26 DUP4 PUSH2 0xD42 JUMP JUMPDEST SWAP2 POP PUSH2 0x9E9 DUP3 PUSH2 0x1323 JUMP JUMPDEST PUSH1 0x40 DUP3 ADD SWAP1 POP SWAP2 SWAP1 POP JUMP JUMPDEST PUSH1 0x0 PUSH2 0xA01 PUSH1 0x14 DUP4 PUSH2 0xD42 JUMP JUMPDEST SWAP2 POP PUSH2 0xA0C DUP3 PUSH2 0x1372 JUMP JUMPDEST PUSH1 0x20 DUP3 ADD SWAP1 POP SWAP2 SWAP1 POP JUMP JUMPDEST PUSH1 0x0 PUSH2 0xA24 PUSH1 0x1A DUP4 PUSH2 0xD42 JUMP JUMPDEST SWAP2 POP PUSH2 0xA2F DUP3 PUSH2 0x139B JUMP JUMPDEST PUSH1 0x20 DUP3 ADD SWAP1 POP SWAP2 SWAP1 POP JUMP JUMPDEST PUSH1 0x0 PUSH1 0xC0 DUP4 ADD PUSH2 0xA4D PUSH1 0x0 DUP5 ADD DUP5 PUSH2 0xD8C JUMP JUMPDEST DUP6 DUP4 SUB PUSH1 0x0 DUP8 ADD MSTORE PUSH2 0xA60 DUP4 DUP3 DUP5 PUSH2 0x919 JUMP JUMPDEST SWAP3 POP POP POP PUSH2 0xA71 PUSH1 0x20 DUP5 ADD DUP5 PUSH2 0xD75 JUMP JUMPDEST PUSH2 0xA7E PUSH1 0x20 DUP7 ADD DUP3 PUSH2 0x8FB JUMP JUMPDEST POP PUSH2 0xA8C PUSH1 0x40 DUP5 ADD DUP5 PUSH2 0xD8C JUMP JUMPDEST DUP6 DUP4 SUB PUSH1 0x40 DUP8 ADD MSTORE PUSH2 0xA9F DUP4 DUP3 DUP5 PUSH2 0x919 JUMP JUMPDEST SWAP3 POP POP POP PUSH2 0xAB0 PUSH1 0x60 DUP5 ADD DUP5 PUSH2 0xD8C JUMP JUMPDEST DUP6 DUP4 SUB PUSH1 0x60 DUP8 ADD MSTORE PUSH2 0xAC3 DUP4 DUP3 DUP5 PUSH2 0x919 JUMP JUMPDEST SWAP3 POP POP POP PUSH2 0xAD4 PUSH1 0x80 DUP5 ADD DUP5 PUSH2 0xD8C JUMP JUMPDEST DUP6 DUP4 SUB PUSH1 0x80 DUP8 ADD MSTORE PUSH2 0xAE7 DUP4 DUP3 DUP5 PUSH2 0x919 JUMP JUMPDEST SWAP3 POP POP POP PUSH2 0xAF8 PUSH1 0xA0 DUP5 ADD DUP5 PUSH2 0xD5E JUMP JUMPDEST PUSH2 0xB05 PUSH1 0xA0 DUP7 ADD DUP3 PUSH2 0x8DD JUMP JUMPDEST POP DUP1 SWAP2 POP POP SWAP3 SWAP2 POP POP JUMP JUMPDEST PUSH1 0x0 PUSH2 0xB1D DUP3 DUP5 DUP7 PUSH2 0x973 JUMP JUMPDEST SWAP2 POP DUP2 SWAP1 POP SWAP4 SWAP3 POP POP POP JUMP JUMPDEST PUSH1 0x0 PUSH1 0x60 DUP3 ADD SWAP1 POP DUP2 DUP2 SUB PUSH1 0x0 DUP4 ADD MSTORE PUSH2 0xB44 DUP2 DUP7 DUP9 PUSH2 0x946 JUMP JUMPDEST SWAP1 POP DUP2 DUP2 SUB PUSH1 0x20 DUP4 ADD MSTORE PUSH2 0xB58 DUP2 DUP6 PUSH2 0xA3A JUMP JUMPDEST SWAP1 POP PUSH2 0xB67 PUSH1 0x40 DUP4 ADD DUP5 PUSH2 0x8CE JUMP JUMPDEST SWAP6 SWAP5 POP POP POP POP POP JUMP JUMPDEST PUSH1 0x0 PUSH1 0xC0 DUP3 ADD SWAP1 POP DUP2 DUP2 SUB PUSH1 0x0 DUP4 ADD MSTORE PUSH2 0xB8A DUP2 DUP10 PUSH2 0x998 JUMP JUMPDEST SWAP1 POP PUSH2 0xB99 PUSH1 0x20 DUP4 ADD DUP9 PUSH2 0x90A JUMP JUMPDEST DUP2 DUP2 SUB PUSH1 0x40 DUP4 ADD MSTORE PUSH2 0xBAB DUP2 DUP8 PUSH2 0x998 JUMP JUMPDEST SWAP1 POP DUP2 DUP2 SUB PUSH1 0x60 DUP4 ADD MSTORE PUSH2 0xBBF DUP2 DUP7 PUSH2 0x998 JUMP JUMPDEST SWAP1 POP DUP2 DUP2 SUB PUSH1 0x80 DUP4 ADD MSTORE PUSH2 0xBD3 DUP2 DUP6 PUSH2 0x998 JUMP JUMPDEST SWAP1 POP PUSH2 0xBE2 PUSH1 0xA0 DUP4 ADD DUP5 PUSH2 0x8EC JUMP JUMPDEST SWAP8 SWAP7 POP POP POP POP POP POP POP JUMP JUMPDEST PUSH1 0x0 PUSH1 0x20 DUP3 ADD SWAP1 POP DUP2 DUP2 SUB PUSH1 0x0 DUP4 ADD MSTORE PUSH2 0xC06 DUP2 PUSH2 0x9D1 JUMP JUMPDEST SWAP1 POP SWAP2 SWAP1 POP JUMP JUMPDEST PUSH1 0x0 PUSH1 0x20 DUP3 ADD SWAP1 POP DUP2 DUP2 SUB PUSH1 0x0 DUP4 ADD MSTORE PUSH2 0xC26 DUP2 PUSH2 0x9F4 JUMP JUMPDEST SWAP1 POP SWAP2 SWAP1 POP JUMP JUMPDEST PUSH1 0x0 PUSH1 0x20 DUP3 ADD SWAP1 POP DUP2 DUP2 SUB PUSH1 0x0 DUP4 ADD MSTORE PUSH2 0xC46 DUP2 PUSH2 0xA17 JUMP JUMPDEST SWAP1 POP SWAP2 SWAP1 POP JUMP JUMPDEST PUSH1 0x0 DUP1 DUP4 CALLDATALOAD PUSH1 0x1 PUSH1 0x20 SUB DUP5 CALLDATASIZE SUB SUB DUP2 SLT PUSH2 0xC6A JUMPI PUSH2 0xC69 PUSH2 0x12B0 JUMP JUMPDEST JUMPDEST DUP1 DUP5 ADD SWAP3 POP DUP3 CALLDATALOAD SWAP2 POP PUSH8 0xFFFFFFFFFFFFFFFF DUP3 GT ISZERO PUSH2 0xC8C JUMPI PUSH2 0xC8B PUSH2 0x12A6 JUMP JUMPDEST JUMPDEST PUSH1 0x20 DUP4 ADD SWAP3 POP PUSH1 0x1 DUP3 MUL CALLDATASIZE SUB DUP4 SGT ISZERO PUSH2 0xCA8 JUMPI PUSH2 0xCA7 PUSH2 0x12BA JUMP JUMPDEST JUMPDEST POP SWAP3 POP SWAP3 SWAP1 POP JUMP JUMPDEST PUSH1 0x0 PUSH2 0xCBA PUSH2 0xCCB JUMP JUMPDEST SWAP1 POP PUSH2 0xCC6 DUP3 DUP3 PUSH2 0x1147 JUMP JUMPDEST SWAP2 SWAP1 POP JUMP JUMPDEST PUSH1 0x0 PUSH1 0x40 MLOAD SWAP1 POP SWAP1 JUMP JUMPDEST PUSH1 0x0 PUSH8 0xFFFFFFFFFFFFFFFF DUP3 GT ISZERO PUSH2 0xCF0 JUMPI PUSH2 0xCEF PUSH2 0x1223 JUMP JUMPDEST JUMPDEST PUSH2 0xCF9 DUP3 PUSH2 0x12D3 JUMP JUMPDEST SWAP1 POP PUSH1 0x20 DUP2 ADD SWAP1 POP SWAP2 SWAP1 POP JUMP JUMPDEST PUSH1 0x0 DUP2 SWAP1 POP DUP2 PUSH1 0x0 MSTORE PUSH1 0x20 PUSH1 0x0 KECCAK256 SWAP1 POP SWAP2 SWAP1 POP JUMP JUMPDEST PUSH1 0x0 DUP3 SWAP1 POP SWAP3 SWAP2 POP POP JUMP JUMPDEST PUSH1 0x0 DUP2 MLOAD SWAP1 POP SWAP2 SWAP1 POP JUMP JUMPDEST PUSH1 0x0 DUP3 DUP3 MSTORE PUSH1 0x20 DUP3 ADD SWAP1 POP SWAP3 SWAP2 POP POP JUMP JUMPDEST PUSH1 0x0 DUP3 DUP3 MSTORE PUSH1 0x20 DUP3 ADD SWAP1 POP SWAP3 SWAP2 POP POP JUMP JUMPDEST PUSH1 0x0 DUP2 SWAP1 POP SWAP3 SWAP2 POP POP JUMP JUMPDEST PUSH1 0x0 PUSH2 0xD6D PUSH1 0x20 DUP5 ADD DUP5 PUSH2 0x76B JUMP JUMPDEST SWAP1 POP SWAP3 SWAP2 POP POP JUMP JUMPDEST PUSH1 0x0 PUSH2 0xD84 PUSH1 0x20 DUP5 ADD DUP5 PUSH2 0x780 JUMP JUMPDEST SWAP1 POP SWAP3 SWAP2 POP POP JUMP JUMPDEST PUSH1 0x0 DUP1 DUP4 CALLDATALOAD PUSH1 0x1 PUSH1 0x20 SUB DUP5 CALLDATASIZE SUB SUB DUP2 SLT PUSH2 0xDA9 JUMPI PUSH2 0xDA8 PUSH2 0x12C9 JUMP JUMPDEST JUMPDEST DUP4 DUP2 ADD SWAP3 POP DUP3 CALLDATALOAD SWAP2 POP PUSH1 0x20 DUP4 ADD SWAP3 POP PUSH8 0xFFFFFFFFFFFFFFFF DUP3 GT ISZERO PUSH2 0xDD1 JUMPI PUSH2 0xDD0 PUSH2 0x129C JUMP JUMPDEST JUMPDEST PUSH1 0x1 DUP3 MUL CALLDATASIZE SUB DUP5 SGT ISZERO PUSH2 0xDE7 JUMPI PUSH2 0xDE6 PUSH2 0x12B5 JUMP JUMPDEST JUMPDEST POP SWAP3 POP SWAP3 SWAP1 POP JUMP JUMPDEST PUSH1 0x1F DUP3 GT ISZERO PUSH2 0xE30 JUMPI PUSH2 0xE01 DUP2 PUSH2 0xD06 JUMP JUMPDEST PUSH2 0xE0A DUP5 PUSH2 0x10E9 JUMP JUMPDEST DUP2 ADD PUSH1 0x20 DUP6 LT ISZERO PUSH2 0xE19 JUMPI DUP2 SWAP1 POP JUMPDEST PUSH2 0xE2D PUSH2 0xE25 DUP6 PUSH2 0x10E9 JUMP JUMPDEST DUP4 ADD DUP3 PUSH2 0xEA2 JUMP JUMPDEST POP POP JUMPDEST POP POP POP JUMP JUMPDEST PUSH1 0x0 PUSH2 0xE40 DUP3 PUSH2 0xE78 JUMP JUMPDEST SWAP1 POP SWAP2 SWAP1 POP JUMP JUMPDEST PUSH1 0x0 PUSH2 0xE52 DUP3 PUSH2 0xE78 JUMP JUMPDEST SWAP1 POP SWAP2 SWAP1 POP JUMP JUMPDEST PUSH1 0x0 DUP2 ISZERO ISZERO SWAP1 POP SWAP2 SWAP1 POP JUMP JUMPDEST PUSH1 0x0 DUP2 SWAP1 POP PUSH2 0xE73 DUP3 PUSH2 0x14C2 JUMP JUMPDEST SWAP2 SWAP1 POP JUMP JUMPDEST PUSH1 0x0 PUSH20 0xFFFFFFFFFFFFFFFFFFFFFFFFFFFFFFFFFFFFFFFF DUP3 AND SWAP1 POP SWAP2 SWAP1 POP JUMP JUMPDEST PUSH1 0x0 DUP2 SWAP1 POP SWAP2 SWAP1 POP JUMP JUMPDEST JUMPDEST DUP2 DUP2 LT ISZERO PUSH2 0xEC1 JUMPI PUSH2 0xEB6 PUSH1 0x0 DUP3 PUSH2 0x130B JUMP JUMPDEST PUSH1 0x1 DUP2 ADD SWAP1 POP PUSH2 0xEA3 JUMP JUMPDEST POP POP JUMP JUMPDEST PUSH1 0x0 PUSH2 0xED0 DUP3 PUSH2 0xE59 JUMP JUMPDEST SWAP1 POP SWAP2 SWAP1 POP JUMP JUMPDEST PUSH1 0x0 PUSH2 0xEE2 DUP3 PUSH2 0xE65 JUMP JUMPDEST SWAP1 POP SWAP2 SWAP1 POP JUMP JUMPDEST PUSH1 0x0 PUSH2 0xEF4 DUP3 PUSH2 0xE65 JUMP JUMPDEST SWAP1 POP SWAP2 SWAP1 POP JUMP JUMPDEST PUSH1 0x0 PUSH2 0xF06 DUP3 PUSH2 0xE98 JUMP JUMPDEST SWAP1 POP SWAP2 SWAP1 POP JUMP JUMPDEST PUSH2 0xF17 DUP4 DUP4 PUSH2 0xD1B JUMP JUMPDEST PUSH8 0xFFFFFFFFFFFFFFFF DUP2 GT ISZERO PUSH2 0xF30 JUMPI PUSH2 0xF2F PUSH2 0x1223 JUMP JUMPDEST JUMPDEST PUSH2 0xF3A DUP3 SLOAD PUSH2 0x10F9 JUMP JUMPDEST PUSH2 0xF45 DUP3 DUP3 DUP6 PUSH2 0xDEF JUMP JUMPDEST PUSH1 0x0 PUSH1 0x1F DUP4 GT PUSH1 0x1 DUP2 EQ PUSH2 0xF74 JUMPI PUSH1 0x0 DUP5 ISZERO PUSH2 0xF62 JUMPI DUP3 DUP8 ADD CALLDATALOAD SWAP1 POP JUMPDEST PUSH2 0xF6C DUP6 DUP3 PUSH2 0x112B JUMP JUMPDEST DUP7 SSTORE POP PUSH2 0xFD4 JUMP JUMPDEST PUSH1 0x1F NOT DUP5 AND PUSH2 0xF82 DUP7 PUSH2 0xD06 JUMP JUMPDEST PUSH1 0x0 JUMPDEST DUP3 DUP2 LT ISZERO PUSH2 0xFAA JUMPI DUP5 DUP10 ADD CALLDATALOAD DUP3 SSTORE PUSH1 0x1 DUP3 ADD SWAP2 POP PUSH1 0x20 DUP6 ADD SWAP5 POP PUSH1 0x20 DUP2 ADD SWAP1 POP PUSH2 0xF85 JUMP JUMPDEST DUP7 DUP4 LT ISZERO PUSH2 0xFC7 JUMPI DUP5 DUP10 ADD CALLDATALOAD PUSH2 0xFC3 PUSH1 0x1F DUP10 AND DUP3 PUSH2 0x1178 JUMP JUMPDEST DUP4 SSTORE POP JUMPDEST PUSH1 0x1 PUSH1 0x2 DUP9 MUL ADD DUP9 SSTORE POP POP POP JUMPDEST POP POP POP POP POP POP POP JUMP JUMPDEST DUP3 DUP2 DUP4 CALLDATACOPY PUSH1 0x0 DUP4 DUP4 ADD MSTORE POP POP POP JUMP JUMPDEST PUSH1 0x0 JUMPDEST DUP4 DUP2 LT ISZERO PUSH2 0x100A JUMPI DUP1 DUP3 ADD MLOAD DUP2 DUP5 ADD MSTORE PUSH1 0x20 DUP2 ADD SWAP1 POP PUSH2 0xFEF JUMP JUMPDEST DUP4 DUP2 GT ISZERO PUSH2 0x1019 JUMPI PUSH1 0x0 DUP5 DUP5 ADD MSTORE JUMPDEST POP POP POP POP JUMP JUMPDEST PUSH1 0x0 DUP2 ADD PUSH1 0x0 DUP4 ADD PUSH2 0x1031 DUP2 DUP6 PUSH2 0xC4D JUMP JUMPDEST PUSH2 0x103C DUP2 DUP4 DUP7 PUSH2 0x147F JUMP JUMPDEST POP POP POP POP PUSH1 0x1 DUP2 ADD PUSH1 0x20 DUP4 ADD DUP1 PUSH2 0x1052 DUP2 PUSH2 0x1286 JUMP JUMPDEST SWAP1 POP PUSH2 0x105E DUP2 DUP5 PUSH2 0x145C JUMP JUMPDEST POP POP POP PUSH1 0x2 DUP2 ADD PUSH1 0x40 DUP4 ADD PUSH2 0x1073 DUP2 DUP6 PUSH2 0xC4D JUMP JUMPDEST PUSH2 0x107E DUP2 DUP4 DUP7 PUSH2 0x147F JUMP JUMPDEST POP POP POP POP PUSH1 0x3 DUP2 ADD PUSH1 0x60 DUP4 ADD PUSH2 0x1094 DUP2 DUP6 PUSH2 0xC4D JUMP JUMPDEST PUSH2 0x109F DUP2 DUP4 DUP7 PUSH2 0x147F JUMP JUMPDEST POP POP POP POP PUSH1 0x4 DUP2 ADD PUSH1 0x80 DUP4 ADD PUSH2 0x10B5 DUP2 DUP6 PUSH2 0xC4D JUMP JUMPDEST PUSH2 0x10C0 DUP2 DUP4 DUP7 PUSH2 0x147F JUMP JUMPDEST POP POP POP POP PUSH1 0x5 DUP2 ADD PUSH1 0xA0 DUP4 ADD DUP1 PUSH2 0x10D6 DUP2 PUSH2 0x1270 JUMP JUMPDEST SWAP1 POP PUSH2 0x10E2 DUP2 DUP5 PUSH2 0x1439 JUMP JUMPDEST POP POP POP POP POP JUMP JUMPDEST PUSH1 0x0 PUSH1 0x20 PUSH1 0x1F DUP4 ADD DIV SWAP1 POP SWAP2 SWAP1 POP JUMP JUMPDEST PUSH1 0x0 PUSH1 0x2 DUP3 DIV SWAP1 POP PUSH1 0x1 DUP3 AND DUP1 PUSH2 0x1111 JUMPI PUSH1 0x7F DUP3 AND SWAP2 POP JUMPDEST PUSH1 0x20 DUP3 LT DUP2 EQ ISZERO PUSH2 0x1125 JUMPI PUSH2 0x1124 PUSH2 0x11F4 JUMP JUMPDEST JUMPDEST POP SWAP2 SWAP1 POP JUMP JUMPDEST PUSH1 0x0 PUSH2 0x1137 DUP4 DUP4 PUSH2 0x1178 JUMP JUMPDEST SWAP2 POP DUP3 PUSH1 0x2 MUL DUP3 OR SWAP1 POP SWAP3 SWAP2 POP POP JUMP JUMPDEST PUSH2 0x1150 DUP3 PUSH2 0x12D3 JUMP JUMPDEST DUP2 ADD DUP2 DUP2 LT PUSH8 0xFFFFFFFFFFFFFFFF DUP3 GT OR ISZERO PUSH2 0x116F JUMPI PUSH2 0x116E PUSH2 0x1223 JUMP JUMPDEST JUMPDEST DUP1 PUSH1 0x40 MSTORE POP POP POP JUMP JUMPDEST PUSH1 0x0 PUSH2 0x1189 PUSH1 0x0 NOT DUP5 PUSH1 0x8 MUL PUSH2 0x12FE JUMP JUMPDEST NOT DUP1 DUP4 AND SWAP2 POP POP SWAP3 SWAP2 POP POP JUMP JUMPDEST PUSH32 0x4E487B7100000000000000000000000000000000000000000000000000000000 PUSH1 0x0 MSTORE PUSH1 0x1 PUSH1 0x4 MSTORE PUSH1 0x24 PUSH1 0x0 REVERT JUMPDEST PUSH32 0x4E487B7100000000000000000000000000000000000000000000000000000000 PUSH1 0x0 MSTORE PUSH1 0x21 PUSH1 0x4 MSTORE PUSH1 0x24 PUSH1 0x0 REVERT JUMPDEST PUSH32 0x4E487B7100000000000000000000000000000000000000000000000000000000 PUSH1 0x0 MSTORE PUSH1 0x22 PUSH1 0x4 MSTORE PUSH1 0x24 PUSH1 0x0 REVERT JUMPDEST PUSH32 0x4E487B7100000000000000000000000000000000000000000000000000000000 PUSH1 0x0 MSTORE PUSH1 0x41 PUSH1 0x4 MSTORE PUSH1 0x24 PUSH1 0x0 REVERT JUMPDEST PUSH1 0x0 DUP2 SWAP1 POP SWAP2 SWAP1 POP JUMP JUMPDEST PUSH1 0x0 DUP2 SWAP1 POP SWAP2 SWAP1 POP JUMP JUMPDEST PUSH1 0x0 DUP2 SWAP1 POP SWAP2 SWAP1 POP JUMP JUMPDEST PUSH1 0x0 DUP2 CALLDATALOAD PUSH2 0x127D DUP2 PUSH2 0x1504 JUMP JUMPDEST DUP1 SWAP2 POP POP SWAP2 SWAP1 POP JUMP JUMPDEST PUSH1 0x0 DUP2 CALLDATALOAD PUSH2 0x1293 DUP2 PUSH2 0x151B JUMP JUMPDEST DUP1 SWAP2 POP POP SWAP2 SWAP1 POP JUMP JUMPDEST PUSH1 0x0 DUP1 REVERT JUMPDEST PUSH1 0x0 DUP1 REVERT JUMPDEST PUSH1 0x0 DUP1 REVERT JUMPDEST PUSH1 0x0 DUP1 REVERT JUMPDEST PUSH1 0x0 DUP1 REVERT JUMPDEST PUSH1 0x0 DUP1 REVERT JUMPDEST PUSH1 0x0 DUP1 REVERT JUMPDEST PUSH1 0x0 DUP1 REVERT JUMPDEST PUSH1 0x0 DUP1 REVERT JUMPDEST PUSH1 0x0 DUP1 REVERT JUMPDEST PUSH1 0x0 DUP1 REVERT JUMPDEST PUSH1 0x0 PUSH1 0x1F NOT PUSH1 0x1F DUP4 ADD AND SWAP1 POP SWAP2 SWAP1 POP JUMP JUMPDEST PUSH1 0x0 DUP2 PUSH1 0x0 SHL SWAP1 POP SWAP2 SWAP1 POP JUMP JUMPDEST PUSH1 0x0 DUP3 DUP3 SHL SWAP1 POP SWAP3 SWAP2 POP POP JUMP JUMPDEST PUSH1 0x0 DUP3 DUP3 SHR SWAP1 POP SWAP3 SWAP2 POP POP JUMP JUMPDEST PUSH2 0x1313 PUSH2 0x152B JUMP JUMPDEST PUSH2 0x131E DUP2 DUP5 DUP5 PUSH2 0x149D JUMP JUMPDEST POP POP POP JUMP JUMPDEST PUSH32 0x4F776E61626C653A206E6577206F776E657220697320746865207A65726F2061 PUSH1 0x0 DUP3 ADD MSTORE PUSH32 0x6464726573730000000000000000000000000000000000000000000000000000 PUSH1 0x20 DUP3 ADD MSTORE POP JUMP JUMPDEST PUSH32 0x6E616D652063616E206E6F74206265206E756C6C000000000000000000000000 PUSH1 0x0 DUP3 ADD MSTORE POP JUMP JUMPDEST PUSH32 0x73746172747570206E616D6520686173206265656E2075736564000000000000 PUSH1 0x0 DUP3 ADD MSTORE POP JUMP JUMPDEST PUSH1 0x0 PUSH1 0xFF PUSH2 0x13D1 DUP5 PUSH2 0x12E4 JUMP JUMPDEST SWAP4 POP DUP1 NOT DUP4 AND SWAP3 POP DUP1 DUP5 AND DUP4 OR SWAP2 POP POP SWAP3 SWAP2 POP POP JUMP JUMPDEST PUSH1 0x0 PUSH1 0x8 DUP4 MUL PUSH2 0x1417 PUSH32 0xFFFFFFFFFFFFFFFFFFFFFFFFFFFFFFFFFFFFFFFFFFFFFFFFFFFFFFFFFFFFFFFF DUP3 PUSH2 0x12F1 JUMP JUMPDEST PUSH2 0x1421 DUP7 DUP4 PUSH2 0x12F1 JUMP JUMPDEST SWAP6 POP DUP1 NOT DUP5 AND SWAP4 POP DUP1 DUP7 AND DUP5 OR SWAP3 POP POP POP SWAP4 SWAP3 POP POP POP JUMP JUMPDEST PUSH2 0x1442 DUP3 PUSH2 0xEC5 JUMP JUMPDEST PUSH2 0x1455 PUSH2 0x144E DUP3 PUSH2 0x1252 JUMP JUMPDEST DUP4 SLOAD PUSH2 0x13C4 JUMP JUMPDEST DUP3 SSTORE POP POP POP JUMP JUMPDEST PUSH2 0x1465 DUP3 PUSH2 0xED7 JUMP JUMPDEST PUSH2 0x1478 PUSH2 0x1471 DUP3 PUSH2 0x125C JUMP JUMPDEST DUP4 SLOAD PUSH2 0x13C4 JUMP JUMPDEST DUP3 SSTORE POP POP POP JUMP JUMPDEST PUSH2 0x148A DUP4 DUP4 DUP4 PUSH2 0xF0D JUMP JUMPDEST POP POP POP JUMP JUMPDEST PUSH2 0x1499 DUP3 DUP3 PUSH2 0x101F JUMP JUMPDEST POP POP JUMP JUMPDEST PUSH2 0x14A6 DUP4 PUSH2 0xEFB JUMP JUMPDEST PUSH2 0x14BA PUSH2 0x14B2 DUP3 PUSH2 0x1266 JUMP JUMPDEST DUP5 DUP5 SLOAD PUSH2 0x13E7 JUMP JUMPDEST DUP3 SSTORE POP POP POP POP JUMP JUMPDEST PUSH1 0x5 DUP2 LT PUSH2 0x14D3 JUMPI PUSH2 0x14D2 PUSH2 0x11C5 JUMP JUMPDEST JUMPDEST POP JUMP JUMPDEST PUSH2 0x14DF DUP2 PUSH2 0xE35 JUMP JUMPDEST DUP2 EQ PUSH2 0x14EA JUMPI PUSH1 0x0 DUP1 REVERT JUMPDEST POP JUMP JUMPDEST PUSH2 0x14F6 DUP2 PUSH2 0xE47 JUMP JUMPDEST DUP2 EQ PUSH2 0x1501 JUMPI PUSH1 0x0 DUP1 REVERT JUMPDEST POP JUMP JUMPDEST PUSH2 0x150D DUP2 PUSH2 0xE59 JUMP JUMPDEST DUP2 EQ PUSH2 0x1518 JUMPI PUSH1 0x0 DUP1 REVERT JUMPDEST POP JUMP JUMPDEST PUSH1 0x5 DUP2 LT PUSH2 0x1528 JUMPI PUSH1 0x0 DUP1 REVERT JUMPDEST POP JUMP JUMPDEST PUSH1 0x0 SWAP1 JUMP INVALID LOG2 PUSH5 0x6970667358 0x22 SLT KECCAK256 PUSH19 0xB9786F8EA7F3FF7EE39405D3CB9AD1A938A6C9 PUSH6 0x83DB449E94B0 CALLVALUE CREATE2 SWAP5 BASEFEE DUP8 PUSH5 0x736F6C6343 STOP ADDMOD SMOD STOP CALLER "
		},
		"gasEstimates": {
			"creation": {
				"codeDepositCost": "1095600",
				"executionCost": "49672",
				"totalCost": "1145272"
			},
			"external": {
				"": "157",
				"newStartup((string,uint8,string,string,string,bool))": "infinite",
				"startups(string)": "infinite",
				"suicide0(address)": "30198",
				"transferOwnership(address)": "30672"
			}
		},
		"methodIdentifiers": {
			"newStartup((string,uint8,string,string,string,bool))": "baa143ed",
			"startups(string)": "f86025c3",
			"suicide0(address)": "14da447f",
			"transferOwnership(address)": "f2fde38b"
		}
	},
	"abi": [
		{
			"inputs": [],
			"stateMutability": "nonpayable",
			"type": "constructor"
		},
		{
			"anonymous": false,
			"inputs": [
				{
					"indexed": true,
					"internalType": "address",
					"name": "previousOwner",
					"type": "address"
				},
				{
					"indexed": true,
					"internalType": "address",
					"name": "newOwner",
					"type": "address"
				}
			],
			"name": "OwnershipTransferred",
			"type": "event"
		},
		{
			"anonymous": false,
			"inputs": [
				{
					"indexed": false,
					"internalType": "string",
					"name": "name",
					"type": "string"
				},
				{
					"components": [
						{
							"internalType": "string",
							"name": "name",
							"type": "string"
						},
						{
							"internalType": "enum Startup.Mode",
							"name": "mode",
							"type": "uint8"
						},
						{
							"internalType": "string",
							"name": "logo",
							"type": "string"
						},
						{
							"internalType": "string",
							"name": "mission",
							"type": "string"
						},
						{
							"internalType": "string",
							"name": "overview",
							"type": "string"
						},
						{
							"internalType": "bool",
							"name": "isValidate",
							"type": "bool"
						}
					],
					"indexed": false,
					"internalType": "struct Startup.Profile",
					"name": "startUp",
					"type": "tuple"
				},
				{
					"indexed": false,
					"internalType": "address",
					"name": "msg",
					"type": "address"
				}
			],
			"name": "created",
			"type": "event"
		},
		{
			"stateMutability": "payable",
			"type": "fallback"
		},
		{
			"inputs": [
				{
					"components": [
						{
							"internalType": "string",
							"name": "name",
							"type": "string"
						},
						{
							"internalType": "enum Startup.Mode",
							"name": "mode",
							"type": "uint8"
						},
						{
							"internalType": "string",
							"name": "logo",
							"type": "string"
						},
						{
							"internalType": "string",
							"name": "mission",
							"type": "string"
						},
						{
							"internalType": "string",
							"name": "overview",
							"type": "string"
						},
						{
							"internalType": "bool",
							"name": "isValidate",
							"type": "bool"
						}
					],
					"internalType": "struct Startup.Profile",
					"name": "p",
					"type": "tuple"
				}
			],
			"name": "newStartup",
			"outputs": [],
			"stateMutability": "payable",
			"type": "function"
		},
		{
			"inputs": [
				{
					"internalType": "string",
					"name": "",
					"type": "string"
				}
			],
			"name": "startups",
			"outputs": [
				{
					"internalType": "string",
					"name": "name",
					"type": "string"
				},
				{
					"internalType": "enum Startup.Mode",
					"name": "mode",
					"type": "uint8"
				},
				{
					"internalType": "string",
					"name": "logo",
					"type": "string"
				},
				{
					"internalType": "string",
					"name": "mission",
					"type": "string"
				},
				{
					"internalType": "string",
					"name": "overview",
					"type": "string"
				},
				{
					"internalType": "bool",
					"name": "isValidate",
					"type": "bool"
				}
			],
			"stateMutability": "view",
			"type": "function"
		},
		{
			"inputs": [
				{
					"internalType": "address payable",
					"name": "receiver",
					"type": "address"
				}
			],
			"name": "suicide0",
			"outputs": [],
			"stateMutability": "nonpayable",
			"type": "function"
		},
		{
			"inputs": [
				{
					"internalType": "address",
					"name": "newOwner",
					"type": "address"
				}
			],
			"name": "transferOwnership",
			"outputs": [],
			"stateMutability": "nonpayable",
			"type": "function"
		},
		{
			"stateMutability": "payable",
			"type": "receive"
		}
	]
}